:020000040000FA
:0600000030EF32F01200A7
:08000800F2A402D0E0EF2AF09F
:100010009EA002D049EF2BF0A1A202D041EF2FF019
:100020009EAA02D0BCEF25F01200D08EF28E1200F4
:06003A000900B76400009C
:100040006A0300000100000020660000BF020000FB
:10005000410000001E66000067030000020000006F
:10006000F76500000003000027000000E5650000C0
:100070002703000012000000906500006A020000E3
:1000800055000000816500004A0300000F000000D9
:10009000CB64000000010000B6000000BA6400005C
:0800A00039030000110000000B
:0800A800D9CFE6FFE1CFD9FF3B
:1000B000E652FE0EDBCFE6FF010EF36EFD0EDB50C7
:1000C00004E0D890F336E806FCE1F350E552E7147B
:1000D00002E0010E01D0000EDF6EDF5000D0E552CD
:1000E000E552E7CFD9FF1200D9CFE6FFE1CFD9FF24
:1000F000010EF36EFC0EDB5004E0D890F336E806F8
:10010000FCE1F350146EFD0EDBCFE9FFFE0EDBCFFA
:10011000EAFF1450EF12E552E7CFD9FF1200D9CF12
:10012000E6FFE1CFD9FF010EF36EFC0EDB5004E0D9
:10013000D890F336E806FCE1F350E81C146EFD0E8F
:10014000DBCFE9FFFE0EDBCFEAFF1450EF16E552DE
:10015000E7CFD9FF1200D9CFE6FFE1CFD9FF030ED9
:10016000E126DF6A010EDF5C01E31ED1DF28E66EC7
:10017000DF50B50DF3CFE9FFF4CFEAFF000EE9261B
:10018000010EEA22E552E750EF6EDF50B50DF3CFD6
:10019000E9FFF4CFEAFF000EE926010EEA22EE5253
:1001A000EF6ADF50B50DF3CFE9FFF4CFEAFF000EA1
:1001B000E926010EEA22030EE926000EEA22EE6A83
:1001C000ED6ADF50B50DF3CFE9FFF4CFEAFF000E83
:1001D000E926010EEA22050EE926000EEA22EF6A60
:1001E000DF50B50DF3CFE9FFF4CFEAFF000EE926AB
:1001F000010EEA22060EE926000EEA22EF6ADF501F
:10020000B50DF3CFE9FFF4CFEAFF000EE926010EAA
:10021000EA22090EE926000EEA22EF6ADF50B50D48
:10022000F3CFE9FFF4CFEAFF000EE926010EEA2240
:100230000A0EE926000EEA22EF6ADF50B50DF3CF71
:10024000E9FFF4CFEAFF000EE926010EEA22070ECD
:10025000E926000EEA22EF6ADF50B50DF3CFE9FF81
:10026000F4CFEAFF000EE926010EEA220B0EE92682
:10027000000EEA22EF6ADF50B50DF3CFE9FFF4CFAD
:10028000EAFF000EE926010EEA220C0EE926000E16
:10029000EA22EF6ADF50B50DF3CFE9FFF4CFEAFFB2
:1002A000000EE926010EEA22080EE926000EEA22D7
:1002B000EF6ADF50B50DF3CFE9FFF4CFEAFF000E90
:1002C000E926010EEA22020EE926000EEA22EF6A72
:1002D000DE52380EDD6E010EDBCFE6FFE66AE66A1F
:1002E000DF50B50DF3CFE9FFF4CFEAFF000EE926AA
:1002F000010EEA227D0EE926000EEA22E9CF14F073
:10030000EACF15F014C0E6FF15C0E6FFC3EC2FF0EE
:10031000166E050EE15E1650010EDBCFE6FFE66AB3
:10032000E66ADF50B50DF3CFE9FFF4CFEAFF000E28
:10033000E926010EEA220D0EE926000EEA22E9CF97
:1003400014F0EACF15F014C0E6FF15C0E6FFC3ECC9
:100350002FF0166E050EE15E1650010EDBCFE6FFA4
:10036000E66AE66ADF50B50DF3CFE9FFF4CFEAFFA6
:10037000000EE926010EEA220D0EE926000EEA2201
:10038000E9CF14F0EACF15F0380E1426000E15222E
:1003900014C0E6FF15C0E6FFC3EC2FF0166E050E85
:1003A000E15E1650DF2ADED6030EE15C02E2E16A6E
:1003B000E552E16EE552E7CFD9FF1200D9CFE6FF53
:1003C000E1CFD9FF070EE126010EF36EFE0EDBCF63
:1003D000F4FFF350F45C1EE2FC0EDBCFE9FFFD0EF0
:1003E000DBCFEAFFEF50146E156AD890155004E683
:1003F000800E145C000E15580DE2FC0EDBCFE9FFF9
:10040000FD0EDBCFEAFF020EE926000EEA22EE50D7
:10041000ED1002E1000EEFD3FE0EDB50B50DF3CF71
:10042000E9FFF4CFEAFF000EE926010EEA22EE52C0
:10043000E9CF14F0EACF15F0050E14C0DBFF060E6D
:1004400015C0DBFFFC0EDBCFE9FFFD0EDBCFEAFFC3
:10045000EECF14F0EECF15F0EECF16F0EECF17F092
:10046000EECF18F0EFCF19F0050EDBCFE9FF060E47
:10047000DBCFEAFF14C0EEFF15C0EEFF16C0EEFFA3
:1004800017C0EEFF18C0EEFF19C0EEFFFE0EDB50E6
:10049000B50DF3CFE9FFF4CFEAFF000EE926010E18
:1004A000EA22060EE926000EEA22EF50E66EFE0E64
:1004B000DB50B50DF3CFE9FFF4CFEAFF000EE926DC
:1004C000010EEA22070EE926000EEA22E552E75065
:1004D000EF6E380EDF6EDFCFE6FFE66AE66AFE0EED
:1004E000DB50B50DF3CFE9FFF4CFEAFF000EE926AC
:1004F000010EEA227D0EE926000EEA22E9CF14F071
:10050000EACF15F014C0E6FF15C0E6FFC3EC2FF0EC
:10051000166E050EE15E1650DFCFE6FFE66AE66A6C
:10052000FE0EDB50B50DF3CFE9FFF4CFEAFF000E6E
:10053000E926010EEA220D0EE926000EEA22E9CF95
:1005400014F0EACF15F014C0E6FF15C0E6FFC3ECC7
:100550002FF0166E050EE15E1650DFCFE6FFE66A5D
:10056000E66AFE0EDB50B50DF3CFE9FFF4CFEAFFEC
:10057000000EE926010EEA220D0EE926000EEA22FF
:10058000E9CF14F0EACF15F0380E1426000E15222C
:1005900014C0E6FF15C0E6FFC3EC2FF0166E050E83
:1005A000E15E1650FE0EDB50B50DF3CFE9FFF4CF40
:1005B000EAFF000EE926010EEA22060EE926000EE9
:1005C000EA22EF5001E083D1FE0EDB50B50DF3CFF0
:1005D000E9FFF4CFEAFF000EE926010EEA22080E39
:1005E000E926000EEA22EF6ADF6AFE0EDB50B50D47
:1005F000F3CFE9FFF4CFEAFF000EE926010EEA226D
:10060000020EE926000EEA22EF50DF5C01E35ED124
:10061000FE0EDB50B50DF3CFE9FFF4CFEAFF000E7D
:10062000E926010EEA22080EE926000EEA22EF5022
:10063000EF2A146E156AFE0EDB50B50DF3CFE9FFFD
:10064000F4CFEAFF000EE926010EEA22030EE926A6
:10065000000EEA221450EE24E76E1550EE20EA6EEA
:10066000E7CFE9FFEF50E00FE76E040EE7CFDBFFC7
:10067000DBCF14F014340EE2040EDBCF15F0630E62
:10068000E76E1518E8AE02D0153403D0E750D880D5
:10069000155402E2040EDB6AFE0EDB50B50DF3CFFB
:1006A000E9FFF4CFEAFF000EE926010EEA22080E68
:1006B000E926000EEA22EFCF14F0FE0EDB50B50D56
:1006C000F3CFE9FFF4CFEAFF000EE926010EEA229C
:1006D000050EE926000EEA22EF50145C10E3FE0E30
:1006E000DB50B50DF3CFE9FFF4CFEAFF000EE926AA
:1006F000010EEA22080EE926000EEA22EF6A010E38
:10070000DB6A070EF36E010EDBCFF4FFF350F45CEF
:1007100001E3DAD0040EDBCF18F0196A18BE1968AD
:10072000030ED89018361936E806FBE1A40E1826F9
:100730003E0E1922010EDB500F011824F66E000E3A
:100740001920F76E0800F550E66EFE0EDB50B50D71
:10075000F3CFE9FFF4CFEAFF000EE926010EEA220B
:100760007D0EE926000EEA22E9CF16F0EACF17F057
:10077000010EDB50080D1650F324146E1750F420B0
:10078000156EDF500F011424E96E000E1520EA6E7D
:10079000E552E750EF6EFE0EDB50B50DF3CFE9FFEB
:1007A000F4CFEAFF000EE926010EEA227D0EE926CB
:1007B000000EEA22E9CF1AF0EACF1BF0010EDB505F
:1007C000080D1A50F324186E1B50F420196EDF50D8
:1007D0001824E96E000E1920EA6EEF50E66EFE0E48
:1007E000DB50B50DF3CFE9FFF4CFEAFF000EE926A9
:1007F000010EEA220D0EE926000EEA22E9CF16F0DC
:10080000EACF17F0010EDB50080D1650F324146EDA
:100810001750F420156EDF501424E96E000E1520D9
:10082000EA6EE552E750EF6EFE0EDB50B50DF3CFEA
:10083000E9FFF4CFEAFF000EE926010EEA227D0E61
:10084000E926000EEA22E9CF1AF0EACF1BF0010EEA
:10085000DB50080D1A50F324186E1B50F420196E4B
:10086000DF501824E96E000E1920EA6EEF50E66E94
:10087000FE0EDB50B50DF3CFE9FFF4CFEAFF000E1B
:10088000E926010EEA220D0EE926000EEA22E9CF42
:1008900016F0EACF17F0380E1626000E1722010EBA
:1008A000DB50080D1650F324146E1750F420156E0B
:1008B000DF501424E96E000E1520EA6EE552E75071
:1008C000EF6E010EDB2A1DD7DF2A8FD682D1FE0EF6
:1008D000DB50B50DF3CFE9FFF4CFEAFF000EE926B8
:1008E000010EEA22080EE926000EEA22EF6ADF6A0C
:1008F000FE0EDB50B50DF3CFE9FFF4CFEAFF000E9B
:10090000E926010EEA22020EE926000EEA22EF5045
:10091000DF5C01E35ED1FE0EDB50B50DF3CFE9FFE6
:10092000F4CFEAFF000EE926010EEA22080EE926BE
:10093000000EEA22EF50EF2A146E156AFE0EDB500D
:10094000B50DF3CFE9FFF4CFEAFF000EE926010E63
:10095000EA22030EE926000EEA221450EE24E76E86
:100960001550EE20EA6EE7CFE9FFEF50E00FE76E9B
:10097000040EE7CFDBFFDBCF14F014340EE2040EDD
:10098000DBCF15F0630EE76E1518E8AE02D0153414
:1009900003D0E750D880155402E2040EDB6AFE0E45
:1009A000DB50B50DF3CFE9FFF4CFEAFF000EE926E7
:1009B000010EEA22080EE926000EEA22EFCF14F01B
:1009C000FE0EDB50B50DF3CFE9FFF4CFEAFF000ECA
:1009D000E926010EEA22050EE926000EEA22EF5072
:1009E000145C10E3FE0EDB50B50DF3CFE9FFF4CF3E
:1009F000EAFF000EE926010EEA22080EE926000EA3
:100A0000EA22EF6A010EDB6A070EF36E010EDBCFFE
:100A1000F4FFF350F45C01E3DAD0040EDBCF18F0FE
:100A2000196A18BE1968030ED89018361936E806E8
:100A3000FBE1A40E18263E0E1922010EDB500F0119
:100A40001824F66E000E1920F76E0800F550E66EB9
:100A5000FE0EDB50B50DF3CFE9FFF4CFEAFF000E39
:100A6000E926010EEA227D0EE926000EEA22E9CFF0
:100A700016F0EACF17F0010EDB50080D1650F324E4
:100A8000146E1750F420156EDF500F011424E96E18
:100A9000000E1520EA6EE552E750EF6EFE0EDB50B9
:100AA000B50DF3CFE9FFF4CFEAFF000EE926010E02
:100AB000EA227D0EE926000EEA22E9CF1AF0EACFFB
:100AC0001BF0010EDB50080D1A50F324186E1B505A
:100AD000F420196EDF501824E96E000E1920EA6E1A
:100AE000EF50E66EFE0EDB50B50DF3CFE9FFF4CF0D
:100AF000EAFF000EE926010EEA220D0EE926000E9D
:100B0000EA22E9CF16F0EACF17F0010EDB50080D0C
:100B10001650F324146E1750F420156EDF50142471
:100B2000E96E000E1520EA6EE552E750EF6EFE0EFC
:100B3000DB50B50DF3CFE9FFF4CFEAFF000EE92655
:100B4000010EEA227D0EE926000EEA22E9CF1AF014
:100B5000EACF1BF0010EDB50080D1A50F324186E7B
:100B60001B50F420196EDF501824E96E000E192076
:100B7000EA6EEF50E66EFE0EDB50B50DF3CFE9FFE7
:100B8000F4CFEAFF000EE926010EEA220D0EE92657
:100B9000000EEA22E9CF16F0EACF17F0380E16263B
:100BA000000E1722010EDB50080D1650F324146EB0
:100BB0001750F420156EDF501424E96E000E152036
:100BC000EA6EE552E750EF6E010EDB2A1DD7DF2AF1
:100BD0008FD6FE0EDB50B50DF3CFE9FFF4CFEAFF61
:100BE000000EE926010EEA22080EE926000EEA228E
:100BF000EF6A010E00D0146E070EE15C02E2E16ABA
:100C0000E552E16E1450E552E7CFD9FF1200D9CF7B
:100C1000E6FFE1CFD9FFFE0EDB50B50DF3CFE9FFC4
:100C2000F4CFEAFF000EE926010EEA22060EE926BD
:100C3000000EEA22FD0EDBCFEFFFFE0EDB50B50DFE
:100C4000F3CFE9FFF4CFEAFF000EE926010EEA2216
:100C5000070EE926000EEA22FD0EDBCFEFFFE5527C
:100C6000E7CFD9FF1200D9CFE6FFE1CFD9FF020EBF
:100C7000E126FD0EDB50146E156AFE0EDB50B50D3D
:100C8000F3CFE9FFF4CFEAFF000EE926010EEA22D6
:100C9000030EE926000EEA221450EE24E76E1550EA
:100CA000EE20EA6EE7CFE9FFEF50E00FE76E010EAE
:100CB000E7CFDBFFDF6A070EDF5C01E3B1D0010E97
:100CC000DB50080DF3CF18F0F4CF19F0A40E18265E
:100CD0003E0E1922DF500F011824F66E000E192067
:100CE000F76E0800F550E66EFE0EDB50B50DF3CF43
:100CF000E9FFF4CFEAFF000EE926010EEA227D0E9D
:100D0000E926000EEA22E9CF16F0EACF17F0DF500D
:100D1000080D1650F324146E1750F420156EFD0EB6
:100D2000DB500F011424E96E000E1520EA6EE55227
:100D3000E750EF6EDF50080DF3CF18F0F4CF19F045
:100D40007D0E1826010E1922FD0EDB501824E96EC7
:100D5000000E1920EA6EEF50E66EFE0EDB50B50D68
:100D6000F3CFE9FFF4CFEAFF000EE926010EEA22F5
:100D70000D0EE926000EEA22E9CF16F0EACF17F0B1
:100D8000DF50080D1650F324146E1750F420156E22
:100D9000FD0EDB501424E96E000E1520EA6EE552BC
:100DA000E750EF6EDF50080DF3CF18F0F4CF19F0D5
:100DB0007D0E1826010E1922FD0EDB501824E96E57
:100DC000000E1920EA6EEF50E66EFE0EDB50B50DF8
:100DD000F3CFE9FFF4CFEAFF000EE926010EEA2285
:100DE0000D0EE926000EEA22E9CF16F0EACF17F041
:100DF000380E1626000E1722DF50080D1650F32469
:100E0000146E1750F420156EFD0EDB501424E96E9D
:100E1000000E1520EA6EE552E750EF6EDF2A4BD741
:100E2000020EE15C02E2E16AE552E16EE552E7CFD3
:100E3000D9FF1200D9CFE6FFE1CFD9FFE652FE0E6F
:100E4000DB50B50DF3CFE9FFF4CFEAFF000EE92642
:100E5000010EEA22EE52EF6AFE0EDB50B50DF3CF23
:100E6000E9FFF4CFEAFF000EE926010EEA22030EA5
:100E7000E926000EEA22EE6AED6AFE0EDB50B50DA1
:100E8000F3CFE9FFF4CFEAFF000EE926010EEA22D4
:100E9000050EE926000EEA22EF6AFE0EDB50B50DC4
:100EA000F3CFE9FFF4CFEAFF000EE926010EEA22B4
:100EB000060EE926000EEA22EF6AFE0EDB50B50DA3
:100EC000F3CFE9FFF4CFEAFF000EE926010EEA2294
:100ED000090EE926000EEA22EF6AFE0EDB50B50D80
:100EE000F3CFE9FFF4CFEAFF000EE926010EEA2274
:100EF0000A0EE926000EEA22EF6AFE0EDB50B50D5F
:100F0000F3CFE9FFF4CFEAFF000EE926010EEA2253
:100F1000070EE926000EEA22EF6AFE0EDB50B50D41
:100F2000F3CFE9FFF4CFEAFF000EE926010EEA2233
:100F30000B0EE926000EEA22EF6AFE0EDB50B50D1D
:100F4000F3CFE9FFF4CFEAFF000EE926010EEA2213
:100F50000C0EE926000EEA22EF6AFE0EDB50B50DFC
:100F6000F3CFE9FFF4CFEAFF000EE926010EEA22F3
:100F7000080EE926000EEA22EF6AFE0EDB50B50DE0
:100F8000F3CFE9FFF4CFEAFF000EE926010EEA22D3
:100F9000020EE926000EEA22EF6A380EDF6EDFCF7E
:100FA000E6FFE66AE66AFE0EDB50B50DF3CFE9FF19
:100FB000F4CFEAFF000EE926010EEA227D0EE926B3
:100FC000000EEA22E9CF14F0EACF15F014C0E6FFD4
:100FD00015C0E6FFC3EC2FF0166E050EE15E16504D
:100FE000DFCFE6FFE66AE66AFE0EDB50B50DF3CF13
:100FF000E9FFF4CFEAFF000EE926010EEA220D0E0A
:10100000E926000EEA22E9CF14F0EACF15F014C069
:10101000E6FF15C0E6FFC3EC2FF0166E050EE15E8D
:101020001650DFCFE6FFE66AE66AFE0EDB50B50D2E
:10103000F3CFE9FFF4CFEAFF000EE926010EEA2222
:101040000D0EE926000EEA22E9CF14F0EACF15F0E2
:10105000380E1426000E152214C0E6FF15C0E6FF58
:10106000C3EC2FF0166E050EE15E1650E552E55208
:10107000E7CFD9FF1200D9CFE6FFE1CFD9FF050EA8
:10108000E126DF6A010EDF5C01E3BBD3DF50B50D63
:10109000F3CFE9FFF4CFEAFF000EE926010EEA22C2
:1010A000060EE926000EEA22EF5021E0DF50B50DD2
:1010B000F3CFE9FFF4CFEAFF000EE926010EEA22A2
:1010C000070EE926000EEA22EF06DF50B50DF3CF3A
:1010D000E9FFF4CFEAFF000EE926010EEA22070E2F
:1010E000E926000EEA22EF50000801E288D3DF5023
:1010F000B50DF3CFE9FFF4CFEAFF000EE926010EAC
:10110000EA22060EE926000EEA22EF50E66EDF50D4
:10111000B50DF3CFE9FFF4CFEAFF000EE926010E8B
:10112000EA22070EE926000EEA22E552E750EF6EAA
:101130009D90DF50B50DF3CFE9FFF4CFEAFF000E2D
:10114000E926010EEA22090EE926000EEA22EF50F6
:1011500025E1DF50B50DF3CFE9FFF4CFEAFF000E34
:10116000E926010EEA220C0EE926000EEA22EF50D3
:1011700002E1010E01D0000EE66EDF50B50DF3CF97
:10118000E9FFF4CFEAFF000EE926010EEA220B0E7A
:10119000E926000EEA22E552E750EF6EDF50B50D6A
:1011A000F3CFE9FFF4CFEAFF000EE926010EEA22B1
:1011B000090EE926000EEA22EF0402E19D801FD30A
:1011C0009D80DF50B50DF3CFE9FFF4CFEAFF000EAD
:1011D000E926010EEA22060EE926000EEA22EF5069
:1011E00001E1FBD2010EDB6A070EF36E010EDBCFCD
:1011F000F4FFF350F45C01E380D2010EF36E020EB3
:10120000F3CFDBFFDF50B50DF3CFE9FFF4CFEAFFFB
:10121000000EE926010EEA22020EE926000EEA225D
:10122000EF50F36E020EDBCFF4FFF350F45C01E3FA
:1012300011D1DF50B50DF3CFE9FFF4CFEAFF000E77
:10124000E926010EEA227D0EE926000EEA22E9CF08
:1012500016F0EACF17F0010EDB50080D1650F324FC
:10126000146E1750F420156E020EDB040F011424C7
:10127000E96E000E1520EA6EEF9EEF46070EE66E51
:10128000DF50B50DF3CFE9FFF4CFEAFF000EE926FA
:10129000010EEA227D0EE926000EEA22E9CF16F0C1
:1012A000EACF17F0010EDB50080D1650F324146E30
:1012B0001750F420156E020EDB501424E96E000E58
:1012C0001520EA6EEF50E66E54EC00F0E552E55260
:1012D00001082FE1030EE66EDF50B50DF3CFE9FFF5
:1012E000F4CFEAFF000EE926010EEA227D0EE92680
:1012F000000EEA22E9CF18F0EACF19F0010EDB5018
:10130000080D1850F324166E1950F420176E020EB3
:10131000DB0400011624146E000E1720156E14C095
:10132000E6FF15C0E6FF74EC00F0E552E552E55229
:101330002ED0030EE66EDF50B50DF3CFE9FFF4CFEC
:10134000EAFF000EE926010EEA227D0EE926000ED4
:10135000EA22E9CF18F0EACF19F0010EDB50080DB0
:101360001850F324166E1950F420176E020EDB0489
:1013700000011624146E000E1720156E14C0E6FF2F
:1013800015C0E6FF8FEC00F0E552E552E552DF5064
:10139000B50DF3CFE9FFF4CFEAFF000EE926010E09
:1013A000EA227D0EE926000EEA22E9CF1CF0EACF00
:1013B0001DF0010EDB50080D1C50F3241A6E1D5059
:1013C000F4201B6E020EDB040F011A24E96E000EDE
:1013D0001B20EA6EEF50E66EDF50B50DF3CFE9FF4C
:1013E000F4CFEAFF000EE926010EEA220D0EE926EF
:1013F000000EEA22E9CF18F0EACF19F0DF50B50D60
:10140000F3CFE9FFF4CFEAFF000EE926010EEA224E
:101410000B0EE926000EEA22EF50380D1850F32487
:10142000166E1950F420176E010EDB50080D165081
:10143000F324146E1750F420156E020EDB041424EE
:10144000E96E000E1520EA6EE552E750EF6E020ECF
:10145000DB2AD8D6DF50B50DF3CFE9FFF4CFEAFF92
:10146000000EE926010EEA227D0EE926000EEA2290
:10147000E9CF16F0EACF17F0010EDB50080D165039
:10148000F324146E1750F420156E020EDB040F01C6
:101490001424E96E000E1520EA6EEF9EEF46DF5031
:1014A000B50DF3CFE9FFF4CFEAFF000EE926010EF8
:1014B000EA22080EE926000EEA22EF50146E156AA1
:1014C000DF50B50DF3CFE9FFF4CFEAFF000EE926B8
:1014D000010EEA22030EE926000EEA221450EE2441
:1014E000E76E1550EE20EA6EE7CFE9FFEF50E00F10
:1014F000E76E030EE7CFDBFF000EF36E030EDBCFCC
:10150000F4FFF350F45C04E3030EDB50630802E2E3
:10151000030EDB6A030EDB50080DF3CF14F0F4CF9B
:1015200015F0A40E14263E0E1522010EDB500F01FD
:101530001424F66E000E1520F76E0800040EF5CF89
:10154000DBFF070E146EDF50B50DF3CFE9FFF4CFCC
:10155000EAFF000EE926010EEA220A0EE926000E35
:10156000EA22EF50145CE66E040EDBCFE6FF54EC8B
:1015700000F0E552E55201082FE1030EE66EDF5060
:10158000B50DF3CFE9FFF4CFEAFF000EE926010E17
:10159000EA227D0EE926000EEA22E9CF18F0EACF12
:1015A00019F0010EDB50080D1850F324166E195077
:1015B000F420176E020EDB0400011624146E000ED8
:1015C0001720156E14C0E6FF15C0E6FF74EC00F09E
:1015D000E552E552E5522ED0030EE66EDF50B50D12
:1015E000F3CFE9FFF4CFEAFF000EE926010EEA226D
:1015F0007D0EE926000EEA22E9CF18F0EACF19F0B5
:10160000010EDB50080D1850F324166E1950F4200B
:10161000176E020EDB0400011624146E000E172054
:10162000156E14C0E6FF15C0E6FF8FEC00F0E55222
:10163000E552E552DF50B50DF3CFE9FFF4CFEAFFF5
:10164000000EE926010EEA227D0EE926000EEA22AE
:10165000E9CF1CF0EACF1DF0010EDB50080D1C5045
:10166000F3241A6E1D50F4201B6E020EDB040F01D2
:101670001A24E96E000E1B20EA6EEF50E66EDF5072
:10168000B50DF3CFE9FFF4CFEAFF000EE926010E16
:10169000EA220D0EE926000EEA22E9CF18F0EACF81
:1016A00019F0DF50B50DF3CFE9FFF4CFEAFF000EDC
:1016B000E926010EEA220B0EE926000EEA22EF507F
:1016C000380D1850F324166E1950F420176E010EC1
:1016D000DB50080D1650F324146E1750F420156ECD
:1016E000020EDB041424E96E000E1520EA6EE552AA
:1016F000E750EF6E010EDB2A77D5DF50B50DF3CF43
:10170000E9FFF4CFEAFF000EE926010EEA220A0EF5
:10171000E926000EEA22EF2ADF50B50DF3CFE9FFEC
:10172000F4CFEAFF000EE926010EEA220A0EE926AE
:10173000000EEA22EFCF14F0050E145C4EE3DF50EA
:10174000B50DF3CFE9FFF4CFEAFF000EE926010E55
:10175000EA22080EE926000EEA22EF2ADF50B50D34
:10176000F3CFE9FFF4CFEAFF000EE926010EEA22EB
:10177000080EE926000EEA22EFCF14F0DF50B50D77
:10178000F3CFE9FFF4CFEAFF000EE926010EEA22CB
:10179000050EE926000EEA22EF50145C0FE3DF503D
:1017A000B50DF3CFE9FFF4CFEAFF000EE926010EF5
:1017B000EA22080EE926000EEA22EF6ADF50B50D94
:1017C000F3CFE9FFF4CFEAFF000EE926010EEA228B
:1017D0000A0EE926000EEA22EF6A9D90DF50B50D51
:1017E000F3CFE9FFF4CFEAFF000EE926010EEA226B
:1017F000090EE926000EEA22010EEF6E9D80DF2A17
:1018000041D4050EE15C02E2E16AE552E16EE55287
:10181000E7CFD9FF1200D9CFE6FFE1CFD9FF040E01
:10182000E12689940A0EE66E4BEC32F0E552020E88
:10183000DB6A010EF36E020EDBCFF4FFF350F45CB3
:1018400001E390D0030EDB6A020EDB50B50DF3CF3F
:10185000E9FFF4CFEAFF000EE926010EEA22020EAC
:10186000E926000EEA22EF50F36E030EDBCFF4FF01
:10187000F350F45C74E2020EDB50B50DF3CFE9FFD8
:10188000F4CFEAFF000EE926010EEA220D0EE9264A
:10189000000EEA22E9CF18F0EACF19F0020EDB5071
:1018A000B50DF3CFE9FFF4CFEAFF000EE926010EF4
:1018B000EA220C0EE926000EEA22EF50380D1850ED
:1018C000F324166E1950F420176E0101B551080D5E
:1018D0001650F324146E1750F420156E030EDB50CF
:1018E0000F011424E96E000E1520EA6EEFCFDFFF22
:1018F000030EDBCFE6FF020EDB50B50DF3CFE9FFA1
:10190000F4CFEAFF000EE926010EEA22EE52EF5074
:10191000E552E724E76E010EE7CFDBFF400EF36EE2
:10192000010EDBCFF4FFF350F45C0AE3800E146E7B
:10193000010EDBCFE7FF1450E726010EE7CFDBFFF8
:10194000010EDB50816EDF1C836E84900A0EE66E02
:101950004BEC32F0E5528480030EDB2A75D7020E81
:10196000DB2A67D70101B551060A26E0030A20E009
:10197000010A1AE0070A14E0010A0EE0030A08E06F
:10198000010A02E0B56B1CD082908292829418D03A
:1019900082808292829414D082908282829410D02B
:1019A0008280828282940CD082908292828408D03B
:1019B00082808292828404D082908282828400D04B
:1019C0008984B52B070EB55D56E3B56B020EDB6A55
:1019D000010EF36E020EDBCFF4FFF350F45C4BE22A
:1019E000020EDB50B50DF3CFE9FFF4CFEAFF000E96
:1019F000E926010EEA22090EE926000EEA22EF048A
:101A000037E1020EDB50B50DF3CFE9FFF4CFEAFF6B
:101A1000000EE926010EEA220C0EE926000EEA224B
:101A2000EF5002E1010E01D0000EE66E020EDB5017
:101A3000B50DF3CFE9FFF4CFEAFF000EE926010E62
:101A4000EA220C0EE926000EEA22E552E750EF6E7C
:101A5000020EDB50B50DF3CFE9FFF4CFEAFF000E25
:101A6000E926010EEA22090EE926000EEA22EF6AB3
:101A7000020EDB2AADD7040EE15C02E2E16AE55218
:101A8000E16EE552E7CFD9FF1200D9CFE6FFE1CFF3
:101A9000D9FF400EF36EFE0EDBCFF4FFF350F45C83
:101AA0000AE3800E146EFE0EDBCFE7FF1450E7262C
:101AB000FE0EE7CFDBFF8480FE0EDB50816EFD0E55
:101AC000DB50836E8490640EE66E4BEC32F0E55290
:0A1AD0008480E552E7CFD9FF120031
:061ADA00D9CFE6FFE1CFC9
:101AE000D9FFFE0EDB04E96EEA6AD890E936EA36E1
:101AF000000EE926030EEA22EECF14F0EFCF15F028
:101B000014C0F3FF15C0F4FF00D0E552E7CFD9FFB2
:101B10001200D9CFE6FFE1CFD9FFC9EC29F0D00EF2
:101B2000E66E0DEC2AF0E552E66A0DEC2AF0E5527D
:101B3000C9EC29F0D10EE66E0DEC2AF0E552010E4B
:101B4000E66E54EC2AF0E552E66EFD0EDBCFE9FFBF
:101B5000FE0EDBCFEAFFE552E750EF6E010EE66EB8
:101B600054EC2AF0E552E66E010EE76EFD0EDBCF77
:101B7000E9FFFE0EDBCFEAFFE750E926000EEA227E
:101B8000E552E750EF6E010EE66E54EC2AF0E55296
:101B9000E66E020EE76EFD0EDBCFE9FFFE0EDBCF39
:101BA000EAFFE750E926000EEA22E552E750EF6E21
:101BB000010EE66E54EC2AF0E552E66E030EE76E77
:101BC000FD0EDBCFE9FFFE0EDBCFEAFFE750E92693
:101BD000000EEA22E552E750EF6E010EE66E54EC7D
:101BE0002AF0E552E66E040EE76EFD0EDBCFE9FF4C
:101BF000FE0EDBCFEAFFE750E926000EEA22E552AF
:101C0000E750EF6E010EE66E54EC2AF0E552E66EF8
:101C1000050EE76EFD0EDBCFE9FFFE0EDBCFEAFF20
:101C2000E750E926000EEA22E552E750EF6EE66A39
:101C300054EC2AF0E552E66E060EE76EFD0EDBCFA1
:101C4000E9FFFE0EDBCFEAFFE750E926000EEA22AD
:101C5000E552E750EF6EDFEC29F0E552E7CFD9FF10
:101C60001200D9CFE6FFE1CFD9FFC9EC29F0D00EA1
:101C7000E66E0DEC2AF0E552E66A0DEC2AF0E5522C
:101C8000FD0EDBCFE9FFFE0EDBCFEAFFEF50E66E85
:101C90000DEC2AF0E552010EE76EFD0EDBCFE9FFF9
:101CA000FE0EDBCFEAFFE750E926000EEA22EF50F6
:101CB000E66E0DEC2AF0E552020EE76EFD0EDBCF6C
:101CC000E9FFFE0EDBCFEAFFE750E926000EEA222D
:101CD000EF50E66E0DEC2AF0E552030EE76EFD0EB6
:101CE000DBCFE9FFFE0EDBCFEAFFE750E926000E6F
:101CF000EA22EF50E66E0DEC2AF0E552040EE76E94
:101D0000FD0EDBCFE9FFFE0EDBCFEAFFE750E92651
:101D1000000EEA22EF50E66E0DEC2AF0E552050EB9
:101D2000E76EFD0EDBCFE9FFFE0EDBCFEAFFE750EB
:101D3000E926000EEA22EF50E66E0DEC2AF0E5529D
:101D4000060EE76EFD0EDBCFE9FFFE0EDBCFEAFFEE
:101D5000E750E926000EEA22EF50E66E0DEC2AF07D
:101D6000E552DFEC29F0E552E7CFD9FF1200D9CFD9
:101D7000E6FFE1CFD9FFFD0EDB041DE1FE0EDB50D7
:101D80004009E76EFE0EE7CFDBFFFC0EDB0408E147
:101D9000FE0EDB502009E76EFE0EE7CFDBFF0AD018
:101DA000FC0EDB5007E1FE0EDB50DF0BE76EFE0E94
:101DB000E7CFDBFF0AD0FD0EDB5007E1FE0EDB5064
:101DC000BF0BE76EFE0EE7CFDBFFFE0EDB5000D051
:101DD000E552E7CFD9FF1200D9CFE6FFE1CFD9FF17
:101DE000FD0EDBCFE9FFFE0EDBCFEAFFEE52EF5038
:101DF000E66EFB0EDBCFE9FFFC0EDBCFEAFFEE5217
:101E0000E552E750EF6EFD0EDBCFE9FFFE0EDBCFB4
:101E1000EAFFEF50E66EFB0EDBCFE9FFFC0EDBCFF7
:101E2000EAFFE552E750EF6EFD0EDBCFE9FFFE0E55
:101E3000DBCFEAFF020EE926000EEA22EFCF14F014
:101E40000C0E145C42E3FD0EDBCFE9FFFE0EDBCF90
:101E5000EAFF020EE926000EEA22EF50F40FE66ECA
:101E6000FB0EDBCFE9FFFC0EDBCFEAFF020EE9261B
:101E7000000EEA22E552E750EF6EFB0EDBCFE9FFE2
:101E8000FC0EDBCFEAFF070EE926000EEA22010E68
:101E9000EF6E0C0E146EFD0EDBCFE9FFFE0EDBCFF6
:101EA000EAFF020EE926000EEA22EF50145C0CE174
:101EB000FB0EDBCFE9FFFC0EDBCFEAFF020EE926CB
:101EC000000EEA220C0EEF6E4BD0FD0EDBCFE9FFC9
:101ED000FE0EDBCFEAFF020EE926000EEA22EFCF6C
:101EE00014F00C0E145C3CE2FD0EDBCFE9FFFE0E9D
:101EF000DBCFEAFF020EE926000EEA22EF50E66E83
:101F0000FB0EDBCFE9FFFC0EDBCFEAFF020EE9267A
:101F1000000EEA22E552E750EF6EFB0EDBCFE9FF41
:101F2000FC0EDBCFEAFF070EE926000EEA22EF6A7D
:101F3000FD0EDBCFE9FFFE0EDBCFEAFF020EE92646
:101F4000000EEA22EF500CE1FB0EDBCFE9FFFC0EA6
:101F5000DBCFEAFF020EE926000EEA220C0EEF6E3E
:101F6000E552E7CFD9FF1200D9CFE6FFE1CFD9FF85
:101F7000FD0EDBCFE9FFFE0EDBCFEAFFEE52EF50A6
:101F8000E66EFB0EDBCFE9FFFC0EDBCFEAFFEE5285
:101F9000E552E750EF6EFD0EDBCFE9FFFE0EDBCF23
:101FA000EAFFEF50E66EFB0EDBCFE9FFFC0EDBCF66
:101FB000EAFFE552E750EF6EFD0EDBCFE9FFFE0EC4
:101FC000DBCFEAFF070EE926000EEA22EF0436E136
:101FD000FD0EDBCFE9FFFE0EDBCFEAFF020EE926A6
:101FE000000EEA22EF500C0FE66EFB0EDBCFE9FF8E
:101FF000FC0EDBCFEAFF020EE926000EEA22E552D4
:10200000E750EF6E0C0E146EFD0EDBCFE9FFFE0EF7
:10201000DBCFEAFF020EE926000EEA22EF50145C45
:102020000CE1FB0EDBCFE9FFFC0EDBCFEAFF020E7B
:10203000E926000EEA220C0EEF6E3FD0FD0EDBCF3C
:10204000E9FFFE0EDBCFEAFF070EE926000EEA22CB
:10205000EF5033E1FD0EDBCFE9FFFE0EDBCFEAFFF1
:10206000020EE926000EEA22EF50E66EFB0EDBCFF1
:10207000E9FFFC0EDBCFEAFF020EE926000EEA22A2
:10208000E552E750EF6E0C0E146EFD0EDBCFE9FF4C
:10209000FE0EDBCFEAFF020EE926000EEA22EF5029
:1020A000145C0BE1FB0EDBCFE9FFFC0EDBCFEAFF9C
:1020B000020EE926000EEA22EF6AE552E7CFD9FFC9
:1020C0001200D9CFE6FFE1CFD9FFE652DF6AFD0E5D
:1020D000DB040DE1FE0EDB500C0FDF6E0C0E146EF8
:1020E000FE0EDB50145C02E10C0EDF6E16D0FD0E0E
:1020F000DB500BE1FE0EDB50DF6E0C0E146EFE0E9D
:10210000DB50145C01E1DF6A08D0AA0E146EFD0EEC
:10211000DB50145C02E1AA0EDF6EDF5000D0E55206
:10212000E552E7CFD9FF1200D9CFE6FFE1CFD9FFC3
:10213000C9EC29F0D00EE66E0DEC2AF0E552E66A05
:102140000DEC2AF0E552050EE76EFD0EDBCFE9FF40
:10215000FE0EDBCFEAFFE750E926000EEA22EF5041
:102160000F0B146E040EE76EFD0EDBCFE9FFFE0EC3
:10217000DBCFEAFFE750E926000EEA22EF500F0B13
:10218000100DF3501410E66E0DEC2AF0E552030E1C
:10219000E76EFD0EDBCFE9FFFE0EDBCFEAFFE75077
:1021A000E926000EEA22EF500F0B146E020EE76EC6
:1021B000FD0EDBCFE9FFFE0EDBCFEAFFE750E9269D
:1021C000000EEA22EF500F0B100DF3501410E66EC4
:1021D0000DEC2AF0E552010EE76EFD0EDBCFE9FFB4
:1021E000FE0EDBCFEAFFE750E926000EEA22EF50B1
:1021F0000F0B146EFD0EDBCFE9FFFE0EDBCFEAFF07
:10220000EF500F0B100DF3501410E66E0DEC2AF08A
:10221000E552DFEC29F0E552E7CFD9FF1200D9CF24
:10222000E6FFE1CFD9FFC9EC29F0D00EE66E0DEC48
:102230002AF0E552040EE66E0DEC2AF0E552010E8E
:10224000E76EFD0EDBCFE9FFFE0EDBCFEAFFE750C6
:10225000E926000EEA22EF500F0B146EFD0EDBCFC5
:10226000E9FFFE0EDBCFEAFFEF500F0B100DF3502E
:102270001410E66E0DEC2AF0E552030EE76EFD0E2B
:10228000DBCFE9FFFE0EDBCFEAFFE750E926000EC9
:10229000EA22EF500F0B146E020EE76EFD0EDBCF3D
:1022A000E9FFFE0EDBCFEAFFE750E926000EEA2247
:1022B000EF500F0B100DF3501410E66E0DEC2AF0DA
:1022C000E552050EE76EFD0EDBCFE9FFFE0EDBCF1C
:1022D000EAFFE750E926000EEA22EF500F0B146EDA
:1022E000040EE76EFD0EDBCFE9FFFE0EDBCFEAFF4B
:1022F000E750E926000EEA22EF500F0B100DF350C5
:102300001410E66E0DEC2AF0E552DFEC29F0E552F0
:10231000E7CFD9FF1200D9CFE6FFE1CFD9FFC9EC53
:1023200029F0D00EE66E0DEC2AF0E552030EE66EB3
:102330000DEC2AF0E552FE0EDBCFE6FF0DEC2AF0A5
:10234000E552DFEC29F0E552E7CFD9FF1200D9CFF3
:10235000E6FFE1CFD9FFE652E66AD00EE66EA5ECC5
:102360002AF0E552E552DF6E7F0EDF14DF6EDFCF1D
:10237000E6FFE66AD00EE66EC7EC2AF0E552E552BB
:10238000E552900EE66E070EE66ED00EE66EC7ECD6
:102390002AF0E552E552E552E552E552E7CFD9FF82
:1023A0001200410EE66E030EE66E89EC0DF0E5526A
:1023B000E552030126510301415D04E041C326F3C8
:1023C000010E406F12000301445100D012000301BE
:1023D000465100D012000301455100D01200030104
:1023E000435100D012000301425100D012000301FA
:1023F000415100D0120003014251166E176A435139
:102400003C0DF3501624146EF4501720156E14C0B2
:10241000F3FF15C0F4FF00D0120003014451E96E30
:10242000EA6AD890E936EA36000EE926030EEA2277
:10243000EECF14F0EFCF15F014C0F3FF15C0F4FF8A
:1024400000D0120003014651E96EEA6AD890E936DD
:10245000EA360E0EE926030EEA22EECF14F0EFCF95
:0E24600015F014C0F3FF15C0F4FF00D01200F9
:02246E00D9CFC4
:10247000E6FFE1CFD9FF040EE126020EDB6AFB0E78
:10248000DBCFE9FFFC0EDBCFEAFF050EEE1801E122
:10249000ED5051E1010EE76EFD0EDBCFE9FFFE0EC0
:1024A000DBCFEAFFE750E926000EEA22EF50000EEC
:1024B000F350DE6EDD6A020EE76EFD0EDBCFE9FF44
:1024C000FE0EDBCFEAFFE750E926000EEA22EF50CE
:1024D000DF12DF2A010E01E3DB2AE66EE66EE66A12
:1024E000DECFE6FFDDCFE6FF030EE76EFD0EDBCFAE
:1024F00014F0FE0EDBCF15F0E7501426000E152267
:1025000014C0E6FF15C0E6FF7EEC23F0166E070E42
:10251000E15E1650E76E030EE7CFDBFFDB500AE00B
:10252000030EDBCFE6FFE1EC22F0E552E76E020E90
:10253000E7CFDBFF05D0030EF36E020EF3CFDBFF18
:10254000020EDB50146E040EE15C03E200D0E16A7F
:10255000E552E16E1450E552E7CFD9FF1200D9CF12
:10256000E6FFE1CFD9FF070EE126050EDB6AFB0E81
:10257000DBCFE9FFFC0EDBCFEAFFEECF14F0EFCFAD
:1025800015F0060E145C000E155801E2CCD0010EB9
:10259000E76EFD0EDBCFE9FFFE0EDBCFEAFFE75073
:1025A000E926000EEA22EF50000EF350DE6EDD6ADF
:1025B000020EE76EFD0EDBCFE9FFFE0EDBCFEAFF7A
:1025C000E750E926000EEA22EF50DF12DF2A010E63
:1025D00001E3DB2A030EE76EFD0EDBCFE9FFFE0E03
:1025E000DBCFEAFFE750E926000EEA22EF50000EAB
:1025F000F350E66ED950020FE96EDACFEAFFE552EA
:10260000E750EE6EED6A040EE76EFD0EDBCFE9FFDC
:10261000FE0EDBCFEAFFE750E926000EEA22EF507C
:10262000146E156AD950020FE96EDACFEAFF145022
:10263000EE121550ED12050EE76EFD0EDBCFE9FF31
:10264000FE0EDBCFEAFFE750E926000EEA22040E79
:10265000EFCFDBFF020EDBCF14F0030EDBCF15F064
:10266000010E145C000E155858E3D950020FE96EA4
:10267000DACFEAFF780ED880EE54000EED544DE329
:10268000020E086E096ADBCF0DF0030EDBCF0EF0F1
:1026900055EC31F00650F36E040EDB50F35C3DE177
:1026A000010EE66E020EDBCFE6FF030EDBCFE6FF88
:1026B000DECFE6FFDDCFE6FF060EE76EFD0EDBCFD9
:1026C00014F0FE0EDBCF15F0E7501426000E152295
:1026D00014C0E6FF15C0E6FF7EEC23F0166E070E71
:1026E000E15E1650E76E060EE7CFDBFFDB500BE036
:1026F000060EDBCFE6FFE1EC22F0E552E76E050EB9
:10270000E7CFDBFF09D0FB0EDBCFE9FFFC0EDBCF11
:10271000EAFF050EEE6EED6A05D0030EF36E050EB0
:10272000F3CFDBFF05D0030EF36E050EF3CFDBFF17
:10273000DB50146E070EE15C03E200D0E16AE55263
:10274000E16E1450E552E7CFD9FF1200D9CFE6FF72
:10275000E1CFD9FF080EE126060EDB6AFB0EDBCFC8
:10276000E9FFFC0EDBCFEAFF050EEE1801E1ED50AC
:1027700001E0F9D0010EE76EFD0EDBCFE9FFFE0EA2
:10278000DBCFEAFFE750E926000EEA22EF50000E09
:10279000F350DE6EDD6A020EE76EFD0EDBCFE9FF61
:1027A000FE0EDBCFEAFFE750E926000EEA22EF50EB
:1027B000DF12DF2A010E01E3DB2A030EE76EFD0EB6
:1027C000DBCFE9FFFE0EDBCFEAFFE750E926000E84
:1027D000EA22EF50000EF350E66ED950020FE96E78
:1027E000DACFEAFFE552E750EE6EED6A040EE76ECF
:1027F000FD0EDBCFE9FFFE0EDBCFEAFFE750E92657
:10280000000EEA22EF50E66ED950020FE96EDACFE1
:10281000EAFFE552E750EE6EED6A020EDBCF14F0F0
:10282000030EDBCF15F0010E145C000E155801E20B
:1028300094D0D950020FE96EDACFEAFF7D0ED8802E
:10284000EE54000EED5401E288D0FD0EDBCF08F00F
:10285000FE0EDBCF09F0040E08C0DBFF050E09C039
:10286000DBFFFB0EDBCFE9FFFC0EDBCFEAFFEE6AFE
:10287000ED6A040EDBCFE9FFDB2A050EDBCFEAFFB2
:1028800001E3DB2A030EEF6EFB0EDBCFE9FFFC0E4C
:10289000DBCFEAFFEE2A000EED22020E086E096A77
:1028A000DBCF0DF0030EDBCF0EF055EC31F0065010
:1028B000E66E040EDBCFE9FFDB2A050EDBCFEAFF75
:1028C00001E3DB2AE552E750EF6EFB0EDBCFE9FFB9
:1028D000FC0EDBCFEAFFEE2A000EED22E66A020EC6
:1028E000DBCFE6FF030EDBCFE6FFDECFE6FFDDCF7B
:1028F000E6FF040EDBCFE6FF050EDBCFE6FF7EEC46
:1029000023F0146E070EE15E1450E76E070EE7CF5A
:10291000DBFFDB500BE0070EDBCFE6FFE1EC22F044
:10292000E552E76E060EE7CFDBFF16D0020EDBCFD7
:1029300014F0030EDBCF15F0010ED89014361536C7
:10294000E806FBE1FB0EDBCFE9FFFC0EDBCFEAFF85
:102950001450EE261550ED2205D0030EF36E060E30
:10296000F3CFDBFF05D0030EF36E060EF3CFDBFFD4
:10297000060EDB50146E080EE15C03E200D0E16A43
:10298000E552E16E1450E552E7CFD9FF1200D9CFDE
:10299000E6FFE1CFD9FF0D0EE1260B0EDB6AFB0E41
:1029A000DBCFE9FFFC0EDBCFEAFFEECF14F0EFCF79
:1029B00015F00A0E145C000E155801E2D0D1010E7C
:1029C000E76EFD0EDBCFE9FFFE0EDBCFEAFFE7503F
:1029D000E926000EEA22EF50000EF350DE6EDD6AAB
:1029E000020EE76EFD0EDBCFE9FFFE0EDBCFEAFF46
:1029F000E750E926000EEA22EF50DF12DF2A010E2F
:102A000001E3DB2A030EE76EFD0EDBCFE9FFFE0ECE
:102A1000DBCFEAFFE750E926000EEA22EF50000E76
:102A2000F350E66ED950020FE96EDACFEAFFE552B5
:102A3000E750EE6EED6A040EE76EFD0EDBCFE9FFA8
:102A4000FE0EDBCFEAFFE750E926000EEA22EF5048
:102A5000146E156AD950020FE96EDACFEAFF1450EE
:102A6000EE121550ED12050EE76EFD0EDBCFE9FFFD
:102A7000FE0EDBCFEAFFE750E926000EEA22EF5018
:102A8000000EF350E66ED950040FE96EDACFEAFF7C
:102A9000E552E750EE6EED6A060EE76EFD0EDBCFF7
:102AA000E9FFFE0EDBCFEAFFE750E926000EEA223F
:102AB000EF50146E156AD950040FE96EDACFEAFFB1
:102AC0001450EE121550ED12040EDB2A050E01E330
:102AD000DB2A070EE76EFD0EDBCFE9FFFE0EDBCF34
:102AE000EAFFE750E926000EEA22EF50000EF3500D
:102AF000E66ED950060FE96EDACFEAFFE552E750ED
:102B0000EE6EED6A080EE76EFD0EDBCFE9FFFE0EFE
:102B1000DBCFEAFFE750E926000EEA22EF50146E01
:102B2000156AD950060FE96EDACFEAFF1450EE129B
:102B30001550ED12090EE76EFD0EDBCFE9FFFE0E1C
:102B4000DBCFEAFFE750E926000EEA22080EEFCFBE
:102B5000DBFF020EDBCF14F0030EDBCF15F0010E0E
:102B6000145C000E155801E2F5D0D950020FE96E41
:102B7000DACFEAFF7D0ED880EE54000EED5401E26C
:102B8000E9D0060EDBCF16F0070EDBCF17F0010EF3
:102B9000165C000E175801E2DDD0D950060FE96E21
:102BA000DACFEAFF790ED880EE54000EED5401E240
:102BB000D1D0020E086E096A060EDBCF0DF0070EAB
:102BC000DBCF0EF055EC31F006C018F007C019F05D
:102BD000080EDB501A6E1B6A1A50181802E11B50BF
:102BE000191801E0B7D0010EE66E060EDBCFE6FF46
:102BF000070EDBCFE6FF040EDBCFE6FF050EDBCFD3
:102C0000E6FF0A0EE76EFD0EDBCF14F0FE0EDBCF03
:102C100015F0E7501426000E152214C0E6FF15C06B
:102C2000E6FF7EEC23F0166E070EE15E1650E76EAF
:102C30000C0EE7CFDBFFDB5001E07ED0FD0EDBCFDB
:102C400008F0FE0EDBCF09F0090E08C0DBFF0A0E0C
:102C500009C0DBFFFB0EDBCFE9FFFC0EDBCFEAFF99
:102C6000EE6AED6A090EDBCFE9FFDB2A0A0EDBCF45
:102C7000EAFF01E3DB2A170EEF6EFB0EDBCFE9FF65
:102C8000FC0EDBCFEAFFEE2A000EED22020E086EEC
:102C9000096ADBCF0DF0030EDBCF0EF055EC31F0FF
:102CA0000650E66E090EDBCFE9FFDB2A0A0EDBCF0A
:102CB000EAFF01E3DB2AE552E750EF6EFB0EDBCFC4
:102CC000E9FFFC0EDBCFEAFFEE2A000EED22E66AFA
:102CD000020EDBCFE6FF030EDBCFE6FFDECFE6FF23
:102CE000DDCFE6FF090EDBCFE6FF0A0EDBCFE6FF06
:102CF0007EEC23F0146E070EE15E1450E76E0C0EAE
:102D0000E7CFDBFFDB5018E1020E086E096ADBCF6C
:102D10000DF0030EDBCF0EF055EC31F006C014F0D1
:102D200007C015F0FB0EDBCFE9FFFC0EDBCFEAFF9F
:102D30001450EE261550ED220C0EDB500AE00C0E5E
:102D4000DBCFE6FFE1EC22F0E552E76E0B0EE7CFBA
:102D5000DBFF05D0030EF36E0B0EF3CFDBFF0B0E84
:102D6000DB50146E0D0EE15C03E200D0E16AE55227
:0C2D7000E16E1450E552E7CFD9FF1200CD
:042D7C00D9CFE6FFC6
:102D8000E1CFD9FF090EE126070EDB6AFB0EDBCF90
:102D9000E9FFFC0EDBCFEAFF050EEE1801E1ED5076
:102DA00001E011D1010EE76EFD0EDBCFE9FFFE0E53
:102DB000DBCFEAFFE750E926000EEA22EF50000ED3
:102DC000F350DE6EDD6A020EE76EFD0EDBCFE9FF2B
:102DD000FE0EDBCFEAFFE750E926000EEA22EF50B5
:102DE000DF12DF2A010E01E3DB2A030EE76EFD0E80
:102DF000DBCFE9FFFE0EDBCFEAFFE750E926000E4E
:102E0000EA22EF50000EF350E66ED950020FE96E41
:102E1000DACFEAFFE552E750EE6EED6A040EE76E98
:102E2000FD0EDBCFE9FFFE0EDBCFEAFFE750E92620
:102E3000000EEA22EF50146E156AD950020FE96EA7
:102E4000DACFEAFF1450EE121550ED12020EDBCF6E
:102E500014F0030EDBCF15F0010E145C000E1558B4
:102E600001E2ABD0020EDBCF16F0030EDBCF17F082
:102E7000D00E165C070E175801E39FD0FD0EDBCF76
:102E800008F0FE0EDBCF09F0050E08C0DBFF060ED2
:102E900009C0DBFFFB0EDBCFE9FFFC0EDBCFEAFF57
:102EA000EE6AED6A050EDBCFE9FFDB2A060EDBCF0B
:102EB000EAFF01E3DB2A010EEF6EFB0EDBCFE9FF39
:102EC000FC0EDBCFEAFFEE2A000EED22020EDB50F5
:102ED000070B15E0020EDBCF14F0030EDBCF15F06D
:102EE0000F0B05E0D89015321432E806FBE1010E15
:102EF0001426000E1522040E14C0DBFF12D0080E9B
:102F0000146E156A020EDBCF08F0030EDBCF09F05A
:102F100014C00DF015C00EF0FAEC31F0040E08C02C
:102F2000DBFF050EDBCFE9FFDB2A060EDBCFEAFF76
:102F300001E3DB2A040EDBCFEFFFFB0EDBCFE9FF63
:102F4000FC0EDBCFEAFFEE2A000EED22E66A020E4F
:102F5000DBCFE6FF030EDBCFE6FFDECFE6FFDDCF04
:102F6000E6FF050EDBCFE6FF060EDBCFE6FF9FECAC
:102F700024F0146E070EE15E1450E76E080EE7CFE2
:102F8000DBFFDB500BE0080EDBCFE6FFE1EC22F0CD
:102F9000E552E76E070EE7CFDBFF0ED0040EDB50E5
:102FA000146E156AFB0EDBCFE9FFFC0EDBCFEAFFE8
:102FB0001450EE261550ED2205D0030EF36E070EC9
:102FC000F3CFDBFF05D0030EF36E070EF3CFDBFF6D
:102FD000070EDB50146E090EE15C03E200D0E16ADB
:102FE000E552E16E1450E552E7CFD9FF1200D9CF78
:102FF000E6FFE1CFD9FF060EE126040EDB6AFB0EE9
:10300000DBCFE9FFFC0EDBCFEAFF050EEE1801E196
:10301000ED5001E091D0010EE76EFD0EDBCFE9FF30
:10302000FE0EDBCFEAFFE750E926000EEA22EF5062
:10303000000EF350DE6EDD6A020EE76EFD0EDBCF92
:10304000E9FFFE0EDBCFEAFFE750E926000EEA2299
:10305000EF50DF12DF2A010E01E3DB2A040EE76ED8
:10306000FD0EDBCFE9FFFE0EDBCFEAFFE750E926DE
:10307000000EEA22EF505AE1030EE76EFD0EDBCFA1
:10308000E9FFFE0EDBCFEAFFE750E926000EEA2259
:10309000EF50FF080EE0030EE76EFD0EDBCFE9FFF9
:1030A000FE0EDBCFEAFFE750E926000EEA22EF50E2
:1030B0003DE1030EDB6AE76EFD0EDBCFE9FFFE0E9E
:1030C000DBCFEAFFE750E926000EEA22EF50FF08C7
:1030D00006E1010EF36E020EF3CFDBFF02D0020E0B
:1030E000DB6A010EE66EE66EE66ADECFE6FFDDCF56
:1030F000E6FFD950020FE66E000EDA20E66E9FEC76
:1031000024F0146E070EE15E1450E76E050EE7CF53
:10311000DBFFDB500AE0050EDBCFE6FFE1EC22F03F
:10312000E552E76E040EE7CFDBFF05D0030EF36E2A
:10313000040EF3CFDBFF05D0030EF36E040EF3CFC6
:10314000DBFF040EDB50146E060EE15C03E200D0E0
:10315000E16AE552E16E1450E552E7CFD9FF120063
:10316000D9CFE6FFE1CFD9FF080EE126060EDB6AD4
:10317000FB0EDBCFE9FFFC0EDBCFEAFF050ED880AC
:10318000EE54000EED5401E3EED0010EE76EFD0E9D
:10319000DBCFE9FFFE0EDBCFEAFFE750E926000EAA
:1031A000EA22EF50000EF350DE6EDD6A020EE76E8B
:1031B000FD0EDBCFE9FFFE0EDBCFEAFFE750E9268D
:1031C000000EEA22EF50DF12DF2A010E01E3DB2AB4
:1031D000030EE76EFD0EDBCFE9FFFE0EDBCFEAFF4D
:1031E000E750E926000EEA22EF50000EF350E66E9B
:1031F000D950020FE96EDACFEAFFE552E750EE6EE2
:10320000ED6A040EE76EFD0EDBCFE9FFFE0EDBCFAD
:10321000EAFFE750E926000EEA22EF50146E156A25
:10322000D950020FE96EDACFEAFF1450EE121550B2
:10323000ED12050EE76EFD0EDBCFE9FFFE0EDBCFD4
:10324000EAFFE750E926000EEA22040EEFCFDBFF8B
:10325000020EDB50070B15E0020EDBCF14F0030E5D
:10326000DBCF15F00F0B05E0D89015321432E806CD
:10327000FBE1010E1426000E1522050E14C0DBFF23
:1032800012D0080E146E156A020EDBCF08F0030E82
:10329000DBCF09F014C00DF015C00EF0FAEC31F0E0
:1032A000050E08C0DBFF020EDBCF14F0030EDBCFF0
:1032B00015F0010E145C000E15584FE3D950020FA3
:1032C000E96EDACFEAFFB00ED880EE54070EED5467
:1032D00044E3040EDB50F36E050EDB50F35C3DE17E
:1032E000010EE66E020EDBCFE6FF030EDBCFE6FF3C
:1032F000DECFE6FFDDCFE6FF060EE76EFD0EDBCF8D
:1033000014F0FE0EDBCF15F0E7501426000E152248
:1033100014C0E6FF15C0E6FF9FEC24F0166E070E02
:10332000E15E1650E76E070EE7CFDBFFDB500BE0E8
:10333000070EDBCFE6FFE1EC22F0E552E76E060E6A
:10334000E7CFDBFF09D0FB0EDBCFE9FFFC0EDBCFC5
:10335000EAFF050EEE6EED6A05D0030EF36E060E63
:10336000F3CFDBFF05D0030EF36E060EF3CFDBFFCA
:10337000060EDB50146E080EE15C03E200D0E16A39
:0E338000E552E16E1450E552E7CFD9FF12007E
:02338E00D9CF95
:10339000E6FFE1CFD9FFE652DF6AFD0EDB5013E016
:1033A000010EF36EFD0EDBCFF4FFF350F45C0BE384
:1033B000FD0EDB50146E156A153404E21450F70844
:1033C000000E155403E2020EDF6E5DD0FD0EDBCF62
:1033D000B6F1FE0EDB5001E045D00101D40EBB6F0B
:1033E0003A0EBC6FBD6BF00EBE6F3A0EBF6FC06B76
:1033F000E60EB86F3B0EB96FBA6B060EC16F3B0E8F
:10340000C26FC36BC46BC56BC66BF60EC76F3C0E49
:10341000C86FC96BC40ECA6F3D0ECB6FCC6B520E1A
:10342000CD6F3E0ECE6FCF6BF70EDBCFE6FFD950E0
:10343000F80FE96EFF0EDA20EA6EEECFE6FFEECF70
:10344000E6FFEECFE6FFEFCFE6FFFC0EDBCFE6FFB9
:10345000B6C1E6FFCAEC1CF0146E070EE15E145014
:10346000DF6E02D0020EDF6EDF500DE17FEC30F038
:10347000000903E1030EDF6E06D0FE0EDBCFB7F1CD
:103480000201010EBF6FDF5000D0E552E552E7CFD9
:10349000D9FF1200D9CFE6FFE1CFD9FF030EE12615
:1034A000146AFE0EDB50145C01E3ECD0FE0EDB5020
:1034B0007F0801E2E7D0F29EFB0EDBCF14F0FC0E9A
:1034C000DBCF15F0FD0EDBCF16F0145015101610E3
:1034D00001E18BD0DE6ADD6ADECF14F0DDCF15F0BE
:1034E000D890155004E6100E145C000E15586CE2CE
:1034F000DECFE9FFDDCFEAFFD890E936EA36D89093
:10350000E936EA36C00EE926020EEA22EECF14F0C2
:10351000EECF15F0EECF16F0EFCF17F000011550FB
:103520001610171022E0FB0EDBCF18F0FC0EDBCFDD
:1035300019F0FD0EDBCF1AF0DECFE9FFDDCFEAFF99
:10354000D890E936EA36D890E936EA36C00EE92650
:10355000020EEA22EE52EE50181806E1EE5019184B
:1035600003E1EE501A1800E12AE1DECFE9FFDDCFDA
:10357000EAFFD890E936EA36D890E936EA36C00E46
:10358000E926020EEA22FE0EDBCFEFFFDECFE9FFD7
:10359000DDCFEAFFD890E936EA36D890E936EA3648
:1035A000C00EE926020EEA22EE52FB0EDBCFEEFF42
:1035B000FC0EDBCFEEFFFD0EDBCFEEFF05D0DF2AEA
:1035C000010E01E3DB2A88D7D9CFE9FFDACFEAFF82
:1035D000100EEE1801E1ED5002E0000E01D0040ED5
:1035E000E76E020EE7CFDBFF4BD0DE6ADD6ADECF8F
:1035F00014F0DDCF15F0D890155004E6100E145CD1
:10360000000E15583BE2DECFE9FFDDCFEAFFD89090
:10361000E936EA36D890E936EA36C00EE926020ED7
:10362000EA22EFCF14F0FE0EDB50145C22E1DECF75
:10363000E9FFDDCFEAFFD890E936EA36D890E936DF
:10364000EA36C00EE926020EEA22EF6ADECFE9FF73
:10365000DDCFEAFFD890E936EA36D890E936EA3687
:10366000C00EE926020EEA22EE52EE6AEE6AEE6A19
:1036700005D0DF2A010E01E3DB2AB9D7020EDB6A8F
:10368000F28E04D0020EF36EF3CFDBFFDB50146E2C
:10369000030EE15C03E200D0E16AE552E16E1450F2
:1036A000E552E7CFD9FF1200D9CFE6FFE1CFD9FF2E
:1036B000E652DF6A0201BF050FE10101C451C511E5
:1036C000C61109E007D0C6C1FBFFC5C1FAFF010161
:1036D000C451F96EF8DF02D0060EDF6EDF5000D065
:1036E000E552E552E7CFD9FF1200D9CFE6FFE1CF8F
:1036F000D9FFE652DF6A0201BF050CE107D0BDC168
:10370000FBFFBCC1FAFF0101BB51F96EF8DF0201FA
:10371000BF6B02D0060EDF6EDF5000D0E552E552DF
:10372000E7CFD9FF1200D9CFE6FFE1CFD9FFE652AC
:103730000201BF510EE107D0C0C1FBFFBFC1FAFFBC
:103740000101BE51F96EF8DF0201010EBF6FDF6AA1
:1037500006D0BF0502E1DF6A02D0060EDF6EDF5041
:1037600000D0E552E552E7CFD9FF1200D9CFE6FFEE
:10377000E1CFD9FF040EE126020EDB6A0201BF5140
:1037800002E0060EFBD0D950030FE66E000EDA20E1
:10379000E66E94EC30F0E552E552010801E0ECD021
:1037A000030EDB50030A01E1E6D0010A31E0030A0F
:1037B00004E0010A01E0E0D0DFD0DA0EE66E010E8F
:1037C000E66ED60EE66E010EE66ED80EE66E010EC1
:1037D000E66E07D0C3C1FBFFC2C1FAFF0101C151B0
:1037E000F96EF8DF146E060EE15E1450E76E020EFD
:1037F000E7CFDBFFDB500BE10101B651D85D02E002
:10380000D85105E1020EE66E84EC30F0E552B4D0FA
:10381000D6C1E9FFD7C1EAFFEFCFD9F10101010E0F
:10382000DC6FDE6ADD6ADECF14F0DDCF15F0D890F4
:10383000155004E6100E145C000E155857E2DECF4A
:10384000E9FFDDCFEAFFD890E936EA36D890E936CD
:10385000EA36C00EE926020EEA22EF5002E146D017
:1038600040D0DECFE9FFDDCFEAFFD890E936EA3677
:10387000D890E936EA36C00EE926020EEA22EF5069
:103880000101D95D2EE1DECFE9FFDDCFEAFFD8905F
:10389000E936EA36D890E936EA36C00EE926020E55
:1038A000EA22EECF14F0EECF15F0EECF16F0EFCF08
:1038B00017F0DA0EE66E010EE66ED6C1E6FFD7C14E
:1038C000E6FF07D017C0FBFF16C0FAFF0001155036
:1038D000F96EF8DFE552E552E552E5520101DC6F81
:1038E00005D0DF2A010E01E3DB2A9DD70101D85163
:1038F00041E0DC5124E0DA6BDB6B800ED911E66E1F
:10390000DAC114F0DBC115F0DA2B000EDB23D6513F
:103910001424E96ED7511520EA6EE552E750EF6E98
:10392000DAC114F0DBC115F0DA2B000EDB23D6511F
:103930001424E96ED7511520EA6EDCC1EFFFDAC11D
:10394000E6FFDBC1E6FFD6C1E6FFD7C1E6FFB6C1A1
:10395000E6FF07D0BAC1FBFFB9C1FAFF0101B851B8
:10396000F96EF8DF146E050EE15E1450E76E020E7C
:10397000E7CFDBFF01D000D0000E00D0146E040EA4
:10398000E15C02E2E16AE552E16E1450E552E7CFF4
:04399000D9FF120049
:0C399400D9CFE6FFE1CFD9FF050EE126F8
:1039A000DF6A9D9AF80EDBCFE6FF080EE66ED9506F
:1039B000F90FE96EFF0EDA20EA6EEECFE6FFEECFEA
:1039C000E6FFEECFE6FFEFCFE6FFFD0EDBCFE6FF33
:1039D000CEEC24F0146E070EE15E1450010803E0F3
:1039E000030EDF6E68D0D950F90FE96EFF0EDA20B2
:1039F000EA6ED880020EEE54000EEE54000EEE5425
:103A0000000EEE540FE2A30EF36E010EF3CFDBFFB8
:103A1000BB0EF36E020EF3CFDBFF030EDB6A040E68
:103A2000DB6A3BD0D950F90FE96EFF0EDA20EA6E5F
:103A3000010EEE1805E1EE5003E1EE5001E1EE500B
:103A40000FE1CF0EF36E010EF3CFDBFF710EF36EBD
:103A5000020EF3CFDBFF030EDB6A040EDB6A1DD020
:103A6000D950F90FE96EFF0EDA20EA6E020EEE1859
:103A700005E1EE5003E1EE5001E1EE500EE1E70EFC
:103A8000F36E010EF3CFDBFFB80EF36E020EF3CF31
:103A9000DBFF030EDB6A040EDB6A010EDBCFE6FF01
:103AA000020EDBCFE6FF1DEC2FF0E552E5520108D8
:103AB00002E0030EDF6E9D8ADF50146E050EE15C9E
:103AC00003E200D0E16AE552E16E1450E552E7CF1F
:103AD000D9FF12009D9A0301686BE66A010EE66E3B
:103AE000B3EC24F0E552E55234EC2FF09D8A12003D
:103AF0009D9AE66AE66AB3EC24F0E552E5523FECA3
:103B00002FF09D8A1200D9CFE6FFE1CFD9FF040E36
:103B1000E126DF6A010EDB6A9D9A0201640E685D90
:103B2000000E695902E3050E52D0040E685D000EC6
:103B3000695946E368C2E6FF69C2E6FF000EE66E19
:103B4000020EE66E9FEC2EF0E552E552E552E5528C
:103B5000020EF3CFDBFF030EF4CFDBFFD950020FD1
:103B6000E96EDACFEAFFEE50ED1029E1FD0EDBCF72
:103B7000E9FFFE0EDBCFEAFF00C2EFFF68C214F0E0
:103B800069C215F01406000E155A020E145E000EDE
:103B9000155AF90EDBCFE9FFFA0EDBCFEAFF14C0AE
:103BA000EEFF15C0EDFFFB0EDBCFE9FFFC0EDBCF18
:103BB000EAFF010EEE6E020EED6E010EDF6E03D017
:103BC000DE52050EDD6E9D8A010EDB5000D0146EB4
:103BD000040EE15C02E2E16AE552E16E1450E55246
:103BE000E7CFD9FF1200D9CFE6FFE1CFD9FF030E0F
:103BF000E126DF6A9D9A030168056CE1FC0EDBCFCC
:103C000064F2FD0EDBCF65F20201010E645F000E6F
:103C1000655B010E666F676BFE0EDB5064C2E9FFE9
:103C200065C2EAFFEF6EFA0EDBCF08F0FB0EDBCFCA
:103C300009F0085066270950672366C2E6FF67C28D
:103C4000E6FF64C2E6FF65C2E6FF9FEC2EF0E55298
:103C5000E552E552E552DE52F3CFDEFFF4CFDDFF51
:103C6000DD52FF0EE76E010EDBCF14F0020EDBCF4C
:103C700015F0E7501416156A020166C2E9FF67C223
:103C8000EAFF662B000E6723000EE926020EEA22E9
:103C900014C0EFFF010EDBCF14F0020EDBCF15F0E6
:103CA00015C014F0156A66C2E9FF67C2EAFF662B09
:103CB000000E6723000EE926020EEA2214C0EFFF71
:103CC0000301010E676FE66EE66AB3EC24F0E5527D
:103CD000E55202D0050EDF6E9D8ADF50146E030E92
:103CE000E15C03E200D0E16AE552E16E1450E55276
:103CF000E7CFD9FF1200D9CFE6FFE1CFD9FF020EFF
:103D0000E126DF6A0301675102E0000E4FD0D9506F
:103D1000010FE66E000EDA20E66E4EEC25F0E5525D
:103D2000E55203016851020A24E0030A0BE0020A8B
:103D300006E0030A01E038D034EC2FF035D034EC43
:103D40002FF032D00201686B696B68C2E9FF69C26B
:103D5000EAFF682B000E6923000EE926020EEA2214
:103D6000010EDBCFEFFF0301020E686F34EC2FF082
:103D70001BD00201640E685D000E69590FE268C233
:103D8000E9FF69C2EAFF682B000E6923000EE926ED
:103D9000020EEA22010EDBCFEFFF03D00301030E78
:103DA000686F34EC2FF000D0DF5000D0146E020E9C
:103DB000E15C02E2E16AE552E16E1450E552E7CFC0
:103DC000D9FF1200D9CFE6FFE1CFD9FFE652DF6A73
:103DD0000301680502E0000E37D06751010A0BE0CD
:103DE000010A01E02FD0E66A010EE66EB3EC24F082
:103DF000E552E55227D00201000ED8806655000E2C
:103E0000675510E264C2E9FF65C2EAFFEF50E66E53
:103E100033EC25F0E5520201642B000E65236607A2
:103E2000675BE9D7030EE66E84EC30F0E552DF6E97
:103E3000E66A010EE66EB3EC24F0E552E5520301AA
:103E4000676B00D0DF5000D0E552E552E7CFD9FFD5
:103E50001200D9CFE6FFE1CFD9FFE652DF6A0301B6
:103E60006851030A12E0010A09E0020A01E00ED0DB
:103E7000E66A84EC30F0E552DF6E08D0010EE66EA3
:103E800084EC30F0E552DF6E01D000D03FEC2FF033
:103E90000301010E686FDF5000D0E552E552E7CF15
:043EA000D9FF120034
:0C3EA40000000000000000002020202092
:103EB0000000200050505000000000005050F8500A
:103EC000F85050002078A07028F02000C0C81020C2
:103ED000409818006090A040A890680060204000C2
:103EE0000000000010204040402010004020101032
:103EF000102040000020A870A8200000002020F81A
:103F00002020000000000000301020000000007C95
:103F100000000000000000000060600000081020A9
:103F200040800000708898A8C88870002060A02099
:103F30002020F800708808102040F800F8102010A9
:103F40000888700010305090F8101000F880F008C9
:103F50000808F000304080F088887000F8081020D1
:103F60004040400070888870888870007088887829
:103F70000810600000606000606000000060600089
:103F80006020400008102040201008000000F800C9
:103F9000F800000040201008102040007088081031
:103FA0002000200070880868A8A87000205088F8B9
:103FB00088888800F08888F08888F0007088808081
:103FC00080887000E09088888890E000F88080F019
:103FD0008080F800F88080F080808000708880B851
:103FE00088887800888888F888888800F8202020C9
:103FF0002020F80038101010109060008890A0C0A9
:10400000A0908800808080808080F80088D8A8A850
:10401000888888008888C8A89888880070888888D8
:1040200088887000F08888F0808080007088888898
:10403000A8906800F08888F0A09088007880807050
:104040000808F000F8202020202020008888888898
:10405000888870008888888888502000888888A888
:10406000A8A85000888850205088880088888850E8
:1040700020202000F80810204080F80070404040C8
:10408000404070008850F820F82020007010101078
:104090001010700020508800000000000000000098
:1040A0000000F80040201000000000000000700830
:1040B000788878008080B0C88888F0000000708020
:1040C00080887000080868988888780000007088E8
:1040D000F8807000304840E0404040000078888818
:1040E000780870008080B0C8888888002000602030
:1040F0002020700008000808084830004040485060
:104100006050480060202020202070000000D0A8CF
:10411000A88888000000B0C88888880000007088DF
:10412000888870000000F088F080800000006898A7
:10413000780808000000B0C880808000000070800F
:104140007008F0004040E04040483000000088889F
:1041500088986800000088888850200000008888BF
:10416000A8A85000000088502050880000008888CF
:10417000780870000000F8102040F800102020405F
:1041800020201000202020202020200020101008B7
:1041900010102000002010F810200000002040F82F
:1041A00040200000304848300000000030484830CF
:1041B00000000000081838783818080004040404C7
:1041C00004040400FFFFFFFFFFFFFF0000040400E2
:1041D00004040000008080008080000080808080D7
:1041E00080808000C0C0C0C0C0C0C000E0E0E0E08F
:1041F000E0E0E000F0F0F0F0F0F0F000F8F8F8F8AF
:10420000F8F8F800FCFCFCFCFCFCFC00FDFDFDFDEE
:10421000FDFDFD002070F8707070700030488484DF
:104220008448300084483030304884000070487042
:1042300040400000003040701060000000404040EE
:104240004078000000008005C004E003F002F8019F
:0C42500000000804180338027801F80090
:04425C00D9CFE6FFD1
:10426000E1CFD9FF0A0EE126F90EDB50E66ED950F8
:10427000080FE96EDACFEAFFE552E750EE6EED6A1D
:10428000FA0EDB50080801E2F1D0080E146E156A30
:10429000FB0EDBCF08F0FC0EDBCF09F014C00DF0F5
:1042A00015C00EF0FAEC31F0040E08C0DBFF050E6D
:1042B00009C0DBFFFB0EDBCF16F0FC0EDBCF17F0E7
:1042C000080E086E096A040EDBCF0DF0050EDBCF79
:1042D0000EF055EC31F00650165C146E075017586E
:1042E000156E060E14C0DBFF070E15C0DBFF060EB1
:1042F000DBCF14F0D950080FE96EDACFEAFF145083
:10430000E85005E0D890EE36ED36E806FBE1FA0E0F
:10431000DB50166E010E165204E0E846FE0B160640
:10432000FCE1FF0F146E156A14BE1568020E14C06E
:10433000DBFF030E15C0DBFFFB0EDBCF16F0FC0E20
:10434000DBCF17F0080E086E096A040EDBCF0DF004
:10435000050EDBCF0EF055EC31F00650165C146EF6
:1043600007501758156ED950020FE96EDACFEAFFE1
:104370001450E85005E0D890EE36ED36E806FBE143
:10438000040EDBCF14F0050EDBCF15F0FD0EDB5075
:104390001424E96EFE0EDB501520EA6EEF50DE6E3F
:1043A000DD6A010EE76E040EDBCF14F0050EDBCFE5
:1043B00015F0E7501426000E1522FD0EDB501424D4
:1043C000E96EFE0EDB501520EA6EEF50000EF35042
:1043D000DF12020EDB1C186E030EDB1C196EDE50A2
:1043E0001814166EDD501914176E080EDB501610D7
:1043F000146E090EDB501710156E14C0DEFF15C0C9
:10440000DDFFDECF16F0DDCF17F0FF0E1616000E23
:104410001716040EDBCF14F0050EDBCF15F0FD0EE2
:10442000DB501424E96EFE0EDB501520EA6E16C038
:10443000EFFFDECF16F0DDCF17F017C016F0176ACA
:10444000010EE76E040EDBCF14F0050EDBCF15F086
:10445000E7501426000E1522FD0EDB501424E96EE1
:10446000FE0EDB501520EA6E16C0EFFF0A0EE15C6F
:1044700002E2E16AE552E16EE552E7CFD9FF1200B0
:10448000D9CFE6FFE1CFD9FF080EE126146E156AF9
:10449000FB0EDBCF08F0FC0EDBCF09F014C00DF0F3
:1044A00015C00EF0FAEC31F0040E08C0DBFF050E6B
:1044B00009C0DBFFFB0EDBCF16F0FC0EDBCF17F0E5
:1044C000080E086E096A040EDBCF0DF0050EDBCF77
:1044D0000EF055EC31F00650165C146E075017586C
:1044E000156E060E14C0DBFF070E15C0DBFFFA0EBB
:1044F000DB50166E010E165204E0E846FE0B16065F
:10450000FCE1FF0F146E156A14BE1568020E14C08C
:10451000DBFF030E15C0DBFF040EDBCF14F0050E2E
:10452000DBCF15F0FD0EDB501424E96EFE0EDB50E0
:104530001520EA6EEF50DE6EDD6A010EE76E040EA6
:10454000DBCF14F0050EDBCF15F0E7501426000E7C
:104550001522FD0EDB501424E96EFE0EDB501520F3
:10456000EA6EEF50000EF350DF12060EDBCF14F0B0
:10457000D9CFE9FFDACFEAFF14500F0B06E0EC5277
:10458000D890ED32EF32E806FAE1020EDBCF14F0FC
:10459000030EDBCF15F0D9CFE9FFDACFEAFF1450D5
:1045A000EE161550ED16DF50146E080EE15C03E2B6
:1045B00000D0E16AE552E16E1450E552E7CFD9FF31
:1045C0001200D9CFE6FFE1CFD9FFE652FE0EDB5055
:1045D000070A0CE0060A07E0010A03E0040EDF6E9A
:1045E00008D0DF6A06D0020EDF6E03D0060EDF6E43
:1045F00000D0DF5000D0E552E552E7CFD9FF1200DE
:10460000D9CFE6FFE1CFD9FF060EE126020EF36E09
:10461000010EF3CFDBFF020EDB6A010EF36E030E19
:10462000F3CFDBFF040EDB6AE66A010EDBCF14F08A
:10463000020EDBCF15F0166A176A14C0E6FF15C02C
:10464000E6FF16C0E6FF17C0E6FFE66A030EDBCF03
:10465000E6FFE66AC7EC19F0186E080EE15E185026
:10466000E76E050EE7CFDBFF75EC1BF0E76E050E7E
:10467000E7CFDBFFDF6A210EDF5C13E2DF50EA6A7F
:10468000980FE96E020EEA22EF50E66EDF50EA6AFA
:104690006E0FE96E020EEA22E552E750EF6EDF2A56
:1046A000EAD7060EE15C02E2E16AE552E16EE5520C
:1046B000E7CFD9FF1200E66A91EC26F0E552F3CF7E
:1046C00014F0F4CF15F0010E141801E1155000E1BB
:1046D0001200D9CFE6FFE1CFD9FF030EE126DF6A52
:1046E000DF50146E030EE15C03E200D0E16AE55294
:1046F000E16E1450E552E7CFD9FF1200D9CFE6FFA3
:10470000E1CFD9FF0E0EE126FB0EDB50DF6E020E6D
:10471000086E096AF90EDBCF0DF0FA0EDBCF0EF052
:1047200055EC31F0010E06C0DBFF020EDB6A030E12
:10473000DB6AD950040FE96EDACFEAFF490EEE6E5C
:10474000440EEE6E450EEE6E4F0EEE6E4E0EEE6E9B
:10475000490EEE6E430EEE6E530EEE6E200EEE6EB2
:10476000EE6AF80EDB5024E0010A01E056D0010E9B
:10477000DB5000081CE2FD0EDBCFE9FFDB2AFE0E5A
:10478000DBCFEAFF01E3DB2AEF50E66E030EDBCF5F
:10479000F3FFDB2AF350EA6A6E0FE96E020EEA229B
:1047A000E552E750EF6EDF2A010EDB06E0D735D089
:1047B000010EDB50000830E2FD0EDBCFE9FFDB2A03
:1047C000FE0EDBCFEAFF01E3DB2A410EEF6EFD0EAA
:1047D000DBCFE9FFDB2AFE0EDBCFEAFF01E3DB2ABA
:1047E000420EEF6EFD0EDBCFE9FFDB2AFE0EDBCFC4
:1047F000EAFF01E3DB2A430EEF6EFD0EDBCFE9FF9C
:10480000DB2AFE0EDBCFEAFF01E3DB2A440EEF6E6C
:10481000DF2A010EDB06CCD700D0E66A1AEC07F0DF
:10482000E5520201926B080E936F966F6E0E946FB5
:10483000020E956F976B920EE66E020EE66EE66ABA
:10484000DEEC01F0E552E552E552010EE66E1AEC9F
:1048500007F0E5520201080E926F936F966F760E85
:10486000946F020E956F976B920EE66E020EE66ED7
:10487000010EE66EDEEC01F0E552E552E552020E65
:10488000E66E1AEC07F0E5520201100E926F080E68
:10489000936F966F7E0E946F020E956F976B920ECC
:1048A000E66E020EE66E020EE66EDEEC01F0E552FA
:1048B000E552E552030EE66E1AEC07F0E5520201EE
:1048C000180E926F080E936F966F860E946F020EFD
:1048D000956F976B920EE66E020EE66E030EE66E15
:1048E000DEEC01F0E552E552E552040EE66E1AECFC
:1048F00007F0E5520201200E926F080E936F966F3B
:104900008E0E946F020E956F976B920EE66E020EEE
:10491000E66E040EE66EDEEC01F0E552E552E5527D
:10492000020EDB50146E0E0EE15C03E200D0E16A71
:10493000E552E16E1450E552E7CFD9FF1200D9CF0E
:10494000E6FFE1CFD9FF010E00D0E552E7CFD9FF56
:104950001200D9CFE6FFE1CFD9FF010E00D0E5521A
:06496000E7CFD9FF1200B1
:0A496600D9CFE6FFE1CFD9FFFE0E26
:10497000DB5002E1AB9801D0AB88FD0EDB5001E1CA
:1049800009D007D0CCC1FBFFCBC1FAFF0101CA514E
:10499000F96EF8DFE552E7CFD9FF1200D9CFE6FF75
:1049A000E1CFD9FF020EE1263C0EDF6EFA0EDBCF1F
:1049B00007F0FB0EDBCF08F0FC0EDBCF09F0FD0E9D
:1049C000DBCF0AF0040E071805E1085003E1095097
:1049D00001E10A502AE0030E071805E1085003E13F
:1049E000095001E10A501DE0020E071805E10850C8
:1049F00003E1095001E10A5010E0010E071805E13A
:104A0000085003E1095001E10A5004E0DE52810E32
:104A1000DD6E0FD0010EDB680CD0DE52810EDD6E34
:104A200008D0DE522A0EDD6E04D0DE52150EDD6E89
:104A300000D0010EDBCFE6FFE66ADFCFE6FF3AECFF
:104A400030F0E552E552E5529F8A010E146E020ED7
:104A5000E15C03E200D0E16AE552E16E1450E552F8
:104A6000E7CFD9FF1200D9CFE6FFE1CFD9FF82848B
:104A7000640EE66E4BEC32F0E552FE0EDB50AD6E8E
:104A8000ACA2FED78294640EE66E4BEC32F0E55297
:104A9000010E00D0E552E7CFD9FF1200D9CFE6FFD3
:104AA000E1CFD9FFE65217EC31F0DF6EFD0EDBCF20
:104AB000E9FFFE0EDBCFEAFFDFCFEFFF9E9A010E8C
:104AC00000D0E552E552E7CFD9FF1200DACFE4FF7C
:104AD000E2CFDAFFE9CFE4FFEACFE4FFF6CFE4FF6D
:104AE000F7CFE4FFF5CFE4FFF3CFE4FFF4CFE4FF2B
:104AF000FACFE4FFFBCFE4FF00EE00F0140EE80471
:104B000003E3EECFE4FFFBD700EE14F00A0EE80457
:104B100003E3EECFE4FFFBD7E65207D0CCC1FBFFA7
:104B2000CBC1FAFF0101CA51F96EF8DFE55200EE80
:104B30001DF00A0EE80403E3E5CFEDFFFBD700EE1E
:104B400013F0140EE80403E3E5CFEDFFFBD7E5CF48
:104B5000FBFFE5CFFAFFE5CFF4FFE5CFF3FFE5CFAD
:104B6000F5FFE5CFF7FFE5CFF6FFE5CFEAFFE5CFAD
:104B7000E9FFE5CFDAFF1100DACFE4FFE2CFDAFF99
:104B8000E9CFE4FFEACFE4FFF6CFE4FFF7CFE4FF9D
:104B9000F5CFE4FFF3CFE4FFF4CFE4FFFACFE4FF77
:104BA000FBCFE4FF00EE00F0140EE80403E3EECFC9
:104BB000E4FFFBD700EE14F00A0EE80403E3EECFA7
:104BC000E4FFFBD7E65207D0C9C1FBFFC8C1FAFF1B
:104BD0000101C751F96EF8DFE55200EE1DF00A0E33
:104BE000E80403E3E5CFEDFFFBD700EE13F0140E6E
:104BF000E80403E3E5CFEDFFFBD7E5CFFBFFE5CF0F
:104C0000FAFFE5CFF4FFE5CFF3FFE5CFF5FFE5CF02
:104C1000F7FFE5CFF6FFE5CFEAFFE5CFE9FFE5CF08
:044C2000DAFF1100A6
:0C4C2400D9CFE6FFE1CFD9FFE6528DD8D2
:104C3000DF6A050EDF5C09E2DF50EA6A4A0FE96EBF
:104C4000030EEA22EF6ADF2AF4D7E552E552E7CFF6
:104C5000D9FF1200D9CFE6FFE1CFD9FF9BD8FC0ED8
:104C6000DBCFE6FFFD0EDBCFE6FFFE0EDBCFE6FF80
:104C700098D8E552E552E552E552E7CFD9FF120048
:104C8000D9CFE6FFE1CFD9FFE652FC0EDB50DF6E55
:104C9000FB0EDB50D880DF541AE37CD8DFCFE6FF71
:104CA000176ADF34FE0B1736166EFD0EDB50162426
:104CB000146EFE0EDB501720156E14C0E6FF15C0F3
:104CC000E6FF6FD8E552E552E552DF2AE1D7E5521B
:104CD000E552E7CFD9FF1200D9CFE6FFE1CFD9FFE8
:104CE000E652DF6A57D8DF6A050EDF5C15E2DFCFD8
:104CF000E6FF156ADF34FE0B1536146E4F0E1426D0
:104D0000030E152214C0E6FF15C0E6FF4AD8E5528F
:104D1000E552E552DF2AE8D7E552E552E7CFD9FF61
:104D20001200D9CFE6FFE1CFD9FFFE0EEA6ADB34ED
:104D3000FE0BEA36E96E4F0EE926030EEA22EF502B
:104D400000D0E552E7CFD9FF1200D9CFE6FFE1CF7F
:104D5000D9FFE652DF6A050EDF5C17E2EA6ADF344C
:104D6000FE0BEA36E96E4F0EE926030EEA22EF6AE1
:104D7000EA6ADF34FE0BEA36E96E4F0EE926030ECF
:104D8000EA22EE52EF6ADF2AE6D7E552E552E7CF94
:104D9000D9FF12008050020B01E0010E03014A6F9F
:104DA0001200D9CFE6FFE1CFD9FFFD0EDBCFE9FF3F
:104DB000FE0EDBCFEAFFEF50010A3DE0010A01E001
:104DC00074D0FC0EDB50EA6A4A0FE96E030EEA2249
:104DD000EF50010B27E1FD0EDBCFE9FFFE0EDBCF2D
:104DE000EAFFEE52EF2AFD0EDBCFE9FFFE0EDBCF2E
:104DF000EAFFEECF14F0EFCF15F0020E0001155CC4
:104E000010E3FD0EDBCFE9FFFE0EDBCFEAFF010E64
:104E1000EF6EFD0EDBCFE9FFFE0EDBCFEAFFEE52B9
:104E2000EF6A08D0FD0EDBCFE9FFFE0EDBCFEAFF15
:104E3000EE52EF6A3AD0FC0EDB50EA6A4A0FE96E96
:104E4000030EEA22EF50010B010826E1FD0EDBCF35
:104E5000E9FFFE0EDBCFEAFFEE52EF2AFD0EDBCFBD
:104E6000E9FFFE0EDBCFEAFFEECF14F0EFCF15F037
:104E7000020E0001155C0FE3FD0EDBCFE9FFFE0E15
:104E8000DBCFEAFFEF6AFD0EDBCFE9FFFE0EDBCFE3
:104E9000EAFFEE52EF6A08D0FD0EDBCFE9FFFE0E0F
:104EA000DBCFEAFFEE52EF6A00D0E552E7CFD9FF41
:024EB0001200EE
:0E4EB200D9CFE6FFE1CFD9FF090EE126070EAA
:104EC000DB6AFB0EDBCFE9FFFC0EDBCFEAFF050E52
:104ED000EE1801E1ED5001E010D1010EE76EFD0E7C
:104EE000DBCFE9FFFE0EDBCFEAFFE750E926000E3D
:104EF000EA22EF50000EF350DE6EDD6A020EE76E1E
:104F0000FD0EDBCFE9FFFE0EDBCFEAFFE750E9261F
:104F1000000EEA22EF50DF12DF2A010E01E3DB2A46
:104F2000030EE76EFD0EDBCFE9FFFE0EDBCFEAFFDF
:104F3000E750E926000EEA22EF50000EF350E66E2D
:104F4000D950020FE96EDACFEAFFE552E750EE6E74
:104F5000ED6A040EE76EFD0EDBCFE9FFFE0EDBCF40
:104F6000EAFFE750E926000EEA22EF50146E156AB8
:104F7000D950020FE96EDACFEAFF1450EE12155045
:104F8000ED12020EDBCF14F0030EDBCF15F0010E95
:104F9000145C000E155801E2AAD0020EDBCF16F009
:104FA000030EDBCF17F0D00E165C070E175801E387
:104FB0009ED0FD0EDBCF08F0FE0EDBCF09F0050E14
:104FC00008C0DBFF060E09C0DBFFFB0EDBCFE9FFED
:104FD000FC0EDBCFEAFFEE6AED6A050EDBCFE9FFE0
:104FE000DB2A060EDBCFEAFF01E3DB2A020EEF6EBF
:104FF000FB0EDBCFE9FFFC0EDBCFEAFFEE2A000E53
:10500000ED22020EDB50070B15E0020EDBCF14F091
:10501000030EDBCF15F00F0B05E0D89015321432DC
:10502000E806FBE1010E1426000E1522040E14C042
:10503000DBFF12D0080E146E156A020EDBCF08F0EB
:10504000030EDBCF09F014C00DF015C00EF0FAEC22
:1050500031F0040E08C0DBFF050EDBCFE9FFDB2AD1
:10506000060EDBCFEAFF01E3DB2A040EDBCFEFFF06
:10507000FB0EDBCFE9FFFC0EDBCFEAFFEE2A000ED2
:10508000ED22020EDBCFE6FF030EDBCFE6FFDECF25
:10509000E6FFDDCFE6FF050EDBCFE6FF060EDBCF3A
:1050A000E6FFA9EC24F0146E060EE15E1450E76EE4
:1050B000080EE7CFDBFFDB500BE0080EDBCFE6FF8F
:1050C000E1EC22F0E552E76E070EE7CFDBFF0ED0F2
:1050D000040EDB50146E156AFB0EDBCFE9FFFC0EED
:1050E000DBCFEAFF1450EE261550ED2205D0030E5B
:1050F000F36E070EF3CFDBFF05D0030EF36E070E42
:10510000F3CFDBFF070EDB50146E090EE15C03E208
:1051100000D0E16AE552E16E1450E552E7CFD9FFC5
:0251200012007B
:0E512200D9CFE6FFE1CFD9FF0A0EE126060E37
:10513000DB6AFB0EDBCFE9FFFC0EDBCFEAFF050EDF
:10514000EE1801E1ED5001E004D1010EE76EFD0E15
:10515000DBCFE9FFFE0EDBCFEAFFE750E926000ECA
:10516000EA22EF50DE6EDD6AD9CFE9FFDACFEAFF3F
:10517000EE50ED6EEF6A020EE76EFD0EDBCFE9FF3B
:10518000FE0EDBCFEAFFE750E926000EEA22EF50E1
:10519000DF12DF2A010E01E3DB2A030EE76EFD0EAC
:1051A000DBCFE9FFFE0EDBCFEAFFE750E926000E7A
:1051B000EA22EF50E66ED950020FE96EDACFEAFF2D
:1051C000E552E750EE6EED6AD950020FE96EDACF84
:1051D000EAFFEE50ED6EEF6A040EE76EFD0EDBCFD8
:1051E000E9FFFE0EDBCFEAFFE750E926000EEA22D8
:1051F000EF50146E156AD950020FE96EDACFEAFF4C
:105200001450EE121550ED12020EDBCF14F0030E07
:10521000DBCF15F0010E145C000E155801E293D09F
:10522000020EDBCF16F0030EDBCF17F07D0E165CFF
:10523000000E175801E387D0FD0EDBCF08F0FE0EFD
:10524000DBCF09F0040E08C0DBFF050E09C0DBFF51
:10525000FB0EDBCFE9FFFC0EDBCFEAFFEE6AED6A67
:10526000040EDBCFE9FFDB2A050EDBCFEAFF01E30B
:10527000DB2A040EEF6EFB0EDBCFE9FFFC0EDBCF6B
:10528000EAFFEE2A000EED22020E086E096ADBCF5D
:105290000DF0030EDBCF0EF055EC31F00650E66E4C
:1052A000040EDBCFE9FFDB2A050EDBCFEAFF01E3CB
:1052B000DB2AE552E750EF6EFB0EDBCFE9FFFC0E79
:1052C000DBCFEAFFEE2A000EED22020EDBCFE6FF77
:1052D000030EDBCFE6FFDECFE6FFDDCFE6FF040EF9
:1052E000DBCFE6FF050EDBCFE6FF69EC23F0146EA3
:1052F000060EE15E1450E76E070EE7CFDBFFDB50D2
:105300000BE0070EDBCFE6FFE1EC22F0E552E76EA3
:10531000060EE7CFDBFF16D0020EDBCF14F0030E34
:10532000DBCF15F0010ED89014361536E806FBE1F8
:10533000FB0EDBCFE9FFFC0EDBCFEAFF1450EE26BD
:105340001550ED2205D0030EF36E060EF3CFDBFFF2
:1053500005D0030EF36E060EF3CFDBFF060EDB5017
:10536000146E0A0EE15C03E200D0E16AE552E16EE0
:0A5370001450E552E7CFD9FF1200F8
:06537A00C76AC78E590E40
:10538000C86E280EC66EC56A9E96A19694869488AD
:1053900012009496949882888286050EE66E4BECF5
:1053A00032F0E5528298050EE66E4BEC32F0E55293
:1053B0008296050EE66E4BEC32F0E55212009496A2
:1053C00094988298050EE66E4BEC32F0E552828698
:1053D000050EE66E4BEC32F0E55282881200D9CF12
:1053E000E6FFE1CFD9FFE65294969488DF6ADF505A
:1053F0000A080EE3050EE66E4BEC32F0E5528286AB
:10540000050EE66E4BEC32F0E5528296DF2AEFD7BE
:10541000E552E552E7CFD9FF1200D9CFE6FFE1CF41
:10542000D9FFE65294969498DF6A080EDF5C25E275
:10543000FE0EDB50800B02E0010E01D0000EE8B042
:105440008288E8A08298030EE66E4BEC32F0E552BB
:105450008286060EE66E4BEC32F0E5528296020E24
:10546000E66E4BEC32F0E552FE0EDBCFF3FFF39E1F
:10547000F346F3CFDBFFDF2AD8D79488020EE66E1F
:105480004BEC32F0E5528286060EE66E4BEC32F0C3
:10549000E5528296060EE66E4BEC32F0E552E5528E
:1054A000E552E7CFD9FF1200D9CFE6FFE1CFD9FF10
:1054B000020EE126DF6A949694989488010EDB6AC6
:1054C000080EF36E010EDBCFF4FFF350F45C17E22D
:1054D0008286060EE66E4BEC32F0E552DF9EDF462A
:1054E0008250100B01E0010EDF10DF6E8296060E77
:1054F000E66E4BEC32F0E552010EDB2AE1D79498D0
:10550000FE0EDB0402E1829801D08288020EE66E74
:105510004BEC32F0E5528286060EE66E4BEC32F032
:10552000E5528296060EE66E4BEC32F0E552DF5005
:10553000146E020EE15C03E200D0E16AE552E16E16
:105540001450E552E7CFD9FF1200D9CFE6FFE1CFE3
:10555000D9FFE6521EDFFE0EDBCFE6FF5EDFE5522F
:10556000FD0EDBCFE6FF59DFE55213DFFE0EDB2831
:10557000E66E53DFE552E66A97DFE552DF6E1FDF26
:10558000DF5000D0E552E552E7CFD9FF1200D9CF66
:10559000E6FFE1CFD9FFFDDEFE0EDBCFE6FF3DDF0C
:1055A000E552FD0EDBCFE6FF38DFE552FC0EDBCF28
:1055B000E6FF33DFE55203DFE552E7CFD9FF120004
:1055C000DACFE4FFE2CFDAFFE9CFE4FFEACFE4FF8E
:1055D000F6CFE4FFF7CFE4FFF5CFE4FFF3CFE4FF2E
:1055E000F4CFE4FFFACFE4FF00EE00F0140EE8047D
:1055F00003E3EECFE4FFFBD700EE14F00A0EE8045D
:1056000003E3EECFE4FFFBD7E652F29427C3E6FFB5
:1056100028C3E6FFABEC31F0E552E5520301295116
:105620002A1107E005D02AC3FAFF03012951F96EB8
:10563000FADF03012F2B000E302331233223332BCB
:105640003423352B3623372B3823E55200EE1DF05B
:105650000A0EE80403E3E5CFEDFFFBD700EE13F0FD
:10566000140EE80403E3E5CFEDFFFBD7E5CFFAFF27
:10567000E5CFF4FFE5CFF3FFE5CFF5FFE5CFF7FF8B
:10568000E5CFF6FFE5CFEAFFE5CFE9FFE5CFDAFFAB
:105690001100DACFE4FFE2CFDAFFE9CFE4FFEACF8F
:1056A000E4FFF6CFE4FFF7CFE4FFF5CFE4FFF3CF5D
:1056B000E4FFF4CFE4FFFACFE4FF00EE00F0140EB5
:1056C000E80403E3EECFE4FFFBD700EE14F00A0E8C
:1056D000E80403E3EECFE4FFFBD7E6529E902BC332
:1056E000E6FF2CC3E6FF8FEC31F0E552E5520301F3
:1056F0002D512E1107E005D02EC3FAFF03012D51C5
:10570000F96EFADFE55200EE1DF00A0EE80403E33D
:10571000E5CFEDFFFBD700EE13F0140EE80403E332
:10572000E5CFEDFFFBD7E5CFFAFFE5CFF4FFE5CFFF
:10573000F3FFE5CFF5FFE5CFF7FFE5CFF6FFE5CFC8
:10574000EAFFE5CFE9FFE5CFDAFF1100D9CFE6FFA9
:10575000E1CFD9FF9F0EE66EC7EC31F0E552FD0EAA
:10576000DBCFE6FFFE0EDBCFE6FFABEC31F0E55220
:10577000E552FD0EDBCF27F3FE0EDBCF28F3FB0E49
:10578000DBCF29F3FC0EDBCF2AF3E552E7CFD9FFBD
:105790001200D9CFE6FFE1CFD9FFC50EE66EF6ECD9
:1057A00030F0E552FD0EDBCFE6FFFE0EDBCFE6FF6D
:1057B0008FEC31F0E552E5529F80FD0EDBCF2BF3ED
:1057C000FE0EDBCF2CF3FB0EDBCF2DF3FC0EDBCF7D
:0A57D0002EF3E552E7CFD9FF1200D7
:0657DA0000C1814001C086
:1057E000804101C0804100C1814001C0804100C1B1
:1057F000814000C1814001C0804101C0804100C1A1
:10580000814000C1814001C0804100C1814001C090
:10581000804101C0804100C1814001C0804100C180
:10582000814000C1814001C0804100C1814001C070
:10583000804101C0804100C1814000C1814001C060
:10584000804101C0804100C1814001C0804100C150
:10585000814000C1814001C0804101C0804100C140
:10586000814000C1814001C0804100C1814001C030
:10587000804101C0804100C1814000C1814001C020
:10588000804101C0804100C1814001C0804100C110
:10589000814000C1814001C0804100C1814001C000
:1058A000804101C0804100C1814001C0804100C1F0
:1058B000814000C1814001C0804101C0804100C1E0
:1058C000814000C1814001C0804100C1814001C0D0
:1058D000804101C0804100C1814000C0C101C303BB
:1058E00002C2C60607C705C5C404CC0C0DCD0FCF38
:1058F000CE0E0ACACB0BC90908C8D81819D91BDBA8
:10590000DA1A1EDEDF1FDD1D1CDC14D4D515D717F7
:1059100016D6D21213D311D1D010F03031F133F3A7
:10592000F23236F6F737F53534F43CFCFD3DFF3FF7
:105930003EFEFA3A3BFB39F9F83828E8E929EB2B27
:105940002AEAEE2E2FEF2DEDEC2CE42425E527E7B7
:10595000E62622E2E323E12120E0A06061A163A327
:10596000A26266A6A767A56564A46CACAD6DAF6FB7
:105970006EAEAA6A6BAB69A9A86878B8B979BB7B27
:105980007ABABE7E7FBF7DBDBC7CB47475B577B777
:10599000B67672B2B373B17170B0509091519353A7
:1059A000529296565797559594549C5C5D9D5F9F77
:1059B0009E5E5A9A9B5B99595898884849894B8BA7
:1059C0008A4A4E8E8F4F8D4D4C8C44848545874737
:0A59D00046868242438341818040F5
:0659DA00D9CFE6FFE1CF8A
:1059E000D9FF210EE126030EDB6AD950040FE96EC0
:1059F000DACFEAFFEE6AEE6AEE6AEE6AEE6AD95034
:105A0000090FE96EDACFEAFF4D0EEE6E4D0EEE6E27
:105A1000440EEE6E5F0EEE6E4D0EEE6E4F0EEE6E9F
:105A2000440EEE6E420EEE6E550EEE6E530EEE6EA0
:105A3000EE6AD950140FE96EDACFEAFF490EEE6E26
:105A4000440EEE6E450EEE6E4F0EEE6E4E0EEE6E88
:105A5000490EEE6E430EEE6E530EEE6E310EEE6E8E
:105A6000200EEE6EEE6AE3EC31F0060EDF6E280ECD
:105A7000DF5C31E2020EDB6A0B0EF36E020EDBCF4F
:105A8000F4FFF350F45C25E2020EDBCFE6FFDFCF3C
:105A9000E6FF36EC31F0E552E5524B0EF36E1F0E89
