:020000040000FA
:0600000083EF2AF012005C
:020006001200E6
:08000800F2A402D039EF24F04C
:100010009EA002D0A2EF24F0A1A202D09BEF27F075
:100020009EAA02D07FEF21F01200D08EF28E120035
:100030000600FE5900006D01000001000000BD59DE
:100040000000EA00000041000000BB590000690107
:10005000000002000000A95900004D01000012003C
:10006000000054590000000F0000550000005255D8
:0A007000000000030000020400007D
:06007A00D9CFE6FFE1CF43
:10008000D9FFE652FE0EDBCFE6FF010EF36EFD0E4A
:10009000DB5004E0D890F336E806FCE1F350E5527B
:1000A000E71402E0010E01D0000EDF6EDF5000D039
:1000B000E552E552E7CFD9FF1200D9CFE6FFE1CFF5
:1000C000D9FF010EF36EFC0EDB5004E0D890F3363E
:1000D000E806FCE1F350146EFD0EDBCFE9FFFE0EE7
:1000E000DBCFEAFF1450EF12E552E7CFD9FF120041
:1000F000D9CFE6FFE1CFD9FF010EF36EFC0EDB5046
:1001000004E0D890F336E806FCE1F350E81C146EE6
:10011000FD0EDBCFE9FFFE0EDBCFEAFF1450EF163A
:10012000E552E7CFD9FF1200D9CFE6FFE1CFD9FFE3
:10013000030EE126DF6A050EDF5C01E31ED1DF2836
:10014000E66EDF50CD0DF3CFE9FFF4CFEAFF000EEE
:10015000E926030EEA22E552E750EF6EDF50CD0D9F
:10016000F3CFE9FFF4CFEAFF000EE926030EEA22FF
:10017000EE52EF6ADF50CD0DF3CFE9FFF4CFEAFF87
:10018000000EE926030EEA22030EE926000EEA22FB
:10019000EE6AED6ADF50CD0DF3CFE9FFF4CFEAFF51
:1001A000000EE926030EEA22050EE926000EEA22D9
:1001B000EF6ADF50CD0DF3CFE9FFF4CFEAFF000E79
:1001C000E926030EEA22060EE926000EEA22EF6A6D
:1001D000DF50CD0DF3CFE9FFF4CFEAFF000EE926A3
:1001E000030EEA22090EE926000EEA22EF6ADF502A
:1001F000CD0DF3CFE9FFF4CFEAFF000EE926030EA1
:10020000EA220A0EE926000EEA22EF6ADF50CD0D3F
:10021000F3CFE9FFF4CFEAFF000EE926030EEA224E
:10022000070EE926000EEA22EF6ADF50CD0DF3CF6C
:10023000E9FFF4CFEAFF000EE926030EEA220B0ED7
:10024000E926000EEA22EF6ADF50CD0DF3CFE9FF79
:10025000F4CFEAFF000EE926030EEA220C0EE9268F
:10026000000EEA22EF6ADF50CD0DF3CFE9FFF4CFA5
:10027000EAFF000EE926030EEA22080EE926000E28
:10028000EA22EF6ADF50CD0DF3CFE9FFF4CFEAFFAA
:10029000000EE926030EEA22020EE926000EEA22EB
:1002A000EF6ADE52400EDD6E010EDBCFE6FFE66A3E
:1002B000E66ADF50CD0DF3CFE9FFF4CFEAFF000E81
:1002C000E926030EEA228D0EE926000EEA22E9CF86
:1002D00014F0EACF15F014C0E6FF15C0E6FFC1EC3C
:1002E00028F0166E050EE15E1650010EDBCFE6FF1C
:1002F000E66AE66ADF50CD0DF3CFE9FFF4CFEAFFFF
:10030000000EE926030EEA220D0EE926000EEA226F
:10031000E9CF14F0EACF15F014C0E6FF15C0E6FFF0
:10032000C1EC28F0166E050EE15E1650010EDBCF13
:10033000E6FFE66AE66ADF50CD0DF3CFE9FFF4CFC2
:10034000EAFF000EE926030EEA220D0EE926000E52
:10035000EA22E9CF14F0EACF15F0400E1426000E81
:10036000152214C0E6FF15C0E6FFC1EC28F0166E9A
:10037000050EE15E1650DF2ADED6030EE15C02E2D6
:10038000E16AE552E16EE552E7CFD9FF1200D9CF1D
:10039000E6FFE1CFD9FF070EE126050EF36EFE0E54
:1003A000DBCFF4FFF350F45C1EE2FC0EDBCFE9FF81
:1003B000FD0EDBCFEAFFEF50146E156AD890155092
:1003C00004E6800E145C000E15580DE2FC0EDBCF27
:1003D000E9FFFD0EDBCFEAFF020EE926000EEA225E
:1003E000EE50ED1002E1000EEFD3FE0EDB50CD0D0E
:1003F000F3CFE9FFF4CFEAFF000EE926030EEA226D
:10040000EE52E9CF14F0EACF15F0050E14C0DBFF71
:10041000060E15C0DBFFFC0EDBCFE9FFFD0EDBCFC8
:10042000EAFFEECF14F0EECF15F0EECF16F0EECFE0
:1004300017F0EECF18F0EFCF19F0050EDBCFE9FF84
:10044000060EDBCFEAFF14C0EEFF15C0EEFF16C0AC
:10045000EEFF17C0EEFF18C0EEFF19C0EEFFFE0E54
:10046000DB50CD0DF3CFE9FFF4CFEAFF000EE92614
:10047000030EEA22060EE926000EEA22EF50E66E8F
:10048000FE0EDB50CD0DF3CFE9FFF4CFEAFF000EF7
:10049000E926030EEA22070EE926000EEA22E552BB
:1004A000E750EF6E400EDF6EDFCFE6FFE66AE66AEA
:1004B000FE0EDB50CD0DF3CFE9FFF4CFEAFF000EC7
:1004C000E926030EEA228D0EE926000EEA22E9CF84
:1004D00014F0EACF15F014C0E6FF15C0E6FFC1EC3A
:1004E00028F0166E050EE15E1650DFCFE6FFE66AD5
:1004F000E66AFE0EDB50CD0DF3CFE9FFF4CFEAFF45
:10050000000EE926030EEA220D0EE926000EEA226D
:10051000E9CF14F0EACF15F014C0E6FF15C0E6FFEE
:10052000C1EC28F0166E050EE15E1650DFCFE6FF37
:10053000E66AE66AFE0EDB50CD0DF3CFE9FFF4CF9D
:10054000EAFF000EE926030EEA220D0EE926000E50
:10055000EA22E9CF14F0EACF15F0400E1426000E7F
:10056000152214C0E6FF15C0E6FFC1EC28F0166E98
:10057000050EE15E1650FE0EDB50CD0DF3CFE9FF08
:10058000F4CFEAFF000EE926030EEA22060EE92662
:10059000000EEA22EF5001E083D1FE0EDB50CD0DBC
:1005A000F3CFE9FFF4CFEAFF000EE926030EEA22BB
:1005B000080EE926000EEA22EF6ADF6AFE0EDB5023
:1005C000CD0DF3CFE9FFF4CFEAFF000EE926030ECD
:1005D000EA22020EE926000EEA22EF50DF5C01E378
:1005E0005ED1FE0EDB50CD0DF3CFE9FFF4CFEAFF75
:1005F000000EE926030EEA22080EE926000EEA2282
:10060000EF50EF2A146E156AFE0EDB50CD0DF3CFBE
:10061000E9FFF4CFEAFF000EE926030EEA22030EFB
:10062000E926000EEA221450EE24E76E1550EE2063
:10063000EA6EE7CFE9FFEF50E00FE76E040EE7CF79
:10064000DBFFDBCF14F014340EE2040EDBCF15F029
:10065000630EE76E1518E8AE02D0153403D0E750EC
:10066000D880155402E2040EDB6AFE0EDB50CD0D7D
:10067000F3CFE9FFF4CFEAFF000EE926030EEA22EA
:10068000080EE926000EEA22EFCF14F0FE0EDB5032
:10069000CD0DF3CFE9FFF4CFEAFF000EE926030EFC
:1006A000EA22050EE926000EEA22EF50145C10E360
:1006B000FE0EDB50CD0DF3CFE9FFF4CFEAFF000EC5
:1006C000E926030EEA22080EE926000EEA22EF6A66
:1006D000010EDB6A080EF36E010EDBCFF4FFF35060
:1006E000F45C01E3DAD0040EDBCF18F0196A18BE0F
:1006F0001968030ED89018361936E806FBE1900EFB
:100700001826390E1922010EDB500F011824F66E3F
:10071000000E1920F76E0800F550E66EFE0EDB5055
:10072000CD0DF3CFE9FFF4CFEAFF000EE926030E6B
:10073000EA228D0EE926000EEA22E9CF16F0EACF72
:1007400017F0010EDB50080D1650F324146E1750ED
:10075000F420156EDF500F011424E96E000E1520F1
:10076000EA6EE552E750EF6EFE0EDB50CD0DF3CF93
:10077000E9FFF4CFEAFF000EE926030EEA228D0E10
:10078000E926000EEA22E9CF1AF0EACF1BF0010EAB
:10079000DB50080D1A50F324186E1B50F420196E0C
:1007A000DF501824E96E000E1920EA6EEF50E66E55
:1007B000FE0EDB50CD0DF3CFE9FFF4CFEAFF000EC4
:1007C000E926030EEA220D0EE926000EEA22E9CF01
:1007D00016F0EACF17F0010EDB50080D1650F32487
:1007E000146E1750F420156EDF501424E96E000EBD
:1007F0001520EA6EE552E750EF6EFE0EDB50CD0D90
:10080000F3CFE9FFF4CFEAFF000EE926030EEA2258
:100810008D0EE926000EEA22E9CF1AF0EACF1BF08E
:10082000010EDB50080D1A50F324186E1B50F420F3
:10083000196EDF501824E96E000E1920EA6EEF5091
:10084000E66EFE0EDB50CD0DF3CFE9FFF4CFEAFFED
:10085000000EE926030EEA220D0EE926000EEA221A
:10086000E9CF16F0EACF17F0400E1626000E172239
:10087000010EDB50080D1650F324146E1750F420AF
:10088000156EDF501424E96E000E1520EA6EE55255
:10089000E750EF6E010EDB2A1DD7DF2A8FD682D1FB
:1008A000FE0EDB50CD0DF3CFE9FFF4CFEAFF000ED3
:1008B000E926030EEA22080EE926000EEA22EF6A74
:1008C000DF6AFE0EDB50CD0DF3CFE9FFF4CFEAFF78
:1008D000000EE926030EEA22020EE926000EEA22A5
:1008E000EF50DF5C01E35ED1FE0EDB50CD0DF3CFA8
:1008F000E9FFF4CFEAFF000EE926030EEA22080E14
:10090000E926000EEA22EF50EF2A146E156AFE0E59
:10091000DB50CD0DF3CFE9FFF4CFEAFF000EE9265F
:10092000030EEA22030EE926000EEA221450EE24FA
:10093000E76E1550EE20EA6EE7CFE9FFEF50E00FCB
:10094000E76E040EE7CFDBFFDBCF14F014340EE2CA
:10095000040EDBCF15F0630EE76E1518E8AE02D07B
:10096000153403D0E750D880155402E2040EDB6A38
:10097000FE0EDB50CD0DF3CFE9FFF4CFEAFF000E02
:10098000E926030EEA22080EE926000EEA22EFCF3E
:1009900014F0FE0EDB50CD0DF3CFE9FFF4CFEAFFEC
:1009A000000EE926030EEA22050EE926000EEA22D1
:1009B000EF50145C10E3FE0EDB50CD0DF3CFE9FFDA
:1009C000F4CFEAFF000EE926030EEA22080EE9261C
:1009D000000EEA22EF6A010EDB6A080EF36E010ECA
:1009E000DBCFF4FFF350F45C01E3DAD0040EDBCF8D
:1009F00018F0196A18BE1968030ED89018361936FF
:100A0000E806FBE1900E1826390E1922010EDB5084
:100A10000F011824F66E000E1920F76E0800F5502D
:100A2000E66EFE0EDB50CD0DF3CFE9FFF4CFEAFF0B
:100A3000000EE926030EEA228D0EE926000EEA22B8
:100A4000E9CF16F0EACF17F0010EDB50080D165073
:100A5000F324146E1750F420156EDF500F01142488
:100A6000E96E000E1520EA6EE552E750EF6EFE0EBD
:100A7000DB50CD0DF3CFE9FFF4CFEAFF000EE926FE
:100A8000030EEA228D0EE926000EEA22E9CF1AF0C3
:100A9000EACF1BF0010EDB50080D1A50F324186E3C
:100AA0001B50F420196EDF501824E96E000E192037
:100AB000EA6EEF50E66EFE0EDB50CD0DF3CFE9FF90
:100AC000F4CFEAFF000EE926030EEA220D0EE92616
:100AD000000EEA22E9CF16F0EACF17F0010EDB5044
:100AE000080D1650F324146E1750F420156EDF50C5
:100AF0001424E96E000E1520EA6EE552E750EF6E01
:100B0000FE0EDB50CD0DF3CFE9FFF4CFEAFF000E70
:100B1000E926030EEA228D0EE926000EEA22E9CF2D
:100B20001AF0EACF1BF0010EDB50080D1A50F32427
:100B3000186E1B50F420196EDF501824E96E000E59
:100B40001920EA6EEF50E66EFE0EDB50CD0DF3CFAE
:100B5000E9FFF4CFEAFF000EE926030EEA220D0EAC
:100B6000E926000EEA22E9CF16F0EACF17F0400E90
:100B70001626000E1722010EDB50080D1650F32426
:100B8000146E1750F420156EDF501424E96E000E19
:100B90001520EA6EE552E750EF6E010EDB2A1DD7F5
:100BA000DF2A8FD6FE0EDB50CD0DF3CFE9FFF4CF59
:100BB000EAFF000EE926030EEA22080EE926000EDF
:100BC000EA22EF6A010E00D0146E070EE15C02E229
:100BD000E16AE552E16E1450E552E7CFD9FF120009
:100BE000D9CFE6FFE1CFD9FFFE0EDB50CD0DF3CF1D
:100BF000E9FFF4CFEAFF000EE926030EEA22060E13
:100C0000E926000EEA22FD0EDBCFEFFFFE0EDB50E1
:100C1000CD0DF3CFE9FFF4CFEAFF000EE926030E76
:100C2000EA22070EE926000EEA22FD0EDBCFEFFFD7
:100C3000E552E7CFD9FF1200D9CFE6FFE1CFD9FFC8
:100C4000020EE126FD0EDB50146E156AFE0EDB501F
:100C5000CD0DF3CFE9FFF4CFEAFF000EE926030E36
:100C6000EA22030EE926000EEA221450EE24E76E73
:100C70001550EE20EA6EE7CFE9FFEF50E00FE76E88
:100C8000010EE7CFDBFFDF6A080EDF5C01E3B1D0C6
:100C9000010EDB50080DF3CF18F0F4CF19F0900ED1
:100CA0001826390E1922DF500F011824F66E000E97
:100CB0001920F76E0800F550E66EFE0EDB50CD0DE4
:100CC000F3CFE9FFF4CFEAFF000EE926030EEA2294
:100CD0008D0EE926000EEA22E9CF16F0EACF17F0D2
:100CE000DF50080D1650F324146E1750F420156EC3
:100CF000FD0EDB500F011424E96E000E1520EA6E84
:100D0000E552E750EF6EDF50080DF3CF18F0F4CF47
:100D100019F08D0E1826030E1922FD0EDB50182433
:100D2000E96E000E1920EA6EEF50E66EFE0EDB5003
:100D3000CD0DF3CFE9FFF4CFEAFF000EE926030E55
:100D4000EA220D0EE926000EEA22E9CF16F0EACFDC
:100D500017F0DF50080D1650F324146E1750F420CE
:100D6000156EFD0EDB501424E96E000E1520EA6EA0
:100D7000E552E750EF6EDF50080DF3CF18F0F4CFD7
:100D800019F08D0E1826030E1922FD0EDB501824C3
:100D9000E96E000E1920EA6EEF50E66EFE0EDB5093
:100DA000CD0DF3CFE9FFF4CFEAFF000EE926030EE5
:100DB000EA220D0EE926000EEA22E9CF16F0EACF6C
:100DC00017F0400E1626000E1722DF50080D1650A1
:100DD000F324146E1750F420156EFD0EDB5014240E
:100DE000E96E000E1520EA6EE552E750EF6EDF2A3D
:100DF0004BD7020EE15C02E2E16AE552E16EE55298
:100E0000E7CFD9FF1200D9CFE6FFE1CFD9FFE652F5
:100E1000FE0EDB50CD0DF3CFE9FFF4CFEAFF000E5D
:100E2000E926030EEA22EE52EF6AFE0EDB50CD0DEC
:100E3000F3CFE9FFF4CFEAFF000EE926030EEA2222
:100E4000030EE926000EEA22EE6AED6AFE0EDB5082
:100E5000CD0DF3CFE9FFF4CFEAFF000EE926030E34
:100E6000EA22050EE926000EEA22EF6AFE0EDB50AA
:100E7000CD0DF3CFE9FFF4CFEAFF000EE926030E14
:100E8000EA22060EE926000EEA22EF6AFE0EDB5089
:100E9000CD0DF3CFE9FFF4CFEAFF000EE926030EF4
:100EA000EA22090EE926000EEA22EF6AFE0EDB5066
:100EB000CD0DF3CFE9FFF4CFEAFF000EE926030ED4
:100EC000EA220A0EE926000EEA22EF6AFE0EDB5045
:100ED000CD0DF3CFE9FFF4CFEAFF000EE926030EB4
:100EE000EA22070EE926000EEA22EF6AFE0EDB5028
:100EF000CD0DF3CFE9FFF4CFEAFF000EE926030E94
:100F0000EA220B0EE926000EEA22EF6AFE0EDB5003
:100F1000CD0DF3CFE9FFF4CFEAFF000EE926030E73
:100F2000EA220C0EE926000EEA22EF6AFE0EDB50E2
:100F3000CD0DF3CFE9FFF4CFEAFF000EE926030E53
:100F4000EA22080EE926000EEA22EF6AFE0EDB50C6
:100F5000CD0DF3CFE9FFF4CFEAFF000EE926030E33
:100F6000EA22020EE926000EEA22EF6A400EDF6E48
:100F7000DFCFE6FFE66AE66AFE0EDB50CD0DF3CF6B
:100F8000E9FFF4CFEAFF000EE926030EEA228D0EF8
:100F9000E926000EEA22E9CF14F0EACF15F014C0DA
:100FA000E6FF15C0E6FFC1EC28F0166E050EE15E07
:100FB0001650DFCFE6FFE66AE66AFE0EDB50CD0D87
:100FC000F3CFE9FFF4CFEAFF000EE926030EEA2291
:100FD0000D0EE926000EEA22E9CF14F0EACF15F053
:100FE00014C0E6FF15C0E6FFC1EC28F0166E050E32
:100FF000E15E1650DFCFE6FFE66AE66AFE0EDB50E2
:10100000CD0DF3CFE9FFF4CFEAFF000EE926030E82
:10101000EA220D0EE926000EEA22E9CF14F0EACF0B
:1010200015F0400E1426000E152214C0E6FF15C060
:10103000E6FFC1EC28F0166E050EE15E1650E55293
:10104000E552E7CFD9FF1200D9CFE6FFE1CFD9FFB4
:10105000050EE126DF6A050EDF5C01E3BBD3DF503E
:10106000CD0DF3CFE9FFF4CFEAFF000EE926030E22
:10107000EA22060EE926000EEA22EF5021E0DF50B8
:10108000CD0DF3CFE9FFF4CFEAFF000EE926030E02
:10109000EA22070EE926000EEA22EF06DF50CD0D08
:1010A000F3CFE9FFF4CFEAFF000EE926030EEA22B0
:1010B000070EE926000EEA22EF50000801E288D36D
:1010C000DF50CD0DF3CFE9FFF4CFEAFF000EE926A4
:1010D000030EEA22060EE926000EEA22EF50E66E23
:1010E000DF50CD0DF3CFE9FFF4CFEAFF000EE92684
:1010F000030EEA22070EE926000EEA22E552E75027
:10110000EF6E9D90DF50CD0DF3CFE9FFF4CFEAFFF6
:10111000000EE926030EEA22090EE926000EEA2255
:10112000EF5025E1DF50CD0DF3CFE9FFF4CFEAFF1B
:10113000000EE926030EEA220C0EE926000EEA2232
:10114000EF5002E1010E01D0000EE66EDF50CD0D32
:10115000F3CFE9FFF4CFEAFF000EE926030EEA22FF
:101160000B0EE926000EEA22E552E750EF6EDF5043
:10117000CD0DF3CFE9FFF4CFEAFF000EE926030E11
:10118000EA22090EE926000EEA22EF0402E19D8020
:101190001FD39D80DF50CD0DF3CFE9FFF4CFEAFFE1
:1011A000000EE926030EEA22060EE926000EEA22C8
:1011B000EF5001E1FBD2010EDB6A080EF36E010E67
:1011C000DBCFF4FFF350F45C01E380D2010EF36E49
:1011D000020EF3CFDBFFDF50CD0DF3CFE9FFF4CFED
:1011E000EAFF000EE926030EEA22020EE926000EAF
:1011F000EA22EF50F36E020EDBCFF4FFF350F45C03
:1012000001E311D1DF50CD0DF3CFE9FFF4CFEAFFB9
:10121000000EE926030EEA228D0EE926000EEA22D0
:10122000E9CF16F0EACF17F0010EDB50080D16508B
:10123000F324146E1750F420156E020EDB040F0118
:101240001424E96E000E1520EA6EEF9EEF46070E9D
:10125000E66EDF50CD0DF3CFE9FFF4CFEAFF000ECD
:10126000E926030EEA228D0EE926000EEA22E9CFD6
:1012700016F0EACF17F0010EDB50080D1650F324DC
:10128000146E1750F420156E020EDB501424E96E14
:10129000000E1520EA6EEF50E66E3DEC00F0E552D0
:1012A000E55201082FE1030EE66EDF50CD0DF3CFBE
:1012B000E9FFF4CFEAFF000EE926030EEA228D0EC5
:1012C000E926000EEA22E9CF18F0EACF19F0010E64
:1012D000DB50080D1850F324166E1950F420176EC9
:1012E000020EDB0400011624146E000E1720156E8A
:1012F00014C0E6FF15C0E6FF5DEC00F0E552E552D4
:10130000E5522ED0030EE66EDF50CD0DF3CFE9FF90
:10131000F4CFEAFF000EE926030EEA228D0EE9263D
:10132000000EEA22E9CF18F0EACF19F0010EDB50E7
:10133000080D1850F324166E1950F420176E020E83
:10134000DB0400011624146E000E1720156E14C065
:10135000E6FF15C0E6FF78EC00F0E552E552E552F5
:10136000DF50CD0DF3CFE9FFF4CFEAFF000EE92601
:10137000030EEA228D0EE926000EEA22E9CF1CF0C8
:10138000EACF1DF0010EDB50080D1C50F3241A6E3D
:101390001D50F4201B6E020EDB040F011A24E96EAF
:1013A000000E1B20EA6EEF50E66EDF50CD0DF3CF3E
:1013B000E9FFF4CFEAFF000EE926030EEA220D0E44
:1013C000E926000EEA22E9CF18F0EACF19F0DF5043
:1013D000CD0DF3CFE9FFF4CFEAFF000EE926030EAF
:1013E000EA220B0EE926000EEA22EF50400D1850BB
:1013F000F324166E1950F420176E010EDB50080D01
:101400001650F324146E1750F420156E020EDB04F0
:101410001424E96E000E1520EA6EE552E750EF6ED7
:10142000020EDB2AD8D6DF50CD0DF3CFE9FFF4CF83
:10143000EAFF000EE926030EEA228D0EE926000ED1
:10144000EA22E9CF16F0EACF17F0010EDB50080DC3
:101450001650F324146E1750F420156E020EDB04A0
:101460000F011424E96E000E1520EA6EEF9EEF4680
:10147000DF50CD0DF3CFE9FFF4CFEAFF000EE926F0
:10148000030EEA22080EE926000EEA22EF50146E3F
:10149000156ADF50CD0DF3CFE9FFF4CFEAFF000E60
:1014A000E926030EEA22030EE926000EEA22145072
:1014B000EE24E76E1550EE20EA6EE7CFE9FFEF501D
:1014C000E00FE76E030EE7CFDBFF000EF36E030EB7
:1014D000DBCFF4FFF350F45C04E3030EDB5063084E
:1014E00002E2030EDB6A030EDB50080DF3CF14F0AB
:1014F000F4CF15F0900E1426390E1522010EDB5094
:101500000F011424F66E000E1520F76E0800040E6D
:10151000F5CFDBFF070E146EDF50CD0DF3CFE9FFE3
:10152000F4CFEAFF000EE926030EEA220A0EE926AE
:10153000000EEA22EF50145CE66E040EDBCFE6FFED
:101540003DEC00F0E552E55201082FE1030EE66E96
:10155000DF50CD0DF3CFE9FFF4CFEAFF000EE9260F
:10156000030EEA228D0EE926000EEA22E9CF18F0DA
:10157000EACF19F0010EDB50080D1850F324166E57
:101580001950F420176E020EDB0400011624146EAD
:10159000000E1720156E14C0E6FF15C0E6FF5DECC7
:1015A00000F0E552E552E5522ED0030EE66EDF5014
:1015B000CD0DF3CFE9FFF4CFEAFF000EE926030ECD
:1015C000EA228D0EE926000EEA22E9CF18F0EACFD2
:1015D00019F0010EDB50080D1850F324166E195047
:1015E000F420176E020EDB0400011624146E000EA8
:1015F0001720156E14C0E6FF15C0E6FF78EC00F06A
:10160000E552E552E552DF50CD0DF3CFE9FFF4CFBF
:10161000EAFF000EE926030EEA228D0EE926000EEF
:10162000EA22E9CF1CF0EACF1DF0010EDB50080DD5
:101630001C50F3241A6E1D50F4201B6E020EDB04A6
:101640000F011A24E96E000E1B20EA6EEF50E66EC1
:10165000DF50CD0DF3CFE9FFF4CFEAFF000EE9260E
:10166000030EEA220D0EE926000EEA22E9CF18F059
:10167000EACF19F0DF50CD0DF3CFE9FFF4CFEAFF49
:10168000000EE926030EEA220B0EE926000EEA22DE
:10169000EF50400D1850F324166E1950F420176EB9
:1016A000010EDB50080D1650F324146E1750F42071
:1016B000156E020EDB041424E96E000E1520EA6E8E
:1016C000E552E750EF6E010EDB2A77D5DF50CD0DE6
:1016D000F3CFE9FFF4CFEAFF000EE926030EEA227A
:1016E0000A0EE926000EEA22EF2ADF50CD0DF3CFD5
:1016F000E9FFF4CFEAFF000EE926030EEA220A0E04
:10170000E926000EEA22EFCF14F0050E145C4EE33A
:10171000DF50CD0DF3CFE9FFF4CFEAFF000EE9264D
:10172000030EEA22080EE926000EEA22EF2ADF5015
:10173000CD0DF3CFE9FFF4CFEAFF000EE926030E4B
:10174000EA22080EE926000EEA22EFCF14F0DF505D
:10175000CD0DF3CFE9FFF4CFEAFF000EE926030E2B
:10176000EA22050EE926000EEA22EF50145C0FE390
:10177000DF50CD0DF3CFE9FFF4CFEAFF000EE926ED
:10178000030EEA22080EE926000EEA22EF6ADF5075
:10179000CD0DF3CFE9FFF4CFEAFF000EE926030EEB
:1017A000EA220A0EE926000EEA22EF6A9D90DF5037
:1017B000CD0DF3CFE9FFF4CFEAFF000EE926030ECB
:1017C000EA22090EE926000EEA22010EEF6E9D8044
:1017D000DF2A41D4050EE15C02E2E16AE552E16EE6
:1017E000E552E7CFD9FF1200D9CFE6FFE1CFD9FF0D
:1017F000040EE12684928490809A8098809680944A
:1018000080928090020EDB6A050EF36E020EDBCF33
:10181000F4FFF350F45C01E390D0030EDB6A020E98
:10182000DB50CD0DF3CFE9FFF4CFEAFF000EE92640
:10183000030EEA22020EE926000EEA22EF50F36EB2
:10184000030EDBCFF4FFF350F45C74E2020EDB50C6
:10185000CD0DF3CFE9FFF4CFEAFF000EE926030E2A
:10186000EA220D0EE926000EEA22E9CF18F0EACFAF
:1018700019F0020EDB50CD0DF3CFE9FFF4CFEAFFF4
:10188000000EE926030EEA220C0EE926000EEA22DB
:10189000EF50400D1850F324166E1950F420176EB7
:1018A00007010151080D1650F324146E1750F4204F
:1018B000156E030EDB500F011424E96E000E152087
:1018C000EA6EEFCFDFFF030EDBCFE6FF020EDB5049
:1018D000CD0DF3CFE9FFF4CFEAFF000EE926030EAA
:1018E000EA22EE52EF50E552E724E76E010EE7CF11
:1018F000DBFF400EF36E010EDBCFF4FFF350F45C20
:101900000AE3800E146E010EDBCFE7FF1450E726CA
:10191000010EE7CFDBFF010EDB50816EDF1C836E13
:1019200084940A0EE66E9EEC2AF0E5528484030E3F
:10193000DB2A75D7020EDB2A67D707010151070A98
:101940004EE0010A43E0030A38E0010A2DE0070AED
:1019500022E0010A17E0030A0CE0010A01E048D086
:1019600084828490809A80988096809480928090DF
:101970003FD084928480809A8098809680948092D0
:10198000809036D084928490808A809880968094CB
:10199000809280902DD084928490809A80888096C6
:1019A00080948092809024D084928490809A8098B1
:1019B00080868094809280901BD084928490809ABC
:1019C0008098809680848092809012D084928490B7
:1019D000809A8098809680948082809009D08492AA
:1019E0008490809A8098809680948092808000D0A5
:1019F000012B0151080856E2016B020EDB6A050E4D
:101A0000F36E020EDBCFF4FFF350F45C4BE2020EF8
:101A1000DB50CD0DF3CFE9FFF4CFEAFF000EE9264E
:101A2000030EEA22090EE926000EEA22EF0437E14E
:101A3000020EDB50CD0DF3CFE9FFF4CFEAFF000E2D
:101A4000E926030EEA220C0EE926000EEA22EF50E8
:101A500002E1010E01D0000EE66E020EDB50CD0D4C
:101A6000F3CFE9FFF4CFEAFF000EE926030EEA22E6
:101A70000C0EE926000EEA22E552E750EF6E020E48
:101A8000DB50CD0DF3CFE9FFF4CFEAFF000EE926DE
:101A9000030EEA22090EE926000EEA22EF6A020E80
:101AA000DB2AADD7040EE15C02E2E16AE552E16EA9
:101AB000E552E7CFD9FF1200D9CFE6FFE1CFD9FF3A
:101AC000400EF36EFE0EDBCFF4FFF350F45C0AE33E
:101AD000800E146EFE0EDBCFE7FF1450E726FE0EDD
:101AE000E7CFDBFF8484FE0EDB50816EFD0EDB5002
:101AF000836E8494640EE66E9EEC2AF0E552848434
:081B0000E552E7CFD9FF120006
:081B0800D9CFE6FFE1CFD9FFC0
:101B1000040EE126020EDB6AFB0EDBCFE9FFFC0EB2
:101B2000DBCFEAFF050EEE1801E1ED5051E1010EA9
:101B3000E76EFD0EDBCFE9FFFE0EDBCFEAFFE750DD
:101B4000E926000EEA22EF50000EF350DE6EDD6A49
:101B5000020EE76EFD0EDBCFE9FFFE0EDBCFEAFFE4
:101B6000E750E926000EEA22EF50DF12DF2A010ECD
:101B700001E3DB2AE66EE66EE66ADECFE6FFDDCF46
:101B8000E6FF030EE76EFD0EDBCF14F0FE0EDBCF9B
:101B900015F0E7501426000E152214C0E6FF15C0FC
:101BA000E6FF93EC1BF0166E070EE15E1650E76E33
:101BB000030EE7CFDBFFDB500AE0030EDBCFE6FFCF
:101BC00057EC20F0E552E76E020EE7CFDBFF05D0C1
:101BD000030EF36E020EF3CFDBFF020EDB50146E2A
:101BE000040EE15C03E200D0E16AE552E16E1450BC
:101BF000E552E7CFD9FF1200D9CFE6FFE1CFD9FFF9
:101C0000070EE126050EDB6AFB0EDBCFE9FFFC0EBB
:101C1000DBCFEAFFEECF14F0EFCF15F0060E145C29
:101C2000000E155801E2CCD0010EE76EFD0EDBCFA1
:101C3000E9FFFE0EDBCFEAFFE750E926000EEA22BD
:101C4000EF50000EF350DE6EDD6A020EE76EFD0E01
:101C5000DBCFE9FFFE0EDBCFEAFFE750E926000EFF
:101C6000EA22EF50DF12DF2A010E01E3DB2A030E26
:101C7000E76EFD0EDBCFE9FFFE0EDBCFEAFFE7509C
:101C8000E926000EEA22EF50000EF350E66ED9501E
:101C9000020FE96EDACFEAFFE552E750EE6EED6A29
:101CA000040EE76EFD0EDBCFE9FFFE0EDBCFEAFF91
:101CB000E750E926000EEA22EF50146E156AD9505B
:101CC000020FE96EDACFEAFF1450EE121550ED1252
:101CD000050EE76EFD0EDBCFE9FFFE0EDBCFEAFF60
:101CE000E750E926000EEA22040EEFCFDBFF020EDA
:101CF000DBCF14F0030EDBCF15F0010E145C000EE9
:101D0000155858E3D950020FE96EDACFEAFF780E82
:101D1000D880EE54000EED544DE3020E086E096AB1
:101D2000DBCF0DF0030EDBCF0EF0B1EC29F0065047
:101D3000F36E040EDB50F35C3DE1010EE66E020E25
:101D4000DBCFE6FF030EDBCFE6FFDECFE6FFDDCF26
:101D5000E6FF060EE76EFD0EDBCF14F0FE0EDBCFC6
:101D600015F0E7501426000E152214C0E6FF15C02A
:101D7000E6FF93EC1BF0166E070EE15E1650E76E61
:101D8000060EE7CFDBFFDB500BE0060EDBCFE6FFF6
:101D900057EC20F0E552E76E050EE7CFDBFF09D0E8
:101DA000FB0EDBCFE9FFFC0EDBCFEAFF050EEE6E8C
:101DB000ED6A05D0030EF36E050EF3CFDBFF05D001
:101DC000030EF36E050EF3CFDBFFDB50146E070E30
:101DD000E15C03E200D0E16AE552E16E1450E552A5
:101DE000E7CFD9FF1200D9CFE6FFE1CFD9FF080E28
:101DF000E126060EDB6AFB0EDBCFE9FFFC0EDBCF34
:101E0000EAFF050EEE1801E1ED5001E0F9D0010EF8
:101E1000E76EFD0EDBCFE9FFFE0EDBCFEAFFE750FA
:101E2000E926000EEA22EF50000EF350DE6EDD6A66
:101E3000020EE76EFD0EDBCFE9FFFE0EDBCFEAFF01
:101E4000E750E926000EEA22EF50DF12DF2A010EEA
:101E500001E3DB2A030EE76EFD0EDBCFE9FFFE0E8A
:101E6000DBCFEAFFE750E926000EEA22EF50000E32
:101E7000F350E66ED950020FE96EDACFEAFFE55271
:101E8000E750EE6EED6A040EE76EFD0EDBCFE9FF64
:101E9000FE0EDBCFEAFFE750E926000EEA22EF5004
:101EA000E66ED950020FE96EDACFEAFFE552E7504D
:101EB000EE6EED6A020EDBCF14F0030EDBCF15F0F1
:101EC000010E145C000E155801E294D0D950020F97
:101ED000E96EDACFEAFF7D0ED880EE54000EED54A5
:101EE00001E288D0FD0EDBCF08F0FE0EDBCF09F05B
:101EF000040E08C0DBFF050E09C0DBFFFB0EDBCFC5
:101F0000E9FFFC0EDBCFEAFFEE6AED6A040EDBCFE1
:101F1000E9FFDB2A050EDBCFEAFF01E3DB2A030E34
:101F2000EF6EFB0EDBCFE9FFFC0EDBCFEAFFEE2A04
:101F3000000EED22020E086E096ADBCF0DF0030ED3
:101F4000DBCF0EF0B1EC29F00650E66E040EDBCFCD
:101F5000E9FFDB2A050EDBCFEAFF01E3DB2AE552CE
:101F6000E750EF6EFB0EDBCFE9FFFC0EDBCFEAFFA5
:101F7000EE2A000EED22E66A020EDBCFE6FF030E2C
:101F8000DBCFE6FFDECFE6FFDDCFE6FF040EDBCFE3
:101F9000E6FF050EDBCFE6FF93EC1BF0146E070E99
:101FA000E15E1450E76E070EE7CFDBFFDB500BE07E
:101FB000070EDBCFE6FF57EC20F0E552E76E060E8A
:101FC000E7CFDBFF16D0020EDBCF14F0030EDBCF22
:101FD00015F0010ED89014361536E806FBE1FB0E1D
:101FE000DBCFE9FFFC0EDBCFEAFF1450EE261550E5
:101FF000ED2205D0030EF36E060EF3CFDBFF05D006
:10200000030EF36E060EF3CFDBFF060EDB50146EED
:10201000080EE15C03E200D0E16AE552E16E145083
:10202000E552E7CFD9FF1200D9CFE6FFE1CFD9FFC4
:102030000D0EE1260B0EDB6AFB0EDBCFE9FFFC0E7B
:10204000DBCFEAFFEECF14F0EFCF15F00A0E145CF1
:10205000000E155801E2D0D1010EE76EFD0EDBCF68
:10206000E9FFFE0EDBCFEAFFE750E926000EEA2289
:10207000EF50000EF350DE6EDD6A020EE76EFD0ECD
:10208000DBCFE9FFFE0EDBCFEAFFE750E926000ECB
:10209000EA22EF50DF12DF2A010E01E3DB2A030EF2
:1020A000E76EFD0EDBCFE9FFFE0EDBCFEAFFE75068
:1020B000E926000EEA22EF50000EF350E66ED950EA
:1020C000020FE96EDACFEAFFE552E750EE6EED6AF5
:1020D000040EE76EFD0EDBCFE9FFFE0EDBCFEAFF5D
:1020E000E750E926000EEA22EF50146E156AD95027
:1020F000020FE96EDACFEAFF1450EE121550ED121E
:10210000050EE76EFD0EDBCFE9FFFE0EDBCFEAFF2B
:10211000E750E926000EEA22EF50000EF350E66E7B
:10212000D950040FE96EDACFEAFFE552E750EE6EC0
:10213000ED6A060EE76EFD0EDBCFE9FFFE0EDBCF8C
:10214000EAFFE750E926000EEA22EF50146E156A06
:10215000D950040FE96EDACFEAFF1450EE12155091
:10216000ED12040EDB2A050E01E3DB2A070EE76EF3
:10217000FD0EDBCFE9FFFE0EDBCFEAFFE750E926DD
:10218000000EEA22EF50000EF350E66ED950060F13
:10219000E96EDACFEAFFE552E750EE6EED6A080E1F
:1021A000E76EFD0EDBCFE9FFFE0EDBCFEAFFE75067
:1021B000E926000EEA22EF50146E156AD950060F78
:1021C000E96EDACFEAFF1450EE121550ED12090E47
:1021D000E76EFD0EDBCFE9FFFE0EDBCFEAFFE75037
:1021E000E926000EEA22080EEFCFDBFF020EDBCF5E
:1021F00014F0030EDBCF15F0010E145C000E155821
:1022000001E2F5D0D950020FE96EDACFEAFF7D0E78
:10221000D880EE54000EED5401E2E9D0060EDBCF7B
:1022200016F0070EDBCF17F0010E165C000E1758E4
:1022300001E2DDD0D950060FE96EDACFEAFF790E60
:10224000D880EE54000EED5401E2D1D0020E086E9B
:10225000096A060EDBCF0DF0070EDBCF0EF0B1ECF6
:1022600029F006C018F007C019F0080EDB501A6EEE
:102270001B6A1A50181802E11B50191801E0B7D058
:10228000010EE66E060EDBCFE6FF070EDBCFE6FFA4
:10229000040EDBCFE6FF050EDBCFE6FF0A0EE76E8E
:1022A000FD0EDBCF14F0FE0EDBCF15F0E750142649
:1022B000000E152214C0E6FF15C0E6FF93EC1BF0DC
:1022C000166E070EE15E1650E76E0C0EE7CFDBFFD1
:1022D000DB5001E07ED0FD0EDBCF08F0FE0EDBCF41
:1022E00009F0090E08C0DBFF0A0E09C0DBFFFB0E78
:1022F000DBCFE9FFFC0EDBCFEAFFEE6AED6A090EE9
:10230000DBCFE9FFDB2A0A0EDBCFEAFF01E3DB2AA2
:10231000170EEF6EFB0EDBCFE9FFFC0EDBCFEAFF03
:10232000EE2A000EED22020E086E096ADBCF0DF0D8
:10233000030EDBCF0EF0B1EC29F00650E66E090E6D
:10234000DBCFE9FFDB2A0A0EDBCFEAFF01E3DB2A62
:10235000E552E750EF6EFB0EDBCFE9FFFC0EDBCF63
:10236000EAFFEE2A000EED22E66A020EDBCFE6FF60
:10237000030EDBCFE6FFDECFE6FFDDCFE6FF090E83
:10238000DBCFE6FF0A0EDBCFE6FF93EC1BF0146E0B
:10239000070EE15E1450E76E0C0EE7CFDBFFDB505B
:1023A00018E1020E086E096ADBCF0DF0030EDBCFD9
:1023B0000EF0B1EC29F006C014F007C015F0FB0ECA
:1023C000DBCFE9FFFC0EDBCFEAFF1450EE26155001
:1023D000ED220C0EDB500AE00C0EDBCFE6FF57ECD3
:1023E00020F0E552E76E0B0EE7CFDBFF05D0030EC2
:1023F000F36E0B0EF3CFDBFF0B0EDB50146E0D0EE6
:10240000E15C03E200D0E16AE552E16E1450E5526E
:06241000E7CFD9FF120026
:0A241600D9CFE6FFE1CFD9FF090E90
:10242000E126070EDB6AFB0EDBCFE9FFFC0EDBCFFC
:10243000EAFF050EEE1801E1ED5001E011D1010EA9
:10244000E76EFD0EDBCFE9FFFE0EDBCFEAFFE750C4
:10245000E926000EEA22EF50000EF350DE6EDD6A30
:10246000020EE76EFD0EDBCFE9FFFE0EDBCFEAFFCB
:10247000E750E926000EEA22EF50DF12DF2A010EB4
:1024800001E3DB2A030EE76EFD0EDBCFE9FFFE0E54
:10249000DBCFEAFFE750E926000EEA22EF50000EFC
:1024A000F350E66ED950020FE96EDACFEAFFE5523B
:1024B000E750EE6EED6A040EE76EFD0EDBCFE9FF2E
:1024C000FE0EDBCFEAFFE750E926000EEA22EF50CE
:1024D000146E156AD950020FE96EDACFEAFF145074
:1024E000EE121550ED12020EDBCF14F0030EDBCF0F
:1024F00015F0010E145C000E155801E2ABD0020E6F
:10250000DBCF16F0030EDBCF17F0D00E165C070EF4
:10251000175801E39FD0FD0EDBCF08F0FE0EDBCF96
:1025200009F0050E08C0DBFF060E09C0DBFFFB0E3D
:10253000DBCFE9FFFC0EDBCFEAFFEE6AED6A050EAA
:10254000DBCFE9FFDB2A060EDBCFEAFF01E3DB2A64
:10255000010EEF6EFB0EDBCFE9FFFC0EDBCFEAFFD7
:10256000EE2A000EED22020EDB50070B15E0020EE4
:10257000DBCF14F0030EDBCF15F00F0B05E0D89086
:1025800015321432E806FBE1010E1426000E152266
:10259000040E14C0DBFF12D0080E146E156A020E72
:1025A000DBCF08F0030EDBCF09F014C00DF015C02F
:1025B0000EF05DEC2AF0040E08C0DBFF050EDBCF49
:1025C000E9FFDB2A060EDBCFEAFF01E3DB2A040E7C
:1025D000DBCFEFFFFB0EDBCFE9FFFC0EDBCFEAFF2B
:1025E000EE2A000EED22E66A020EDBCFE6FF030EB6
:1025F000DBCFE6FFDECFE6FFDDCFE6FF050EDBCF6C
:10260000E6FF060EDBCFE6FFB4EC1CF0146E070EFF
:10261000E15E1450E76E080EE7CFDBFFDB500BE006
:10262000080EDBCFE6FF57EC20F0E552E76E070E11
:10263000E7CFDBFF0ED0040EDB50146E156AFB0EE5
:10264000DBCFE9FFFC0EDBCFEAFF1450EE2615507E
:10265000ED2205D0030EF36E070EF3CFDBFF05D09E
:10266000030EF36E070EF3CFDBFF070EDB50146E85
:10267000090EE15C03E200D0E16AE552E16E14501C
:10268000E552E7CFD9FF1200D9CFE6FFE1CFD9FF5E
:10269000060EE126040EDB6AFB0EDBCFE9FFFC0E23
:1026A000DBCFEAFF050EEE1801E1ED5001E091D01D
:1026B000010EE76EFD0EDBCFE9FFFE0EDBCFEAFF7A
:1026C000E750E926000EEA22EF50000EF350DE6ECE
:1026D000DD6A020EE76EFD0EDBCFE9FFFE0EDBCFFB
:1026E000EAFFE750E926000EEA22EF50DF12DF2A68
:1026F000010E01E3DB2A040EE76EFD0EDBCFE9FFDE
:10270000FE0EDBCFEAFFE750E926000EEA22EF508B
:102710005AE1030EE76EFD0EDBCFE9FFFE0EDBCFC5
:10272000EAFFE750E926000EEA22EF50FF080EE02C
:10273000030EE76EFD0EDBCFE9FFFE0EDBCFEAFFF7
:10274000E750E926000EEA22EF503DE1030EDB6A76
:10275000E76EFD0EDBCFE9FFFE0EDBCFEAFFE750B1
:10276000E926000EEA22EF50FF0806E1010EF36EA3
:10277000020EF3CFDBFF02D0020EDB6A010EE66E23
:10278000E66EE66ADECFE6FFDDCFE6FFD950020F48
:10279000E66E000EDA20E66EB4EC1CF0146E070E46
:1027A000E15E1450E76E050EE7CFDBFFDB500AE079
:1027B000050EDBCFE6FF57EC20F0E552E76E040E86
:1027C000E7CFDBFF05D0030EF36E040EF3CFDBFF84
:1027D00005D0030EF36E040EF3CFDBFF040EDB50C7
:1027E000146E060EE15C03E200D0E16AE552E16E90
:1027F0001450E552E7CFD9FF1200D9CFE6FFE1CF61
:10280000D9FF080EE126060EDB6AFB0EDBCFE9FFDF
:10281000FC0EDBCFEAFF050ED880EE54000EED541F
:1028200001E3EED0010EE76EFD0EDBCFE9FFFE0EF9
:10283000DBCFEAFFE750E926000EEA22EF50000E58
:10284000F350DE6EDD6A020EE76EFD0EDBCFE9FFB0
:10285000FE0EDBCFEAFFE750E926000EEA22EF503A
:10286000DF12DF2A010E01E3DB2A030EE76EFD0E05
:10287000DBCFE9FFFE0EDBCFEAFFE750E926000ED3
:10288000EA22EF50000EF350E66ED950020FE96EC7
:10289000DACFEAFFE552E750EE6EED6A040EE76E1E
:1028A000FD0EDBCFE9FFFE0EDBCFEAFFE750E926A6
:1028B000000EEA22EF50146E156AD950020FE96E2D
:1028C000DACFEAFF1450EE121550ED12050EE76E46
:1028D000FD0EDBCFE9FFFE0EDBCFEAFFE750E92676
:1028E000000EEA22040EEFCFDBFF020EDB50070BD7
:1028F00015E0020EDBCF14F0030EDBCF15F00F0B4B
:1029000005E0D89015321432E806FBE1010E1426DA
:10291000000E1522050E14C0DBFF12D0080E146E37
:10292000156A020EDBCF08F0030EDBCF09F014C0EE
:102930000DF015C00EF05DEC2AF0050E08C0DBFFAF
:10294000020EDBCF14F0030EDBCF15F0010E145C8A
:10295000000E15584FE3D950020FE96EDACFEAFFA7
:10296000B00ED880EE54070EED5444E3040EDB5055
:10297000F36E050EDB50F35C3DE1010EE66E020ED8
:10298000DBCFE6FF030EDBCFE6FFDECFE6FFDDCFDA
:10299000E6FF060EE76EFD0EDBCF14F0FE0EDBCF7A
:1029A00015F0E7501426000E152214C0E6FF15C0DE
:1029B000E6FFB4EC1CF0166E070EE15E1650E76EF3
:1029C000070EE7CFDBFFDB500BE0070EDBCFE6FFA8
:1029D00057EC20F0E552E76E060EE7CFDBFF09D09B
:1029E000FB0EDBCFE9FFFC0EDBCFEAFF050EEE6E40
:1029F000ED6A05D0030EF36E060EF3CFDBFF05D0B4
:102A0000030EF36E060EF3CFDBFF060EDB50146EE3
:102A1000080EE15C03E200D0E16AE552E16E145079
:082A2000E552E7CFD9FF1200D7
:082A2800D9CFE6FFE1CFD9FF91
:102A3000E652DF6AFD0EDB5013E0010EF36EFD0E71
:102A4000DBCFF4FFF350F45C0BE3FD0EDB50146EB0
:102A5000156A153404E21450F708000E155403E209
:102A6000020EDF6E5DD0FD0EDBCF55FFFE0EDB509C
:102A700001E045D00F016E0E5A6F310E5B6F5C6B3B
:102A80008A0E5D6F310E5E6F5F6B800E576F320E78
:102A9000586F596BA00E606F310E616F626B636B84
:102AA000646B656B900E666F330E676F686B5E0EBE
:102AB000696F340E6A6F6B6BEC0E6C6F340E6D6F5A
:102AC0006E6BF70EDBCFE6FFD950F80FE96EFF0E05
:102AD000DA20EA6EEECFE6FFEECFE6FFEECFE6FFBE
:102AE000EFCFE6FFFC0EDBCFE6FF55CFE6FF17EC9E
:102AF00018F0146E070EE15E1450DF6E02D0020E65
:102B0000DF6EDF500DE120EC29F0000903E1030E38
:102B1000DF6E06D0FE0EDBCF56FF0001010EEA6F1E
:102B2000DF5000D0E552E552E7CFD9FF1200D9CFF0
:102B3000E6FFE1CFD9FF030EE126146AFE0EDB505B
:102B4000145C01E3ECD0FE0EDB507F0801E2E7D01D
:102B5000F29EFB0EDBCF14F0FC0EDBCF15F0FD0E6A
:102B6000DBCF16F014501510161001E18BD0DE6A81
:102B7000DD6ADECF14F0DDCF15F0D890155004E6F5
:102B8000100E145C000E15586CE2DECFE9FFDDCFAD
:102B9000EAFFD890E936EA36D890E936EA36EB0E05
:102BA000E926000EEA22EECF14F0EECF15F0EECFBC
:102BB00016F0EFCF17F0000115501610171022E095
:102BC000FB0EDBCF18F0FC0EDBCF19F0FD0EDBCFD8
:102BD0001AF0DECFE9FFDDCFEAFFD890E936EA361A
:102BE000D890E936EA36EB0EE926000EEA22EE52DC
:102BF000EE50181806E1EE50191803E1EE501A18BD
:102C000000E12AE1DECFE9FFDDCFEAFFD890E93627
:102C1000EA36D890E936EA36EB0EE926000EEA22CB
:102C2000FE0EDBCFEFFFDECFE9FFDDCFEAFFD8906E
:102C3000E936EA36D890E936EA36EB0EE926000E98
:102C4000EA22EE52FB0EDBCFEEFFFC0EDBCFEEFFF7
:102C5000FD0EDBCFEEFF05D0DF2A010E01E3DB2AFC
:102C600088D7D9CFE9FFDACFEAFF100EEE1801E1DD
:102C7000ED5002E0000E01D0040EE76E020EE7CF29
:102C8000DBFF4BD0DE6ADD6ADECF14F0DDCF15F05E
:102C9000D890155004E6100E145C000E15583BE257
:102CA000DECFE9FFDDCFEAFFD890E936EA36D890EB
:102CB000E936EA36EB0EE926000EEA22EFCF14F0F1
:102CC000FE0EDB50145C22E1DECFE9FFDDCFEAFF30
:102CD000D890E936EA36D890E936EA36EB0EE9269E
:102CE000000EEA22EF6ADECFE9FFDDCFEAFFD890DF
:102CF000E936EA36D890E936EA36EB0EE926000ED8
:102D0000EA22EE52EE6AEE6AEE6A05D0DF2A010E82
:102D100001E3DB2AB9D7020EDB6AF28E04D0020E81
:102D2000F36EF3CFDBFFDB50146E030EE15C03E2C6
:102D300000D0E16AE552E16E1450E552E7CFD9FFC9
:102D40001200D9CFE6FFE1CFD9FFE652DF6A0001DA
:102D5000EA050FE10F0163516411651109E007D025
:102D600065CFFBFF64CFFAFF0F016351F96EF8DF07
:102D700002D0060EDF6EDF5000D0E552E552E7CFFD
:102D8000D9FF1200D9CFE6FFE1CFD9FFE652DF6AC3
:102D90000001EA050CE107D05CCFFBFF5BCFFAFF37
:102DA0000F015A51F96EF8DF0001EA6B02D0060EEE
:102DB000DF6EDF5000D0E552E552E7CFD9FF1200B9
:102DC000D9CFE6FFE1CFD9FFE6520001EA510EE18B
:102DD00007D05FCFFBFF5ECFFAFF0F015D51F96EA9
:102DE000F8DF0001010EEA6FDF6A06D0EA0502E1B2
:102DF000DF6A02D0060EDF6EDF5000D0E552E552EA
:102E0000E7CFD9FF1200D9CFE6FFE1CFD9FF040EFB
:102E1000E126020EDB6A0001EA5102E0060EFBD059
:102E2000D950030FE66E000EDA20E66E35EC29F07D
:102E3000E552E552010801E0ECD0030EDB50030A35
:102E400001E1E6D0010A31E0030A04E0010A01E0F1
:102E5000E0D0DFD0790EE66E0F0EE66E750EE66EF0
:102E60000F0EE66E770EE66E0F0EE66E07D062CF9F
:102E7000FBFF61CFFAFF0F016051F96EF8DF146EAE
:102E8000060EE15E1450E76E020EE7CFDBFFDB506B
:102E90000BE10F015551775D02E0775105E1020E1C
:102EA000E66E25EC29F0E552B4D075CFE9FF76CF78
:102EB000EAFFEFCF78FF0F01010E7B6FDE6ADD6A5C
:102EC000DECF14F0DDCF15F0D890155004E6100ECB
:102ED000145C000E155857E2DECFE9FFDDCFEAFFA4
:102EE000D890E936EA36D890E936EA36EB0EE9268C
:102EF000000EEA22EF5002E146D040D0DECFE9FFDB
:102F0000DDCFEAFFD890E936EA36D890E936EA36DE
:102F1000EB0EE926000EEA22EF500F01785D2EE15C
:102F2000DECFE9FFDDCFEAFFD890E936EA36D89068
:102F3000E936EA36EB0EE926000EEA22EECF14F06F
:102F4000EECF15F0EECF16F0EFCF17F0790EE66E5C
:102F50000F0EE66E75CFE6FF76CFE6FF07D017C0FF
:102F6000FBFF16C0FAFF00011550F96EF8DFE552BD
:102F7000E552E552E5520F017B6F05D0DF2A010EC5
:102F800001E3DB2A9DD70F01775141E07B5124E01B
:102F9000796B7A6B800E7811E66E79CF14F07ACF68
:102FA00015F0792B000E7A2375511424E96E7651B1
:102FB0001520EA6EE552E750EF6E79CF14F07ACF24
:102FC00015F0792B000E7A2375511424E96E765191
:102FD0001520EA6E7BCFEFFF79CFE6FF7ACFE6FFD1
:102FE00075CFE6FF76CFE6FF55CFE6FF07D059CF86
:102FF000FBFF58CFFAFF0F015751F96EF8DF146E3F
:10300000050EE15E1450E76E020EE7CFDBFF01D044
:1030100000D0000E00D0146E040EE15C02E2E16A02
:0E302000E552E16E1450E552E7CFD9FF1200E1
:02302E00D9CFF8
:10303000E6FFE1CFD9FF050EE126DF6A9D9AF80E83
:10304000DBCFE6FF080EE66ED950F90FE96EFF0EF2
:10305000DA20EA6EEECFE6FFEECFE6FFEECFE6FF38
:10306000EFCFE6FFFD0EDBCFE6FF91EC20F0146E14
:10307000070EE15E1450010803E0030EDF6E68D016
:10308000D950F90FE96EFF0EDA20EA6ED880020EF1
:10309000EE54000EEE54000EEE54000EEE540FE20D
:1030A000A30EF36E010EF3CFDBFFBB0EF36E020E29
:1030B000F3CFDBFF030EDB6A040EDB6A3BD0D95093
:1030C000F90FE96EFF0EDA20EA6E010EEE1805E147
:1030D000EE5003E1EE5001E1EE500FE1CF0EF36E42
:1030E000010EF3CFDBFF710EF36E020EF3CFDBFFA9
:1030F000030EDB6A040EDB6A1DD0D950F90FE96EAE
:10310000FF0EDA20EA6E020EEE1805E1EE5003E142
:10311000EE5001E1EE500EE1E70EF36E010EF3CF3B
:10312000DBFFB80EF36E020EF3CFDBFF030EDB6A9C
:10313000040EDB6A010EDBCFE6FF020EDBCFE6FFFB
:1031400077EC27F0E552E552010802E0030EDF6E4E
:103150009D8ADF50146E050EE15C03E200D0E16A47
:10316000E552E16E1450E552E7CFD9FF12009D9A67
:1031700001016A6BE66A010EE66E76EC20F0E5521C
:10318000E5528EEC27F09D8A12009D9AE66AE66A67
:1031900076EC20F0E552E55299EC27F09D8A12007A
:1031A000D9CFE6FFE1CFD9FF040EE126DF6A010E99
:1031B000DB6A9D9A0001640EE85D000EE95902E3A6
:1031C000050E52D0040EE85D000EE95946E3E8C052
:1031D000E6FFE9C0E6FF800EE66E000EE66EF9EC53
:1031E00026F0E552E552E552E552020EF3CFDBFF41
:1031F000030EF4CFDBFFD950020FE96EDACFEAFFFE
:10320000EE50ED1029E1FD0EDBCFE9FFFE0EDBCF26
:10321000EAFF80C0EFFFE8C014F0E9C015F0140623
:10322000000E155A020E145E000E155AF90EDBCF71
:10323000E9FFFA0EDBCFEAFF14C0EEFF15C0EDFF89
:10324000FB0EDBCFE9FFFC0EDBCFEAFF810EEE6E5B
:10325000000EED6E010EDF6E03D0DE52050EDD6E48
:103260009D8A010EDB5000D0146E040EE15C02E278
:10327000E16AE552E16E1450E552E7CFD9FF120042
:10328000D9CFE6FFE1CFD9FF030EE126DF6A9D9A91
:1032900001016A056CE1FC0EDBCFE4F0FD0EDBCF33
:1032A000E5F00001010EE45F000EE55B010EE66F44
:1032B000E76BFE0EDB50E4C0E9FFE5C0EAFFEF6E0E
:1032C000FA0EDBCF08F0FB0EDBCF09F00850E62743
:1032D0000950E723E6C0E6FFE7C0E6FFE4C0E6FFEB
:1032E000E5C0E6FFF9EC26F0E552E552E552E5527D
:1032F000DE52F3CFDEFFF4CFDDFFDD52FF0EE76ECF
:10330000010EDBCF14F0020EDBCF15F0E7501416E0
:10331000156A0001E6C0E9FFE7C0EAFFE62B000EF0
:10332000E723800EE926000EEA2214C0EFFF010E0B
:10333000DBCF14F0020EDBCF15F015C014F0156AC8
:10334000E6C0E9FFE7C0EAFFE62B000EE723800EA8
:10335000E926000EEA2214C0EFFF0101010E696F99
:10336000E66EE66A76EC20F0E552E55202D0050EF4
:10337000DF6E9D8ADF50146E030EE15C03E200D025
:10338000E16AE552E16E1450E552E7CFD9FF120031
:10339000D9CFE6FFE1CFD9FF020EE126DF6A0101B6
:1033A000695102E0000E4FD0D950010FE66E000EB9
:1033B000DA20E66E11EC21F0E552E55201016A5186
:1033C000020A24E0030A0BE0020A06E0030A01E015
:1033D00038D08EEC27F035D08EEC27F032D00001BB
:1033E000E86BE96BE8C0E9FFE9C0EAFFE82B000EF3
:1033F000E923800EE926000EEA22010EDBCFEFFF63
:103400000101020E6A6F8EEC27F01BD00001640EE2
:10341000E85D000EE9590FE2E8C0E9FFE9C0EAFF04
:10342000E82B000EE923800EE926000EEA22010EA9
:10343000DBCFEFFF03D00101030E6A6F8EEC27F0A4
:1034400000D0DF5000D0146E020EE15C02E2E16AAF
:10345000E552E16E1450E552E7CFD9FF1200D9CF03
:10346000E6FFE1CFD9FFE652DF6A01016A0502E01B
:10347000000E37D06951010A0BE0010A01E02FD09C
:10348000E66A010EE66E76EC20F0E552E55227D0B2
:103490000001000ED880E655000EE75510E2E4C0AA
:1034A000E9FFE5C0EAFFEF50E66EF6EC20F0E552EA
:1034B0000001E42B000EE523E607E75BE9D7030EE6
:1034C000E66E25EC29F0E552DF6EE66A010EE66E47
:1034D00076EC20F0E552E5520101696B00D0DF5037
:1034E00000D0E552E552E7CFD9FF1200D9CFE6FF71
:1034F000E1CFD9FFE652DF6A01016A51030A12E007
:10350000010A09E0020A01E00ED0E66A25EC29F082
:10351000E552DF6E08D0010EE66E25EC29F0E5528B
:10352000DF6E01D000D099EC27F00101010E6A6F27
:0E353000DF5000D0E552E552E7CFD9FF120080
:02353E00D9CFE3
:10354000E6FFE1CFD9FF060EE126020EF36E010E73
:10355000F3CFDBFF020EDB6A010EF36E030EF3CF37
:10356000DBFF040EDB6AE66A010EDBCF14F0020E0D
:10357000DBCF15F0166A176A14C0E6FF15C0E6FF28
:1035800016C0E6FF17C0E6FFE66A030EDBCFE6FFD4
:10359000E66A14EC15F0186E080EE15E1850E76E3E
:1035A000050EE7CFDBFFC2EC16F0E76E050EE7CFA6
:1035B000DBFFDF6A210EDF5C13E2DF50EA6A2E0FC9
:1035C000E96E0F0EEA22EF50E66EDF50EA6A040F52
:1035D000E96E0F0EEA22E552E750EF6EDF2AEAD7D6
:1035E000E66A03EC07F0E5520F01286B080E296F1D
:1035F0002C6F040E2A6F0F0E2B6F2D6B280EE66EAC
:103600000F0EE66EE66AC7EC01F0E552E552E552B0
:10361000010EE66E03EC07F0E5520F01080E286F6D
:10362000296F2C6F0C0E2A6F0F0E2B6F2D6B280E2F
:10363000E66E0F0EE66E010EE66EC7EC01F0E55287
:10364000E552E552020EE66E03EC07F0E5520F017B
:10365000100E286F080E296F2C6F140E2A6F0F0E94
:103660002B6F2D6B280EE66E0F0EE66E020EE66EC9
:10367000C7EC01F0E552E552E552030EE66E03ECAD
:1036800007F0E5520F01180E286F080E296F2C6FF6
:103690001C0E2A6F0F0E2B6F2D6B280EE66E0F0E71
:1036A000E66E030EE66EC7EC01F0E552E552E55218
:1036B000040EE66E03EC07F0E5520F01200E286FB2
:1036C000080E296F2C6F240E2A6F0F0E2B6F2D6B97
:1036D000280EE66E0F0EE66E040EE66EC7EC01F0E5
:1036E000E552E552E552060EE15C02E2E16AE5527E
:1036F000E16EE552E7CFD9FF12001200D9CFE6FF05
:10370000E1CFD9FF030EE126DF6ADF50146E030E0E
:10371000E15C03E200D0E16AE552E16E1450E5524B
:10372000E7CFD9FF1200D9CFE6FFE1CFD9FF0E0EC8
:10373000E126FB0EDB50DF6E020E086E096AF90E01
:10374000DBCF0DF0FA0EDBCF0EF0B1EC29F0010E5D
:1037500006C0DBFF020EDB6A030EDB6AD950040FE2
:10376000E96EDACFEAFF490EEE6E440EEE6E450EBC
:10377000EE6E4F0EEE6E4E0EEE6E490EEE6E430E78
:10378000EE6E530EEE6E200EEE6EEE6AF80EDB500D
:1037900024E0010A01E056D0010EDB5000081CE2D3
:1037A000FD0EDBCFE9FFDB2AFE0EDBCFEAFF01E3F4
:1037B000DB2AEF50E66E030EDBCFF3FFDB2AF3507C
:1037C000EA6A040FE96E0F0EEA22E552E750EF6E47
:1037D000DF2A010EDB06E0D735D0010EDB500008F2
:1037E00030E2FD0EDBCFE9FFDB2AFE0EDBCFEAFF86
:1037F00001E3DB2A410EEF6EFD0EDBCFE9FFDB2A92
:10380000FE0EDBCFEAFF01E3DB2A420EEF6EFD0E78
:10381000DBCFE9FFDB2AFE0EDBCFEAFF01E3DB2A89
:10382000430EEF6EFD0EDBCFE9FFDB2AFE0EDBCF92
:10383000EAFF01E3DB2A440EEF6EDF2A010EDB060E
:10384000CCD700D0E66A03EC07F0E5520F01286BF5
:10385000080E296F2C6F040E2A6F0F0E2B6F2D6B25
:10386000280EE66E0F0EE66EE66AC7EC01F0E55232
:10387000E552E552010EE66E03EC07F0E5520F014A
:10388000080E286F296F2C6F0C0E2A6F0F0E2B6FEE
:103890002D6B280EE66E0F0EE66E010EE66EC7EC7F
:1038A00001F0E552E552E552020EE66E03EC07F038
:1038B000E5520F01100E286F080E296F2C6F140EA1
:1038C0002A6F0F0E2B6F2D6B280EE66E0F0EE66E15
:1038D000020EE66EC7EC01F0E552E552E552030E2A
:1038E000E66E03EC07F0E5520F01180E286F080E84
:1038F000296F2C6F1C0E2A6F0F0E2B6F2D6B280E4D
:10390000E66E0F0EE66E030EE66EC7EC01F0E552B2
:10391000E552E552040EE66E03EC07F0E5520F01A6
:10392000200E286F080E296F2C6F240E2A6F0F0EA1
:103930002B6F2D6B280EE66E0F0EE66E040EE66EF4
:10394000C7EC01F0E552E552E552020EDB50146E71
:103950000E0EE15C03E200D0E16AE552E16E145024
:10396000E552E7CFD9FF1200D9CFE6FFE1CFD9FF6B
:10397000010E00D0E552E7CFD9FF1200D9CFE6FF04
:10398000E1CFD9FF010E00D0E552E7CFD9FF1200F9
:103990000000000000000000202020200000200087
:1039A00050505000000000005050F850F8505000A7
:1039B0002078A07028F02000C0C81020409818007F
:1039C0006090A040A89068006020400000000000C7
:1039D00010204040402010004020101010204000D7
:1039E0000020A870A8200000002020F8202000005F
:1039F00000000000301020000000007C00000000EB
:103A000000000000006060000008102040800000FE
:103A1000708898A8C88870002060A0202020F80036
:103A2000708808102040F800F810201008887000F6
:103A300010305090F8101000F880F0080808F000DE
:103A4000304080F088887000F80810204040400026
:103A50007088887088887000708888780810600086
:103A60000060600060600000006060006020400056
:103A700008102040201008000000F800F8000000A6
:103A800040201008102040007088081020002000FE
:103A900070880868A8A87000205088F88888880076
:103AA000F08888F08888F0007088808080887000B6
:103AB000E09088888890E000F88080F08080F800AE
:103AC000F88080F080808000708880B888887800D6
:103AD000888888F888888800F82020202020F8002E
:103AE00038101010109060008890A0C0A09088003E
:103AF000808080808080F80088D8A8A88888880086
:103B00008888C8A898888800708888888888700005
:103B1000F08888F08080800070888888A89068008D
:103B2000F08888F0A0908800788080700808F00005
:103B3000F82020202020200088888888888870002D
:103B40008888888888502000888888A8A8A850007D
:103B5000888850205088880088888850202020003D
:103B6000F80810204080F80070404040404070004D
:103B70008850F820F82020007010101010107000ED
:103B80002050880000000000000000000000F80045
:103B900040201000000000000000700878887800C5
:103BA0008080B0C88888F000000070808088700035
:103BB000080868988888780000007088F88070008D
:103BC000304840E040404000007888887808700025
:103BD0008080B0C888888800200060202020700085
:103BE000080008080848300040404850605048002D
:103BF00060202020202070000000D0A8A888880025
:103C00000000B0C88888880000007088888870002C
:103C10000000F088F08080000000689878080800B4
:103C20000000B0C880808000000070807008F00044
:103C30004040E04040483000000088888898680094
:103C4000000088888850200000008888A8A85000BC
:103C50000000885020508800000088887808700094
:103C60000000F8102040F800102020402020100014
:103C700020202020202020002010100810102000DC
:103C8000002010F810200000002040F84020000024
:103C90003048483000000000304848300000000044
:103CA00008183878381808000404040404040400D0
:103CB000FFFFFFFFFFFFFF000004040004040000FB
:103CC0000080800080800000808080808080800074
:103CD000C0C0C0C0C0C0C000E0E0E0E0E0E0E00084
:103CE000F0F0F0F0F0F0F000F8F8F8F8F8F8F8007C
:103CF000FCFCFCFCFCFCFC00FDFDFDFDFDFDFD00F5
:103D00002070F870707070003048848484483000EF
:103D100084483030304884000070487040400000D3
:103D200000304070106000000040404040780000CB
:103D300000008005C004E003F002F8010000080460
:083D4000180338027801F800B5
:083D4800D9CFE6FFE1CFD9FF5E
:103D50000A0EE126F90EDB50E66ED950080FE96E27
:103D6000DACFEAFFE552E750EE6EED6AFA0EDB506D
:103D7000080801E2F1D0080E146E156AFB0EDBCFC5
:103D800008F0FC0EDBCF09F014C00DF015C00EF0EA
:103D90005DEC2AF0040E08C0DBFF050E09C0DBFF56
:103DA000FB0EDBCF16F0FC0EDBCF17F0080E086E13
:103DB000096A040EDBCF0DF0050EDBCF0EF0B1EC7F
:103DC00029F00650165C146E07501758156E060E33
:103DD00014C0DBFF070E15C0DBFF060EDBCF14F0AF
:103DE000D950080FE96EDACFEAFF1450E85005E029
:103DF000D890EE36ED36E806FBE1FA0EDB50166E93
:103E0000010E165204E0E846FE0B1606FCE1FF0F19
:103E1000146E156A14BE1568020E14C0DBFF030E83
:103E200015C0DBFFFB0EDBCF16F0FC0EDBCF17F06F
:103E3000080E086E096A040EDBCF0DF0050EDBCF0D
:103E40000EF0B1EC29F00650165C146E07501758AE
:103E5000156ED950020FE96EDACFEAFF1450E85020
:103E600005E0D890EE36ED36E806FBE1040EDBCF38
:103E700014F0050EDBCF15F0FD0EDB501424E96EB7
:103E8000FE0EDB501520EA6EEF50DE6EDD6A010E8D
:103E9000E76E040EDBCF14F0050EDBCF15F0E75014
:103EA0001426000E1522FD0EDB501424E96EFE0EC2
:103EB000DB501520EA6EEF50000EF350DF12020EB9
:103EC000DB1C186E030EDB1C196EDE501814166E08
:103ED000DD501914176E080EDB501610146E090E03
:103EE000DB501710156E14C0DEFF15C0DDFFDECFEE
:103EF00016F0DDCF17F0FF0E1616000E1716040E83
:103F0000DBCF14F0050EDBCF15F0FD0EDB501424D3
:103F1000E96EFE0EDB501520EA6E16C0EFFFDECF15
:103F200016F0DDCF17F017C016F0176A010EE76E16
:103F3000040EDBCF14F0050EDBCF15F0E75014268E
:103F4000000E1522FD0EDB501424E96EFE0EDB5030
:103F50001520EA6E16C0EFFF0A0EE15C02E2E16A8C
:103F6000E552E16EE552E7CFD9FF1200D9CFE6FF67
:103F7000E1CFD9FF080EE126146E156AFB0EDBCFE8
:103F800008F0FC0EDBCF09F014C00DF015C00EF0E8
:103F90005DEC2AF0040E08C0DBFF050E09C0DBFF54
:103FA000FB0EDBCF16F0FC0EDBCF17F0080E086E11
:103FB000096A040EDBCF0DF0050EDBCF0EF0B1EC7D
:103FC00029F00650165C146E07501758156E060E31
:103FD00014C0DBFF070E15C0DBFFFA0EDB50166EB8
:103FE000010E165204E0E846FE0B1606FCE1FF0F38
:103FF000146E156A14BE1568020E14C0DBFF030EA2
:1040000015C0DBFF040EDBCF14F0050EDBCF15F07F
:10401000FD0EDB501424E96EFE0EDB501520EA6E17
:10402000EF50DE6EDD6A010EE76E040EDBCF14F09A
:10403000050EDBCF15F0E7501426000E1522FD0EFD
:10404000DB501424E96EFE0EDB501520EA6EEF50B3
:10405000000EF350DF12060EDBCF14F0D9CFE9FFCC
:10406000DACFEAFF14500F0B06E0EC52D890ED3295
:10407000EF32E806FAE1020EDBCF14F0030EDBCFDD
:1040800015F0D9CFE9FFDACFEAFF1450EE1615503C
:10409000ED16DF50146E080EE15C03E200D0E16A19
:1040A000E552E16E1450E552E7CFD9FF1200D9CFA7
:1040B000E6FFE1CFD9FFE652FE0EDB50070A0CE027
:1040C000060A07E0010A03E0040EDF6E08D0DF6A8B
:1040D00006D0020EDF6E03D0060EDF6E00D0DF507A
:0C40E00000D0E552E552E7CFD9FF1200F6
:0440EC00D9CFE6FF43
:1040F000E1CFD9FFFE0EDB5002E1AB9801D0AB88D7
:10410000FD0EDB5001E109D007D06BCFFBFF6ACF7A
:10411000FAFF0F016951F96EF8DFE552E7CFD9FFD9
:104120001200D9CFE6FFE1CFD9FF020EE1263C0E07
:10413000DF6EFA0EDBCF07F0FB0EDBCF08F0FC0ED4
:10414000DBCF09F0FD0EDBCF0AF0040E071805E106
:10415000085003E1095001E10A502AE0030E071854
:1041600005E1085003E1095001E10A501DE0020E8B
:10417000071805E1085003E1095001E10A5010E079
:10418000010E071805E1085003E1095001E10A504A
:1041900004E0DE52810EDD6E0FD0010EDB680CD024
:1041A000DE52810EDD6E08D0DE522A0EDD6E04D0A6
:1041B000DE52150EDD6E00D0010EDBCFE6FFE66AA3
:1041C000DFCFE6FFDBEC28F0E552E552E5529F8AAF
:1041D000010E146E020EE15C03E200D0E16AE552CA
:1041E000E16E1450E552E7CFD9FF1200D9CFE6FFB8
:1041F000E1CFD9FF8284640EE66E9EEC2AF0E55290
:10420000FE0EDB50AD6EACA2FED78294640EE66E5D
:104210009EEC2AF0E552010E00D0E552E7CFD9FF1F
:104220001200D9CFE6FFE1CFD9FFE65292EC29F098
:10423000DF6EFD0EDBCFE9FFFE0EDBCFEAFFDFCF47
:10424000EFFF9E9A010E00D0E552E552E7CFD9FF6D
:104250001200DACFE4FFE2CFDAFFE9CFE4FFEACFE2
:10426000E4FFF6CFE4FFF7CFE4FFF5CFE4FFF3CFB1
:10427000E4FFF4CFE4FFFACFE4FFFBCFE4FF00EE6E
:1042800000F0140EE80403E3EECFE4FFFBD700EEEA
:1042900014F00A0EE80403E3EECFE4FFFBD7E65286
:1042A00007D06BCFFBFF6ACFFAFF0F016951F96EA0
:1042B000F8DFE55200EE1DF00A0EE80403E3E5CF57
:1042C000EDFFFBD700EE13F0140EE80403E3E5CF97
:1042D000EDFFFBD7E5CFFBFFE5CFFAFFE5CFF4FF1E
:1042E000E5CFF3FFE5CFF5FFE5CFF7FFE5CFF6FF2D
:1042F000E5CFEAFFE5CFE9FFE5CFDAFF1100DACF3E
:10430000E4FFE2CFDAFFE9CFE4FFEACFE4FFF6CF44
:10431000E4FFF7CFE4FFF5CFE4FFF3CFE4FFF4CF02
:10432000E4FFFACFE4FFFBCFE4FF00EE00F0140E51
:10433000E80403E3EECFE4FFFBD700EE14F00A0E2F
:10434000E80403E3EECFE4FFFBD7E65207D068CFE3
:10435000FBFF67CFFAFF0F016651F96EF8DFE552F8
:1043600000EE1DF00A0EE80403E3E5CFEDFFFBD7F6
:1043700000EE13F0140EE80403E3E5CFEDFFFBD7E6
:10438000E5CFFBFFE5CFFAFFE5CFF4FFE5CFF3FF85
:10439000E5CFF5FFE5CFF7FFE5CFF6FFE5CFEAFF85
:0A43A000E5CFE9FFE5CFDAFF1100D9
:0643AA00D9CFE6FFE1CFD0
:1043B000D9FF090EE126070EDB6AFB0EDBCFE9FF12
:1043C000FC0EDBCFEAFF050EEE1801E1ED5001E037
:1043D00010D1010EE76EFD0EDBCFE9FFFE0EDBCF45
:1043E000EAFFE750E926000EEA22EF50000EF350F4
:1043F000DE6EDD6A020EE76EFD0EDBCFE9FFFE0E1C
:10440000DBCFEAFFE750E926000EEA22EF50DF1289
:10441000DF2A010E01E3DB2A030EE76EFD0EDBCF80
:10442000E9FFFE0EDBCFEAFFE750E926000EEA22A5
:10443000EF50000EF350E66ED950020FE96EDACF5E
:10444000EAFFE552E750EE6EED6A040EE76EFD0EF0
:10445000DBCFE9FFFE0EDBCFEAFFE750E926000ED7
:10446000EA22EF50146E156AD950020FE96EDACFC6
:10447000EAFF1450EE121550ED12020EDBCF14F0CD
:10448000030EDBCF15F0010E145C000E155801E28F
:10449000AAD0020EDBCF16F0030EDBCF17F0D00E42
:1044A000165C070E175801E39ED0FD0EDBCF08F017
:1044B000FE0EDBCF09F0050E08C0DBFF060E09C0BB
:1044C000DBFFFB0EDBCFE9FFFC0EDBCFEAFFEE6A82
:1044D000ED6A050EDBCFE9FFDB2A060EDBCFEAFF34
:1044E00001E3DB2A020EEF6EFB0EDBCFE9FFFC0ED1
:1044F000DBCFEAFFEE2A000EED22020EDB50070BA7
:1045000015E0020EDBCF14F0030EDBCF15F00F0B1E
:1045100005E0D89015321432E806FBE1010E1426AE
:10452000000E1522040E14C0DBFF12D0080E146E0C
:10453000156A020EDBCF08F0030EDBCF09F014C0C2
:104540000DF015C00EF05DEC2AF0040E08C0DBFF84
:10455000050EDBCFE9FFDB2A060EDBCFEAFF01E326
:10456000DB2A040EDBCFEFFFFB0EDBCFE9FFFC0EF7
:10457000DBCFEAFFEE2A000EED22020EDBCFE6FFD4
:10458000030EDBCFE6FFDECFE6FFDDCFE6FF050E55
:10459000DBCFE6FF060EDBCFE6FFBEEC1CF0146EB1
:1045A000060EE15E1450E76E080EE7CFDBFFDB502E
:1045B0000BE0080EDBCFE6FF57EC20F0E552E76E8C
:1045C000070EE7CFDBFF0ED0040EDB50146E156A2A
:1045D000FB0EDBCFE9FFFC0EDBCFEAFF1450EE262B
:1045E0001550ED2205D0030EF36E070EF3CFDBFF5F
:1045F00005D0030EF36E070EF3CFDBFF070EDB5083
:10460000146E090EE15C03E200D0E16AE552E16E4E
:0A4610001450E552E7CFD9FF120065
:06461A00D9CFE6FFE1CF5D
:10462000D9FF0A0EE126060EDB6AFB0EDBCFE9FF9F
:10463000FC0EDBCFEAFF050EEE1801E1ED5001E0C4
:1046400004D1010EE76EFD0EDBCFE9FFFE0EDBCFDE
:10465000EAFFE750E926000EEA22EF50DE6EDD6A3F
:10466000D9CFE9FFDACFEAFFEE50ED6EEF6A020E26
:10467000E76EFD0EDBCFE9FFFE0EDBCFEAFFE75072
:10468000E926000EEA22EF50DF12DF2A010E01E3D5
:10469000DB2A030EE76EFD0EDBCFE9FFFE0EDBCF5C
:1046A000EAFFE750E926000EEA22EF50E66ED95005
:1046B000020FE96EDACFEAFFE552E750EE6EED6ADF
:1046C000D950020FE96EDACFEAFFEE50ED6EEF6AD5
:1046D000040EE76EFD0EDBCFE9FFFE0EDBCFEAFF37
:1046E000E750E926000EEA22EF50146E156AD95001
:1046F000020FE96EDACFEAFF1450EE121550ED12F8
:10470000020EDBCF14F0030EDBCF15F0010E145CAC
:10471000000E155801E293D0020EDBCF16F0030E07
:10472000DBCF17F07D0E165C000E175801E387D023
:10473000FD0EDBCF08F0FE0EDBCF09F0040E08C043
:10474000DBFF050E09C0DBFFFB0EDBCFE9FFFC0E34
:10475000DBCFEAFFEE6AED6A040EDBCFE9FFDB2A6E
:10476000050EDBCFEAFF01E3DB2A040EEF6EFB0E42
:10477000DBCFE9FFFC0EDBCFEAFFEE2A000EED22D5
:10478000020E086E096ADBCF0DF0030EDBCF0EF0D0
:10479000B1EC29F00650E66E040EDBCFE9FFDB2A10
:1047A000050EDBCFEAFF01E3DB2AE552E750EF6EAF
:1047B000FB0EDBCFE9FFFC0EDBCFEAFFEE2A000E9B
:1047C000ED22020EDBCFE6FF030EDBCFE6FFDECFEE
:1047D000E6FFDDCFE6FF040EDBCFE6FF050EDBCF05
:1047E000E6FF7EEC1BF0146E060EE15E1450E76EE1
:1047F000070EE7CFDBFFDB500BE0070EDBCFE6FF5A
:1048000057EC20F0E552E76E060EE7CFDBFF16D03F
:10481000020EDBCF14F0030EDBCF15F0010ED890A3
:1048200014361536E806FBE1FB0EDBCFE9FFFC0E84
:10483000DBCFEAFF1450EE261550ED2205D0030E13
:10484000F36E060EF3CFDBFF05D0030EF36E060EFC
:10485000F3CFDBFF060EDB50146E0A0EE15C03E2C1
:1048600000D0E16AE552E16E1450E552E7CFD9FF7E
:02487000120034
:0E487200DACFE4FFE2CFDAFFE9CFE4FFEACFCE
:10488000E4FFF6CFE4FFF7CFE4FFF5CFE4FFF3CF8B
:10489000E4FFF4CFE4FFFACFE4FF00EE00F0140EE3
:1048A000E80403E3EECFE4FFFBD700EE14F00A0EBA
:1048B000E80403E3EECFE4FFFBD7E652F2944DC1E8
:1048C000E6FF4EC1E6FF25EC2AF0E552E552010174
:1048D0004F51501107E005D050C1FAFF01014F516F
:1048E000F96EFADF0101552B000E5623572358238A
:1048F000592B5A235B2B5C235D2B5E23E55200EE84
:104900001DF00A0EE80403E3E5CFEDFFFBD700EE50
:1049100013F0140EE80403E3E5CFEDFFFBD7E5CF7A
:10492000FAFFE5CFF4FFE5CFF3FFE5CFF5FFE5CFE5
:10493000F7FFE5CFF6FFE5CFEAFFE5CFE9FFE5CFEB
:10494000DAFF1100DACFE4FFE2CFDAFFE9CFE4FFCC
:10495000EACFE4FFF6CFE4FFF7CFE4FFF5CFE4FFC3
:10496000F3CFE4FFF4CFE4FFFACFE4FF00EE00F072
:10497000140EE80403E3EECFE4FFFBD700EE14F0DF
:104980000A0EE80403E3EECFE4FFFBD7E6529E9065
:1049900051C1E6FF52C1E6FF09EC2AF0E552E552AB
:1049A00001015351541107E005D054C1FAFF010130
:1049B0005351F96EFADFE55200EE1DF00A0EE804DD
:1049C00003E3E5CFEDFFFBD700EE13F0140EE80490
:1049D00003E3E5CFEDFFFBD7E5CFFAFFE5CFF4FF2B
:1049E000E5CFF3FFE5CFF5FFE5CFF7FFE5CFF6FF26
:1049F000E5CFEAFFE5CFE9FFE5CFDAFF1100D9CF38
:104A0000E6FFE1CFD9FF9F0EE66E41EC2AF0E552BA
:104A1000FD0EDBCFE6FFFE0EDBCFE6FF25EC2AF036
:104A2000E552E552FD0EDBCF4DF1FE0EDBCF4EF130
:104A3000FB0EDBCF4FF1FC0EDBCF50F1E552E7CFA1
:104A4000D9FF1200D9CFE6FFE1CFD9FFC50EE66E40
:104A500071EC29F0E552FD0EDBCFE6FFFE0EDBCF59
:104A6000E6FF09EC2AF0E552E5529F80FD0EDBCF10
:104A700051F1FE0EDBCF52F1FB0EDBCF53F1FC0EFA
:0C4A8000DBCF54F1E552E7CFD9FF120064
:044A8C0000C18140A4
:104A900001C0804101C0804100C1814001C080410E
:104AA00000C1814000C1814001C0804101C08041FE
:104AB00000C1814000C1814001C0804100C18140EE
:104AC00001C0804101C0804100C1814001C08041DE
:104AD00000C1814000C1814001C0804100C18140CE
:104AE00001C0804101C0804100C1814000C18140BE
:104AF00001C0804101C0804100C1814001C08041AE
:104B000000C1814000C1814001C0804101C080419D
:104B100000C1814000C1814001C0804100C181408D
:104B200001C0804101C0804100C1814000C181407D
:104B300001C0804101C0804100C1814001C080416D
:104B400000C1814000C1814001C0804100C181405D
:104B500001C0804101C0804100C1814001C080414D
:104B600000C1814000C1814001C0804101C080413D
:104B700000C1814000C1814001C0804100C181402D
:104B800001C0804101C0804100C1814000C0C1011D
:104B9000C30302C2C60607C705C5C404CC0C0DCDAD
:104BA0000FCFCE0E0ACACB0BC90908C8D81819D91D
:104BB0001BDBDA1A1EDEDF1FDD1D1CDC14D4D5154D
:104BC000D71716D6D21213D311D1D010F03031F13D
:104BD00033F3F23236F6F737F53534F43CFCFD3D6D
:104BE000FF3F3EFEFA3A3BFB39F9F83828E8E9295D
:104BF000EB2B2AEAEE2E2FEF2DEDEC2CE42425E50D
:104C000027E7E62622E2E323E12120E0A06061A17C
:104C100063A3A26266A6A767A56564A46CACAD6D2C
:104C2000AF6F6EAEAA6A6BAB69A9A86878B8B9799C
:104C3000BB7B7ABABE7E7FBF7DBDBC7CB47475B5CC
:104C400077B7B67672B2B373B17170B050909151BC
:104C50009353529296565797559594549C5C5D9DEC
:104C60005F9F9E5E5A9A9B5B9959589888484989DC
:104C70004B8B8A4A4E8E8F4F8D4D4C8C448485458C
:0C4C800087474686824243834181804082
:044C8C00D9CFE6FF97
:104C9000E1CFD9FFE652DF6A020EE76EF90EDBCFF5
:104CA00014F0FA0EDBCF15F0E7501426000E152293
:104CB000200E145C000E15585AE201014B6B4C6B30
:104CC0004BC1E9FF4CC1EAFF4B2B000E4C232B0ECE
:104CD000E926010EEA22FE0EDBCFEFFFFD0EDB50D0
:104CE00002E0FF0E01D0000EE66E4BC1E9FF4CC1A1
:104CF000EAFF4B2B000E4C232B0EE926010EEA2275
:104D0000E552E750EF6ED950F90FE96EFF0EDA2049
:104D1000EA6E000ED880EE54000EED5427E2F90E34
:104D2000DBCFE6FFFA0EDBCFE6FFFB0EDBCFE6FFC5
:104D3000FC0EDBCFE6FF2B0E4B25146E010E4C2133
:104D4000156E14C0E6FF15C0E6FF96EC28F0166E4F
:104D5000060EE15E1650F90EDBCF08F0FA0EDBCF3F
:104D600009F0085001014B2709504C2302D0040ED2
:104D7000DF6EDF5000D0E552E552E7CFD9FF1200D9
:104D8000D9CFE6FFE1CFD9FF4BC1E6FF4CC1E6FF2B
:104D90002B0EE66E010EE66E010EE76EFD0EDBCF0A
:104DA00014F0FE0EDBCF15F0E7501426000E15228E
:104DB00014C0E6FF15C0E6FF96EC28F0166E060E4E
:104DC000E15E1650010E0101156A4B25146E4C511F
:104DD0001522FB0EDBCFE9FFFC0EDBCFEAFF14C090
:104DE000EEFF15C0EDFF000E00D0E552E7CFD9FF72
:024DF0001200AF
:0E4DF200D9CFE6FFE1CFD9FF060EE126DF683C
:104E0000010EDB68020EDB6A030EDB6AFB0EDBCFF2
:104E100014F0DB06FC0EDBCF15F001E2DB061450CC
:104E2000151038E0010EDBCFE6FFFD0EDBCFE9FF0A
:104E3000DB2AFE0EDBCFEAFF01E3DB2AEF50E5526F
:104E4000E718E66ED950040FE96EDACFEAFFE552B3
:104E5000E750EE6EED6A040EDBCFF6FF050EDBCFFA
:104E6000F7FF8C0EF6264A0EF7220800F550DF18E1
:104E7000E76E010EE7CFDBFF040EDBCFF6FF050E7A
:104E8000DBCFF7FF8C0EF6264B0EF7220800F5500D
:104E9000DF6EBCD7DFCF14F014C015F0146A020E19
:104EA00014C0DBFF030E15C0DBFF010EDB50146ED8
:104EB000156AD950020FE96EDACFEAFF1450EE12EC
:104EC0001550ED12020EDBCF14F0030EDBCF15F000
:104ED00014C0F3FF15C0F4FF060EE15C03E200D03E
:0E4EE000E16AE552E16EE552E7CFD9FF12001C
:024EEE00D9CF1A
:104EF000E6FFE1CFD9FFC50EE66E50EC29F0E55292
:104F0000B190A282FD0EDBCF7CFFFE0EDBCF7DFFDA
:104F1000010E00D0E552E7CFD9FF1200B1907CCF4F
:104F2000E6FF7DCFE6FFEDEC29F0E552E552B180DA
:104F30001200B1901200DACFE4FFE2CFDAFFE9CF3E
:104F4000E4FFEACFE4FFF6CFE4FFF7CFE4FFF5CFCD
:104F5000E4FFF3CFE4FFF4CFE4FFFACFE4FFFBCFAD
:104F6000E4FF00EE00F0140EE80403E3EECFE4FFEC
:104F7000FBD700EE14F00A0EE80403E3EECFE4FFE3
:104F8000FBD7E652A19207D06ECFFBFF6DCFFAFFA1
:104F90000F016C51F96EF8DFE55200EE1DF00A0EBC
:104FA000E80403E3E5CFEDFFFBD700EE13F0140EAA
:104FB000E80403E3E5CFEDFFFBD7E5CFFBFFE5CF4B
:104FC000FAFFE5CFF4FFE5CFF3FFE5CFF5FFE5CF3F
:104FD000F7FFE5CFF6FFE5CFEAFFE5CFE9FFE5CF45
:044FE000DAFF1100E3
:0C4FE400D9CFE6FFE1CFD9FF020EE12695
:104FF000CFEC29F091EC2AF094EC00F09FEC1AF041
:10500000000EE66EE66AEF0EE66ED80EE66EFFEC78
:1050100024F0E552E552E552E552E80EE66E170E31
:10502000E66E670EE66EC50EE66E22EC25F0E552E2
:10503000E552E552E55215EC00F0F40E0101555D24
:10504000010E5659000E5759000E585907E394ECBB
:105050002AF00101556B566B576B586B01010A0E14
:105060005D5D000E5E5905E324EC08F001015D6B07
:105070005E6B03EC17F00400E0D7020EE15C02E285
:0E508000E16AE552E16EE552E7CFD9FF12007A
:02508E00300EE2
:10509000F66E000EF76E000EF86E01010900F55075
:1050A000646F0900F550656F03E1646701D03DD07E
:1050B0000900F5505F6F0900F550606F0900F55069
:1050C000616F09000900F550E96E0900F550EA6EBC
:1050D000090009000900F550626F0900F550636F7F
:1050E00009000900F6CF66F1F7CF67F1F8CF68F154
:1050F0005FC1F6FF60C1F7FF61C1F8FF01016253B4
:1051000002E1635307E00900F550EE6E6207F8E232
:105110006307F9D766C1F6FF67C1F7FF68C1F8FFFB
:0C51200001016407000E655BBFD71200A0
:04512C00D9CFE6FFF2
:10513000DACFE6FFFA0EE3CFD9FFFB0EE3CFDAFFBB
:10514000FC0EE3CFE9FFFD0EE3CFEAFFE9CFF3FF6B
:10515000EACFF4FFF80EE35003E1F90EE35008E064
:10516000F80EE30602E2F90EE306DECFEEFFF2D719
:10517000FF0EE3CFDAFFE552FF0EE3CFD9FFE55292
:105180001200FE0EE3CFE9FFFF0EE3CFEAFFE9CF07
:10519000F3FFEACFF4FFFB0EE35003E1FC0EE35014
:1051A00009E0FB0EE30602E2FC0EE306FD0EE3500F
:0651B000EE6EF1D71200C3
:0A51B600D9CFE6FFDACFE6FFE1CF24
:1051C000D9FFE2CFDAFFAC6AAB6AFD0EDBB0AC8888
:1051D000DBA202D0AC8CAB8CDBB4AC8EDBA602D0F5
:1051E000AB8801D0AB8ADBB8AC849E98DBBAAB86C7
:1051F000DBAC02D09D8A01D09D9A9E9ADBAE02D094
:105200009D8801D09D98FB0EDB50AF6EFB0EFC0E0F
:10521000DBCF15F015C014F0156A1450B06EAC8ACF
:10522000AB8E949C948EAC50100B04E0AC50800B71
:1052300001E1948CE552E5CFDAFFE7CFD9FF120008
:105240000F017F6B010E00D01200D9CFE6FFE1CF36
:10525000D9FF0F01010E7F6FFE0EDBCF7EFF010E27
:1052600000D0E552E7CFD9FF1200D9CFE6FFE1CF5A
:10527000D9FFE652DF6A0F017F510BE0FD0EDBCF55
:10528000E9FFFE0EDBCFEAFF7ECFEFFF7F6B010E63
:10529000DF6EDF5000D0E552E552E7CFD9FF1200B4
:1052A000D9CFE6FFDACFE6FFE1CFD9FFE2CFDAFFD1
:1052B000FD0EDB50360BB16EB36AB26AA192FD0EE1
:1052C000DBAE02D0A08201D0A092DBA002D0B18ED2
:1052D00001D0B19EB180E552E5CFDAFFE7CFD9FF2B
:0252E0001200BA
:0E52E200D9CFE6FFDACFE6FFE1CFD9FFE2CF6A
:1052F000DAFFFD0EDB507E0BCD6EFD0EDBAC02D077
:10530000CD8E01D0CD9ECF6ACE6A9E90DBAE02D00C
:105310009D8001D09D90CD80E552E5CFDAFFE7CFAB
:04532000D9FF12009F
:0C532400D9CFE6FFDACFE6FFE1CFD9FFDA
:10533000E2CFDAFFE652F20E01016B17ABAC03D0FD
:105340006B91ABB06B81ABB46B85ABB26B87AE507E
:10535000DF6EDF50E552E552E5CFDAFFE7CFD9FF48
:02536000120039
:0E53620008C012F008500D02F4CF07F0F3CF90
:1053700006F009500E02F4CF09F0F3CF08F00D0249
:10538000F3500726F4500822E86A092212500E0250
:0E539000F3500726F4500822E86A0922000CA8
:02539E000F0EF0
:1053A000C16EC26A949094948294949C948E9694C4
:1053B0008484956A936A816A969284929690849086
:1053C000929A809A929880989296809692948094DD
:0A53D0009292809292908090120059
:0653DA00D9CFE6FFDACF97
:1053E000E6FFE1CFD9FFE2CFDAFFE652E652FC0E4C
:1053F000DBCFDEFFDBCFDDFF010EDB50B36EDF5016
:10540000B26EE552E552E552E5CFDAFFE7CFD9FFBC
:02541000120088
:0E541200D9CFE6FFDACFE6FFE1CFD9FFE2CF38
:10542000DAFFE652E652FC0EDBCFDEFFDBCFDDFF1C
:10543000010EDB50CF6EDF50CE6EE552E552E552E5
:0A544000E5CFDAFFE7CFD9FF120035
:06544A00D9CFE6FFDACF26
:10545000E6FFE1CFD9FFE2CFDAFFE652E652FC0EDB
:10546000DBCFDEFFDBCFDDFF010EDB50D76EDF5081
:10547000D66EE552E552E552E5CFDAFFE7CFD9FF28
:02548000120018
:0E548200D9CFE6FFDACFE6FFE1CFD9FFE2CFC8
:10549000DAFFFD0EDB507F0BD56ED76AD66AF29429
:1054A000FD0EDBAE02D0F28A01D0F29AD58EE55223
:0A54B000E5CFDAFFE7CFD9FF1200C5
:0654BA00056A046A100EF1
:1054C000E76ED89008360936043605360D50045C70
:1054D0000E50055805E30D50045E0E50055A082A7B
:0654E000E72EF0D71200D8
:0A54E600800EF36E00EE00F00F0ED2
:1054F00001D81200EA6002D0EE6AFCD7F350E960EE
:065500001200EE6AFCD768
:0A5506001EEE00F02EEE00F0F86A31
:10551000019C47EC28F003EC00F0F2EC27F0FBD7FD
:02552000120077
:0E55220001016D6B120001016D0503E16D6B5F
:0C553000829003D0010E6D6F828012008B
:04553C00FF0EE3502B
:10554000E84E1200000000D000D000D0E82EFAD7BC
:02555000120047
:0E55520000000000000000000000000000004B
:10556000000000000000000000000000000000003B
:10557000000000000000000000000000000000002B
:10558000000000000000000000000000000000001B
:045950000000000053
:0C59540000000000000000000000000047
:105960000000000000000000000000000000000037
:105970000000000000000000000000000000000027
:1059800000003031204944454F4E4943532049449B
:10599000454153202620454C454354524F4E4943E0
:0959A000532053554248524100C6
:0759A90000000000000000F7
:0B59B0000000000000000000000000EC
:0259BB000000EA
:0359BD0002118054
:1059C0004D00041A460003E61D0010F81B000608EF
:1059D0001B001728200001162400058826000FFA56
:1059E000270002AA430000000000000000000000A1
:0E59F0000000000000000000000000000000A9
:0159FE0000A8
:020000040030CA
:0100010006F8
:010002001BE2
:0100030012EA
:010005008179
:010006008178
:010008000FE8
:01000900C036
:01000A000FE6
:01000B00E014
:01000C000FE4
:01000D0040B2
:00000001FF
